{
  "_format": "hh-sol-artifact-1",
  "contractName": "CrazyZooStaking",
  "sourceName": "contracts/CrazyZooStaking.sol",
  "abi": [
    {
      "inputs": [
        {
          "internalType": "contract INftCollection",
          "name": "_nftCollection",
          "type": "address"
        },
        {
          "internalType": "address",
          "name": "__USDCToken",
          "type": "address"
        },
        {
          "internalType": "address",
          "name": "_SingleSwap",
          "type": "address"
        },
        {
          "internalType": "contract IZooToken",
          "name": "_ZooToken",
          "type": "address"
        },
        {
          "internalType": "address",
          "name": "_feeCollector",
          "type": "address"
        }
      ],
      "stateMutability": "nonpayable",
      "type": "constructor"
    },
    {
      "anonymous": false,
      "inputs": [
        {
          "indexed": false,
          "internalType": "uint256",
          "name": "_nftIndex",
          "type": "uint256"
        },
        {
          "indexed": false,
          "internalType": "uint256",
          "name": "_newValue",
          "type": "uint256"
        }
      ],
      "name": "NewRewardsPerDay",
      "type": "event"
    },
    {
      "anonymous": false,
      "inputs": [
        {
          "indexed": true,
          "internalType": "uint256[]",
          "name": "_tokenIds",
          "type": "uint256[]"
        },
        {
          "indexed": false,
          "internalType": "address",
          "name": "_to",
          "type": "address"
        }
      ],
      "name": "Withdrawn",
      "type": "event"
    },
    {
      "anonymous": false,
      "inputs": [
        {
          "indexed": false,
          "internalType": "uint256",
          "name": "rewards",
          "type": "uint256"
        }
      ],
      "name": "_claimRewards",
      "type": "event"
    },
    {
      "anonymous": false,
      "inputs": [
        {
          "indexed": false,
          "internalType": "uint256",
          "name": "_tokenId",
          "type": "uint256"
        }
      ],
      "name": "_feedYourAnimal",
      "type": "event"
    },
    {
      "anonymous": false,
      "inputs": [
        {
          "indexed": false,
          "internalType": "uint256[]",
          "name": "fees",
          "type": "uint256[]"
        }
      ],
      "name": "_foodPrices",
      "type": "event"
    },
    {
      "anonymous": false,
      "inputs": [
        {
          "indexed": false,
          "internalType": "bool",
          "name": "",
          "type": "bool"
        }
      ],
      "name": "_nftStaked",
      "type": "event"
    },
    {
      "anonymous": false,
      "inputs": [
        {
          "indexed": false,
          "internalType": "uint256",
          "name": "rewards",
          "type": "uint256"
        }
      ],
      "name": "_reinvestRewards",
      "type": "event"
    },
    {
      "inputs": [],
      "name": "USDCToken",
      "outputs": [
        {
          "internalType": "contract IERC20USDC",
          "name": "",
          "type": "address"
        }
      ],
      "stateMutability": "view",
      "type": "function"
    },
    {
      "inputs": [],
      "name": "ZooToken",
      "outputs": [
        {
          "internalType": "contract IZooToken",
          "name": "",
          "type": "address"
        }
      ],
      "stateMutability": "view",
      "type": "function"
    },
    {
      "inputs": [],
      "name": "ZooTokenDecimal",
      "outputs": [
        {
          "internalType": "uint256",
          "name": "",
          "type": "uint256"
        }
      ],
      "stateMutability": "view",
      "type": "function"
    },
    {
      "inputs": [],
      "name": "_USDCToken",
      "outputs": [
        {
          "internalType": "address",
          "name": "",
          "type": "address"
        }
      ],
      "stateMutability": "view",
      "type": "function"
    },
    {
      "inputs": [],
      "name": "_swap",
      "outputs": [
        {
          "internalType": "address",
          "name": "",
          "type": "address"
        }
      ],
      "stateMutability": "view",
      "type": "function"
    },
    {
      "inputs": [
        {
          "internalType": "address",
          "name": "_user",
          "type": "address"
        }
      ],
      "name": "availableRewards",
      "outputs": [
        {
          "internalType": "uint256",
          "name": "",
          "type": "uint256"
        }
      ],
      "stateMutability": "view",
      "type": "function"
    },
    {
      "inputs": [
        {
          "internalType": "address",
          "name": "staker_",
          "type": "address"
        }
      ],
      "name": "calculateRewards",
      "outputs": [
        {
          "internalType": "uint256",
          "name": "",
          "type": "uint256"
        }
      ],
      "stateMutability": "view",
      "type": "function"
    },
    {
      "inputs": [],
      "name": "claimRewards",
      "outputs": [],
      "stateMutability": "nonpayable",
      "type": "function"
    },
    {
      "inputs": [],
      "name": "feeCollector",
      "outputs": [
        {
          "internalType": "address",
          "name": "",
          "type": "address"
        }
      ],
      "stateMutability": "view",
      "type": "function"
    },
    {
      "inputs": [
        {
          "internalType": "uint256",
          "name": "_tokenId",
          "type": "uint256"
        }
      ],
      "name": "feedYourAnimal",
      "outputs": [],
      "stateMutability": "nonpayable",
      "type": "function"
    },
    {
      "inputs": [
        {
          "internalType": "uint256",
          "name": "",
          "type": "uint256"
        }
      ],
      "name": "foodPrices",
      "outputs": [
        {
          "internalType": "uint256",
          "name": "",
          "type": "uint256"
        }
      ],
      "stateMutability": "view",
      "type": "function"
    },
    {
      "inputs": [],
      "name": "getRewardsPerDay",
      "outputs": [
        {
          "internalType": "uint256",
          "name": "",
          "type": "uint256"
        },
        {
          "internalType": "uint256",
          "name": "",
          "type": "uint256"
        },
        {
          "internalType": "uint256",
          "name": "",
          "type": "uint256"
        }
      ],
      "stateMutability": "view",
      "type": "function"
    },
    {
      "inputs": [
        {
          "internalType": "uint256",
          "name": "_withdrawAmount",
          "type": "uint256"
        },
        {
          "internalType": "uint256",
          "name": "_depositAmount",
          "type": "uint256"
        }
      ],
      "name": "getWhaleFee",
      "outputs": [
        {
          "internalType": "uint256",
          "name": "",
          "type": "uint256"
        }
      ],
      "stateMutability": "view",
      "type": "function"
    },
    {
      "inputs": [
        {
          "internalType": "uint256",
          "name": "_tokenId",
          "type": "uint256"
        }
      ],
      "name": "isHungry",
      "outputs": [
        {
          "internalType": "bool",
          "name": "",
          "type": "bool"
        }
      ],
      "stateMutability": "view",
      "type": "function"
    },
    {
      "inputs": [],
      "name": "nftCollection",
      "outputs": [
        {
          "internalType": "contract INftCollection",
          "name": "",
          "type": "address"
        }
      ],
      "stateMutability": "view",
      "type": "function"
    },
    {
      "inputs": [],
      "name": "owner",
      "outputs": [
        {
          "internalType": "address",
          "name": "",
          "type": "address"
        }
      ],
      "stateMutability": "view",
      "type": "function"
    },
    {
      "inputs": [],
      "name": "reinvestRewards",
      "outputs": [],
      "stateMutability": "nonpayable",
      "type": "function"
    },
    {
      "inputs": [
        {
          "internalType": "uint256",
          "name": "",
          "type": "uint256"
        }
      ],
      "name": "rewardDays",
      "outputs": [
        {
          "internalType": "uint256",
          "name": "",
          "type": "uint256"
        }
      ],
      "stateMutability": "view",
      "type": "function"
    },
    {
      "inputs": [
        {
          "internalType": "uint256",
          "name": "",
          "type": "uint256"
        }
      ],
      "name": "rewardsPerDay",
      "outputs": [
        {
          "internalType": "uint256",
          "name": "",
          "type": "uint256"
        }
      ],
      "stateMutability": "view",
      "type": "function"
    },
    {
      "inputs": [
        {
          "internalType": "address",
          "name": "_feeCollector",
          "type": "address"
        }
      ],
      "name": "setFeeCollectorAddress",
      "outputs": [],
      "stateMutability": "nonpayable",
      "type": "function"
    },
    {
      "inputs": [
        {
          "internalType": "uint256[]",
          "name": "fees",
          "type": "uint256[]"
        }
      ],
      "name": "setFees",
      "outputs": [],
      "stateMutability": "nonpayable",
      "type": "function"
    },
    {
      "inputs": [
        {
          "internalType": "address",
          "name": "nftAddress",
          "type": "address"
        }
      ],
      "name": "setNFTAddress",
      "outputs": [],
      "stateMutability": "nonpayable",
      "type": "function"
    },
    {
      "inputs": [
        {
          "internalType": "uint256",
          "name": "_nftIndex",
          "type": "uint256"
        },
        {
          "internalType": "uint256",
          "name": "_newDays",
          "type": "uint256"
        }
      ],
      "name": "setRewardDays",
      "outputs": [],
      "stateMutability": "nonpayable",
      "type": "function"
    },
    {
      "inputs": [
        {
          "internalType": "uint256",
          "name": "_nftIndex",
          "type": "uint256"
        },
        {
          "internalType": "uint256",
          "name": "_newValue",
          "type": "uint256"
        }
      ],
      "name": "setRewardsPerDay",
      "outputs": [],
      "stateMutability": "nonpayable",
      "type": "function"
    },
    {
      "inputs": [
        {
          "internalType": "address",
          "name": "_swapAddress",
          "type": "address"
        }
      ],
      "name": "setSwapAddress",
      "outputs": [],
      "stateMutability": "nonpayable",
      "type": "function"
    },
    {
      "inputs": [
        {
          "internalType": "address",
          "name": "usdcToken",
          "type": "address"
        }
      ],
      "name": "setUsdcAddress",
      "outputs": [],
      "stateMutability": "nonpayable",
      "type": "function"
    },
    {
      "inputs": [
        {
          "internalType": "address",
          "name": "ZooAddress",
          "type": "address"
        }
      ],
      "name": "setZooAddress",
      "outputs": [],
      "stateMutability": "nonpayable",
      "type": "function"
    },
    {
      "inputs": [
        {
          "internalType": "uint256",
          "name": "tokenDecimal",
          "type": "uint256"
        }
      ],
      "name": "setZooTokenDecimal",
      "outputs": [],
      "stateMutability": "nonpayable",
      "type": "function"
    },
    {
      "inputs": [
        {
          "internalType": "uint256",
          "name": "fees",
          "type": "uint256"
        }
      ],
      "name": "setwhalesWithdrawalExtraFee",
      "outputs": [],
      "stateMutability": "nonpayable",
      "type": "function"
    },
    {
      "inputs": [
        {
          "internalType": "uint256[]",
          "name": "_tokenIds",
          "type": "uint256[]"
        }
      ],
      "name": "stakeNFT",
      "outputs": [],
      "stateMutability": "nonpayable",
      "type": "function"
    },
    {
      "inputs": [
        {
          "internalType": "uint256",
          "name": "",
          "type": "uint256"
        }
      ],
      "name": "stakedBefore",
      "outputs": [
        {
          "internalType": "bool",
          "name": "",
          "type": "bool"
        }
      ],
      "stateMutability": "view",
      "type": "function"
    },
    {
      "inputs": [
        {
          "internalType": "address",
          "name": "",
          "type": "address"
        },
        {
          "internalType": "uint256",
          "name": "",
          "type": "uint256"
        }
      ],
      "name": "stakedNfts",
      "outputs": [
        {
          "internalType": "uint256",
          "name": "id",
          "type": "uint256"
        },
        {
          "internalType": "uint256",
          "name": "feedCounter",
          "type": "uint256"
        },
        {
          "internalType": "uint256",
          "name": "lastTimeFed",
          "type": "uint256"
        },
        {
          "internalType": "uint256",
          "name": "timeStaked",
          "type": "uint256"
        },
        {
          "internalType": "bool",
          "name": "expired",
          "type": "bool"
        }
      ],
      "stateMutability": "view",
      "type": "function"
    },
    {
      "inputs": [
        {
          "internalType": "uint256",
          "name": "",
          "type": "uint256"
        }
      ],
      "name": "stakerAddress",
      "outputs": [
        {
          "internalType": "address",
          "name": "",
          "type": "address"
        }
      ],
      "stateMutability": "view",
      "type": "function"
    },
    {
      "inputs": [
        {
          "internalType": "address",
          "name": "",
          "type": "address"
        }
      ],
      "name": "stakers",
      "outputs": [
        {
          "internalType": "uint256",
          "name": "fundsDeposited",
          "type": "uint256"
        },
        {
          "internalType": "uint256",
          "name": "amountStaked",
          "type": "uint256"
        },
        {
          "internalType": "uint256",
          "name": "timeOfLastUpdate",
          "type": "uint256"
        },
        {
          "internalType": "uint256",
          "name": "unclaimedRewards",
          "type": "uint256"
        }
      ],
      "stateMutability": "view",
      "type": "function"
    },
    {
      "inputs": [
        {
          "internalType": "uint256",
          "name": "",
          "type": "uint256"
        }
      ],
      "name": "stakersArray",
      "outputs": [
        {
          "internalType": "address",
          "name": "",
          "type": "address"
        }
      ],
      "stateMutability": "view",
      "type": "function"
    },
    {
      "inputs": [],
      "name": "swap",
      "outputs": [
        {
          "internalType": "contract ISingleSwap",
          "name": "",
          "type": "address"
        }
      ],
      "stateMutability": "view",
      "type": "function"
    },
    {
      "inputs": [
        {
          "internalType": "address",
          "name": "_user",
          "type": "address"
        }
      ],
      "name": "userStakeInfo",
      "outputs": [
        {
          "internalType": "uint256",
          "name": "_tokensStaked",
          "type": "uint256"
        },
        {
          "internalType": "uint256",
          "name": "_availableRewards",
          "type": "uint256"
        }
      ],
      "stateMutability": "view",
      "type": "function"
    },
    {
      "inputs": [],
      "name": "whalesWithdrawalExtraFee",
      "outputs": [
        {
          "internalType": "uint256",
          "name": "",
          "type": "uint256"
        }
      ],
      "stateMutability": "view",
      "type": "function"
    },
    {
      "inputs": [
        {
          "internalType": "uint256[]",
          "name": "_tokenIds",
          "type": "uint256[]"
        }
      ],
      "name": "withdraw",
      "outputs": [],
      "stateMutability": "nonpayable",
      "type": "function"
    }
  ],
  "bytecode": "0x608060405260405180606001604052806730927f74c9de000067ffffffffffffffff1681526020016768155a43676e000067ffffffffffffffff1681526020016714d1120d7b16000067ffffffffffffffff16815250600b906003620000679291906200034d565b506040518060600160405280620927c062ffffff168152602001620aae6062ffffff168152602001620c350062ffffff16815250600e906003620000ad9291906200039e565b5060405180606001604052806302932e0063ffffffff1681526020016302932e0063ffffffff1681526020016302932e0063ffffffff168152506011906003620000f9929190620003ea565b50620f4240601655622625a06017553480156200011557600080fd5b50604051620057cb380380620057cb83398181016040528101906200013b91906200049b565b84600160006101000a81548173ffffffffffffffffffffffffffffffffffffffff021916908373ffffffffffffffffffffffffffffffffffffffff160217905550836000806101000a81548173ffffffffffffffffffffffffffffffffffffffff021916908373ffffffffffffffffffffffffffffffffffffffff16021790555083600560006101000a81548173ffffffffffffffffffffffffffffffffffffffff021916908373ffffffffffffffffffffffffffffffffffffffff16021790555082600260006101000a81548173ffffffffffffffffffffffffffffffffffffffff021916908373ffffffffffffffffffffffffffffffffffffffff16021790555082600360006101000a81548173ffffffffffffffffffffffffffffffffffffffff021916908373ffffffffffffffffffffffffffffffffffffffff16021790555081600460006101000a81548173ffffffffffffffffffffffffffffffffffffffff021916908373ffffffffffffffffffffffffffffffffffffffff16021790555033601460006101000a81548173ffffffffffffffffffffffffffffffffffffffff021916908373ffffffffffffffffffffffffffffffffffffffff16021790555080601560006101000a81548173ffffffffffffffffffffffffffffffffffffffff021916908373ffffffffffffffffffffffffffffffffffffffff1602179055505050505050620005d2565b82600381019282156200038b579160200282015b828111156200038a578251829067ffffffffffffffff1690559160200191906001019062000361565b5b5090506200039a919062000437565b5090565b8260038101928215620003d7579160200282015b82811115620003d6578251829062ffffff16905591602001919060010190620003b2565b5b509050620003e6919062000437565b5090565b826003810192821562000424579160200282015b8281111562000423578251829063ffffffff16905591602001919060010190620003fe565b5b50905062000433919062000437565b5090565b5b808211156200045257600081600090555060010162000438565b5090565b600081519050620004678162000584565b92915050565b6000815190506200047e816200059e565b92915050565b6000815190506200049581620005b8565b92915050565b600080600080600060a08688031215620004ba57620004b96200057f565b5b6000620004ca888289016200046d565b9550506020620004dd8882890162000456565b9450506040620004f08882890162000456565b9350506060620005038882890162000484565b9250506080620005168882890162000456565b9150509295509295909350565b600062000530826200055f565b9050919050565b6000620005448262000523565b9050919050565b6000620005588262000523565b9050919050565b600073ffffffffffffffffffffffffffffffffffffffff82169050919050565b600080fd5b6200058f8162000523565b81146200059b57600080fd5b50565b620005a98162000537565b8114620005b557600080fd5b50565b620005c3816200054b565b8114620005cf57600080fd5b50565b6151e980620005e26000396000f3fe608060405234801561001057600080fd5b506004361061023d5760003560e01c806378ce00c41161013b57806394b6e751116100b8578063d38bcdee1161007c578063d38bcdee146106de578063e2421bd3146106fa578063e4bd248e14610718578063eb75bc3614610738578063f854a27f146107565761023d565b806394b6e75114610636578063983d95ce1461066a578063b3fe65f014610686578063b5f4d38c146106b6578063c415b95c146106c05761023d565b80638847081a116100ff5780638847081a146105695780638bc824d5146105995780638da5cb5b146105b55780639168ae72146105d357806394067045146106065761023d565b806378ce00c4146104c75780637d6ba5b3146104e35780637dc4b9cc146104ff57806380670ac01461051b5780638119c0651461054b5761023d565b8063372500ab116101c95780635357e9161161018d5780635357e9161461040f5780635a6759cd1461043f57806364ab86751461045d5780636588103b1461048d57806369d03738146104ab5761023d565b8063372500ab1461037e5780634c34c8de146103885780634d58192f146103a65780634ead4327146103c25780634fa91720146103f35761023d565b8063183218d111610210578063183218d1146102dc5780631a1faa991461030c5780632ae0357f1461032857806330688ab81461034457806333f398d4146103625761023d565b806303345203146102425780630de84540146102725780631299c2e114610290578063182c5744146102c0575b600080fd5b61025c6004803603810190610257919061446b565b610786565b6040516102699190614af5565b60405180910390f35b61027a6107a1565b604051610287919061493a565b60405180910390f35b6102aa60048036038101906102a5919061446b565b6107c7565b6040516102b791906148ce565b60405180910390f35b6102da60048036038101906102d591906143f1565b6107e7565b005b6102f660048036038101906102f1919061446b565b61151c565b60405161030391906148ce565b60405180910390f35b61032660048036038101906103219190614357565b611797565b005b610342600480360381019061033d91906143f1565b6118a5565b005b61034c6119f0565b6040516103599190614806565b60405180910390f35b61037c6004803603810190610377919061446b565b611a16565b005b610386611dd1565b005b610390611fcf565b60405161039d91906148e9565b60405180910390f35b6103c060048036038101906103bb91906144c5565b611ff5565b005b6103dc60048036038101906103d79190614357565b612249565b6040516103ea929190614b39565b60405180910390f35b61040d600480360381019061040891906144c5565b6122a1565b005b6104296004803603810190610424919061446b565b61252e565b6040516104369190614806565b60405180910390f35b61044761256d565b6040516104549190614806565b60405180910390f35b61047760048036038101906104729190614357565b612591565b6040516104849190614af5565b60405180910390f35b610495612a74565b6040516104a29190614904565b60405180910390f35b6104c560048036038101906104c09190614357565b612a9a565b005b6104e160048036038101906104dc919061446b565b612ba8565b005b6104fd60048036038101906104f89190614357565b612c4f565b005b61051960048036038101906105149190614357565b612d5d565b005b6105356004803603810190610530919061446b565b612e6b565b6040516105429190614af5565b60405180910390f35b610553612e86565b604051610560919061491f565b60405180910390f35b610583600480360381019061057e91906144c5565b612eac565b6040516105909190614af5565b60405180910390f35b6105b360048036038101906105ae919061446b565b613304565b005b6105bd6133ac565b6040516105ca9190614806565b60405180910390f35b6105ed60048036038101906105e89190614357565b6133d2565b6040516105fd9493929190614b99565b60405180910390f35b610620600480360381019061061b919061446b565b613402565b60405161062d9190614806565b60405180910390f35b610650600480360381019061064b91906143b1565b613435565b604051610661959493929190614bde565b60405180910390f35b610684600480360381019061067f91906143f1565b613495565b005b6106a0600480360381019061069b919061446b565b6139d4565b6040516106ad9190614af5565b60405180910390f35b6106be6139ef565b005b6106c8613cc0565b6040516106d59190614806565b60405180910390f35b6106f860048036038101906106f39190614357565b613ce6565b005b610702613df3565b60405161070f9190614af5565b60405180910390f35b610720613df9565b60405161072f93929190614b62565b60405180910390f35b610740613e4e565b60405161074d9190614af5565b60405180910390f35b610770600480360381019061076b9190614357565b613e54565b60405161077d9190614af5565b60405180910390f35b6011816003811061079657600080fd5b016000915090505481565b600460009054906101000a900473ffffffffffffffffffffffffffffffffffffffff1681565b600a6020528060005260406000206000915054906101000a900460ff1681565b601860009054906101000a900460ff1615610837576040517f08c379a000000000000000000000000000000000000000000000000000000000815260040161082e90614955565b60405180910390fd5b6001601860006101000a81548160ff0219169083151502179055506000600760003373ffffffffffffffffffffffffffffffffffffffff1673ffffffffffffffffffffffffffffffffffffffff1681526020019081526020016000206001015411156109125760006108a833612591565b905080600760003373ffffffffffffffffffffffffffffffffffffffff1673ffffffffffffffffffffffffffffffffffffffff16815260200190815260200160002060030160008282546108fc9190614c5e565b9250508190555061090c33613f4e565b50610976565b6006339080600181540180825580915050600190039060005260206000200160009091909190916101000a81548173ffffffffffffffffffffffffffffffffffffffff021916908373ffffffffffffffffffffffffffffffffffffffff1602179055505b600082829050905060005b8181101561142357600a60008585848181106109a05761099f614f0c565b5b90506020020135815260200190815260200160002060009054906101000a900460ff1615610a03576040517f08c379a00000000000000000000000000000000000000000000000000000000081526004016109fa90614995565b60405180910390fd5b6000600160009054906101000a900473ffffffffffffffffffffffffffffffffffffffff1673ffffffffffffffffffffffffffffffffffffffff16632c59ff10868685818110610a5657610a55614f0c565b5b905060200201356040518263ffffffff1660e01b8152600401610a799190614af5565b60206040518083038186803b158015610a9157600080fd5b505afa158015610aa5573d6000803e3d6000fd5b505050506040513d601f19601f82011682018060405250810190610ac99190614498565b90503373ffffffffffffffffffffffffffffffffffffffff16600160009054906101000a900473ffffffffffffffffffffffffffffffffffffffff1673ffffffffffffffffffffffffffffffffffffffff16636352211e878786818110610b3357610b32614f0c565b5b905060200201356040518263ffffffff1660e01b8152600401610b569190614af5565b60206040518083038186803b158015610b6e57600080fd5b505afa158015610b82573d6000803e3d6000fd5b505050506040513d601f19601f82011682018060405250810190610ba69190614384565b73ffffffffffffffffffffffffffffffffffffffff1614610bfc576040517f08c379a0000000000000000000000000000000000000000000000000000000008152600401610bf390614ab5565b60405180910390fd5b600160009054906101000a900473ffffffffffffffffffffffffffffffffffffffff1673ffffffffffffffffffffffffffffffffffffffff1663e985e9c533306040518363ffffffff1660e01b8152600401610c59929190614821565b60206040518083038186803b158015610c7157600080fd5b505afa158015610c85573d6000803e3d6000fd5b505050506040513d601f19601f82011682018060405250810190610ca9919061443e565b610ce8576040517f08c379a0000000000000000000000000000000000000000000000000000000008152600401610cdf90614a35565b60405180910390fd5b600160009054906101000a900473ffffffffffffffffffffffffffffffffffffffff1673ffffffffffffffffffffffffffffffffffffffff166323b872dd3330888887818110610d3b57610d3a614f0c565b5b905060200201356040518463ffffffff1660e01b8152600401610d609392919061484a565b600060405180830381600087803b158015610d7a57600080fd5b505af1158015610d8e573d6000803e3d6000fd5b50505050600560009054906101000a900473ffffffffffffffffffffffffffffffffffffffff1673ffffffffffffffffffffffffffffffffffffffff166323b872dd601560009054906101000a900473ffffffffffffffffffffffffffffffffffffffff1630600160009054906101000a900473ffffffffffffffffffffffffffffffffffffffff1673ffffffffffffffffffffffffffffffffffffffff1663b524ecab866040518263ffffffff1660e01b8152600401610e4f9190614af5565b60206040518083038186803b158015610e6757600080fd5b505afa158015610e7b573d6000803e3d6000fd5b505050506040513d601f19601f82011682018060405250810190610e9f9190614498565b6040518463ffffffff1660e01b8152600401610ebd9392919061484a565b602060405180830381600087803b158015610ed757600080fd5b505af1158015610eeb573d6000803e3d6000fd5b505050506040513d601f19601f82011682018060405250810190610f0f919061443e565b50600560009054906101000a900473ffffffffffffffffffffffffffffffffffffffff1673ffffffffffffffffffffffffffffffffffffffff1663095ea7b3600260009054906101000a900473ffffffffffffffffffffffffffffffffffffffff16600160009054906101000a900473ffffffffffffffffffffffffffffffffffffffff1673ffffffffffffffffffffffffffffffffffffffff1663b524ecab856040518263ffffffff1660e01b8152600401610fcc9190614af5565b60206040518083038186803b158015610fe457600080fd5b505afa158015610ff8573d6000803e3d6000fd5b505050506040513d601f19601f8201168201806040525081019061101c9190614498565b6040518363ffffffff1660e01b8152600401611039929190614881565b602060405180830381600087803b15801561105357600080fd5b505af1158015611067573d6000803e3d6000fd5b505050506040513d601f19601f8201168201806040525081019061108b919061443e565b506000600360009054906101000a900473ffffffffffffffffffffffffffffffffffffffff1673ffffffffffffffffffffffffffffffffffffffff1663a3e517f2600160009054906101000a900473ffffffffffffffffffffffffffffffffffffffff1673ffffffffffffffffffffffffffffffffffffffff1663b524ecab856040518263ffffffff1660e01b81526004016111279190614af5565b60206040518083038186803b15801561113f57600080fd5b505afa158015611153573d6000803e3d6000fd5b505050506040513d601f19601f820116820180604052508101906111779190614498565b60008054906101000a900473ffffffffffffffffffffffffffffffffffffffff166040518363ffffffff1660e01b81526004016111b5929190614b10565b602060405180830381600087803b1580156111cf57600080fd5b505af11580156111e3573d6000803e3d6000fd5b505050506040513d601f19601f820116820180604052508101906112079190614498565b9050336009600088888781811061122157611220614f0c565b5b90506020020135815260200190815260200160002060006101000a81548173ffffffffffffffffffffffffffffffffffffffff021916908373ffffffffffffffffffffffffffffffffffffffff16021790555061127c614267565b86868581811061128f5761128e614f0c565b5b9050602002013581600001818152505060008160200181815250504281604001818152505042816060018181525050600860003373ffffffffffffffffffffffffffffffffffffffff1673ffffffffffffffffffffffffffffffffffffffff1681526020019081526020016000208190806001815401808255809150506001900390600052602060002090600502016000909190919091506000820151816000015560208201518160010155604082015181600201556060820151816003015560808201518160040160006101000a81548160ff021916908315150217905550505081600760003373ffffffffffffffffffffffffffffffffffffffff1673ffffffffffffffffffffffffffffffffffffffff16815260200190815260200160002060000160008282546113c39190614c5e565b925050819055506001600a60008989888181106113e3576113e2614f0c565b5b90506020020135815260200190815260200160002060006101000a81548160ff0219169083151502179055505050508061141c90614e36565b9050610981565b5080600760003373ffffffffffffffffffffffffffffffffffffffff1673ffffffffffffffffffffffffffffffffffffffff16815260200190815260200160002060010160008282546114769190614c5e565b9250508190555042600760003373ffffffffffffffffffffffffffffffffffffffff1673ffffffffffffffffffffffffffffffffffffffff168152602001908152602001600020600201819055507f01b859d705e4dbf9ab01a51a8b8ba51206a36d9b9097301ee8332cfca9662ba060016040516114f491906148ce565b60405180910390a1506000601860006101000a81548160ff0219169083151502179055505050565b60008060006009600085815260200190815260200160002060009054906101000a900473ffffffffffffffffffffffffffffffffffffffff169050600073ffffffffffffffffffffffffffffffffffffffff168173ffffffffffffffffffffffffffffffffffffffff1614156115c7576040517f08c379a00000000000000000000000000000000000000000000000000000000081526004016115be906149b5565b60405180910390fd5b6000600760008373ffffffffffffffffffffffffffffffffffffffff1673ffffffffffffffffffffffffffffffffffffffff16815260200190815260200160002060405180608001604052908160008201548152602001600182015481526020016002820154815260200160038201548152505090506000600860008473ffffffffffffffffffffffffffffffffffffffff1673ffffffffffffffffffffffffffffffffffffffff168152602001908152602001600020805480602002602001604051908101604052809291908181526020016000905b8282101561171357838290600052602060002090600502016040518060a0016040529081600082015481526020016001820154815260200160028201548152602001600382015481526020016004820160009054906101000a900460ff1615151515815250508152602001906001019061169e565b50505050905060005b826020015181101561178957600082828151811061173d5761173c614f0c565b5b6020026020010151905087816000015114156117755762278d008160400151426117679190614d3f565b119650505050505050611792565b50808061178190614e36565b91505061171c565b50839450505050505b919050565b601460009054906101000a900473ffffffffffffffffffffffffffffffffffffffff1673ffffffffffffffffffffffffffffffffffffffff163373ffffffffffffffffffffffffffffffffffffffff16146117f157600080fd5b600073ffffffffffffffffffffffffffffffffffffffff168173ffffffffffffffffffffffffffffffffffffffff161415611861576040517f08c379a000000000000000000000000000000000000000000000000000000000815260040161185890614975565b60405180910390fd5b80600460006101000a81548173ffffffffffffffffffffffffffffffffffffffff021916908373ffffffffffffffffffffffffffffffffffffffff16021790555050565b601460009054906101000a900473ffffffffffffffffffffffffffffffffffffffff1673ffffffffffffffffffffffffffffffffffffffff163373ffffffffffffffffffffffffffffffffffffffff16146118ff57600080fd5b60006003905060005b818110156119b157600084848381811061192557611924614f0c565b5b90506020020135141561196d576040517f08c379a000000000000000000000000000000000000000000000000000000000815260040161196490614a15565b60405180910390fd5b8383828181106119805761197f614f0c565b5b90506020020135600b826003811061199b5761199a614f0c565b5b0181905550806119aa90614e36565b9050611908565b507fe906f36f8c2a331b7f25462604f12087e22eeeec9ec30fcd615297f938917d0283836040516119e39291906148aa565b60405180910390a1505050565b600260009054906101000a900473ffffffffffffffffffffffffffffffffffffffff1681565b6000600160009054906101000a900473ffffffffffffffffffffffffffffffffffffffff1673ffffffffffffffffffffffffffffffffffffffff16632c59ff10836040518263ffffffff1660e01b8152600401611a739190614af5565b60206040518083038186803b158015611a8b57600080fd5b505afa158015611a9f573d6000803e3d6000fd5b505050506040513d601f19601f82011682018060405250810190611ac39190614498565b90506000600b600183611ad69190614d3f565b60038110611ae757611ae6614f0c565b5b0154905080600560009054906101000a900473ffffffffffffffffffffffffffffffffffffffff1673ffffffffffffffffffffffffffffffffffffffff1663dd62ed3e33306040518363ffffffff1660e01b8152600401611b49929190614821565b60206040518083038186803b158015611b6157600080fd5b505afa158015611b75573d6000803e3d6000fd5b505050506040513d601f19601f82011682018060405250810190611b999190614498565b1015611bda576040517f08c379a0000000000000000000000000000000000000000000000000000000008152600401611bd190614a75565b60405180910390fd5b600560009054906101000a900473ffffffffffffffffffffffffffffffffffffffff1673ffffffffffffffffffffffffffffffffffffffff166323b872dd3330846040518463ffffffff1660e01b8152600401611c399392919061484a565b602060405180830381600087803b158015611c5357600080fd5b505af1158015611c67573d6000803e3d6000fd5b505050506040513d601f19601f82011682018060405250810190611c8b919061443e565b506000600860003373ffffffffffffffffffffffffffffffffffffffff1673ffffffffffffffffffffffffffffffffffffffff168152602001908152602001600020905060008180549050905060005b81811015611d915785838281548110611cf757611cf6614f0c565b5b9060005260206000209060050201600001541415611d7e576001838281548110611d2457611d23614f0c565b5b90600052602060002090600502016001016000828254611d449190614c5e565b9250508190555042838281548110611d5f57611d5e614f0c565b5b9060005260206000209060050201600201819055505050505050611dce565b8080611d8990614e36565b915050611cdb565b507f6e9c8d08eb1b695e0c40de2e97dff183b797a545fd819951fc9309f6d0686e0d85604051611dc19190614af5565b60405180910390a1505050505b50565b6000600760003373ffffffffffffffffffffffffffffffffffffffff1673ffffffffffffffffffffffffffffffffffffffff16815260200190815260200160002060030154611e1f33612591565b611e299190614c5e565b9050611e3433613f4e565b60008111611e77576040517f08c379a0000000000000000000000000000000000000000000000000000000008152600401611e6e90614a95565b60405180910390fd5b42600760003373ffffffffffffffffffffffffffffffffffffffff1673ffffffffffffffffffffffffffffffffffffffff168152602001908152602001600020600201819055506000600760003373ffffffffffffffffffffffffffffffffffffffff1673ffffffffffffffffffffffffffffffffffffffff16815260200190815260200160002060030181905550600460009054906101000a900473ffffffffffffffffffffffffffffffffffffffff1673ffffffffffffffffffffffffffffffffffffffff1663a9059cbb33836040518363ffffffff1660e01b8152600401611f63929190614881565b600060405180830381600087803b158015611f7d57600080fd5b505af1158015611f91573d6000803e3d6000fd5b505050507f4a65ea6086358f26aeebacdd97ac30a7eb4cdaa82d69535f2a987610d746333981604051611fc49190614af5565b60405180910390a150565b600560009054906101000a900473ffffffffffffffffffffffffffffffffffffffff1681565b601460009054906101000a900473ffffffffffffffffffffffffffffffffffffffff1673ffffffffffffffffffffffffffffffffffffffff163373ffffffffffffffffffffffffffffffffffffffff161461204f57600080fd5b60008211801561205f5750600482105b61209e576040517f08c379a000000000000000000000000000000000000000000000000000000000815260040161209590614ad5565b60405180910390fd5b6000600680548060200260200160405190810160405280929190818152602001828054801561212257602002820191906000526020600020905b8160009054906101000a900473ffffffffffffffffffffffffffffffffffffffff1673ffffffffffffffffffffffffffffffffffffffff16815260200190600101908083116120d8575b5050505050905060008151905060005b8181101561221c57600083828151811061214f5761214e614f0c565b5b6020026020010151905061216281612591565b600760008373ffffffffffffffffffffffffffffffffffffffff1673ffffffffffffffffffffffffffffffffffffffff16815260200190815260200160002060030160008282546121b39190614c5e565b925050819055506121c381613f4e565b42600760008373ffffffffffffffffffffffffffffffffffffffff1673ffffffffffffffffffffffffffffffffffffffff16815260200190815260200160002060020181905550508061221590614e36565b9050612132565b5082601160018661222d9190614d3f565b6003811061223e5761223d614f0c565b5b018190555050505050565b600080600760008473ffffffffffffffffffffffffffffffffffffffff1673ffffffffffffffffffffffffffffffffffffffff1681526020019081526020016000206001015461229884613e54565b91509150915091565b601460009054906101000a900473ffffffffffffffffffffffffffffffffffffffff1673ffffffffffffffffffffffffffffffffffffffff163373ffffffffffffffffffffffffffffffffffffffff16146122fb57600080fd5b60008211801561230b5750600482105b61234a576040517f08c379a000000000000000000000000000000000000000000000000000000000815260040161234190614ad5565b60405180910390fd5b600060068054806020026020016040519081016040528092919081815260200182805480156123ce57602002820191906000526020600020905b8160009054906101000a900473ffffffffffffffffffffffffffffffffffffffff1673ffffffffffffffffffffffffffffffffffffffff1681526020019060010190808311612384575b5050505050905060008151905060005b818110156124c85760008382815181106123fb576123fa614f0c565b5b6020026020010151905061240e81612591565b600760008373ffffffffffffffffffffffffffffffffffffffff1673ffffffffffffffffffffffffffffffffffffffff168152602001908152602001600020600301600082825461245f9190614c5e565b9250508190555061246f81613f4e565b42600760008373ffffffffffffffffffffffffffffffffffffffff1673ffffffffffffffffffffffffffffffffffffffff1681526020019081526020016000206002018190555050806124c190614e36565b90506123de565b5082600e6001866124d99190614d3f565b600381106124ea576124e9614f0c565b5b01819055507fbf93f47eec1d4915667f754aa99eff05fa397b0dd67e5a93057511d953864c9c8484604051612520929190614b39565b60405180910390a150505050565b6006818154811061253e57600080fd5b906000526020600020016000915054906101000a900473ffffffffffffffffffffffffffffffffffffffff1681565b60008054906101000a900473ffffffffffffffffffffffffffffffffffffffff1681565b600080600760008473ffffffffffffffffffffffffffffffffffffffff1673ffffffffffffffffffffffffffffffffffffffff16815260200190815260200160002060405180608001604052908160008201548152602001600182015481526020016002820154815260200160038201548152505090506000600860008573ffffffffffffffffffffffffffffffffffffffff1673ffffffffffffffffffffffffffffffffffffffff168152602001908152602001600020805480602002602001604051908101604052809291908181526020016000905b828210156126de57838290600052602060002090600502016040518060a0016040529081600082015481526020016001820154815260200160028201548152602001600382015481526020016004820160009054906101000a900460ff16151515158152505081526020019060010190612669565b5050505090506000805b8360200151811015612a68576000600160009054906101000a900473ffffffffffffffffffffffffffffffffffffffff1673ffffffffffffffffffffffffffffffffffffffff16632c59ff1085848151811061274757612746614f0c565b5b6020026020010151600001516040518263ffffffff1660e01b815260040161276f9190614af5565b60206040518083038186803b15801561278757600080fd5b505afa15801561279b573d6000803e3d6000fd5b505050506040513d601f19601f820116820180604052508101906127bf9190614498565b905060008483815181106127d6576127d5614f0c565b5b60200260200101516080015115801561286b57508773ffffffffffffffffffffffffffffffffffffffff166009600087868151811061281857612817614f0c565b5b602002602001015160000151815260200190815260200160002060009054906101000a900473ffffffffffffffffffffffffffffffffffffffff1673ffffffffffffffffffffffffffffffffffffffff16145b80156128c1575060116001836128819190614d3f565b6003811061289257612891614f0c565b5b01548584815181106128a7576128a6614f0c565b5b602002602001015160600151426128be9190614d3f565b11155b15612a5357600062278d008685815181106128df576128de614f0c565b5b6020026020010151604001516128f59190614c5e565b9050428111156129165786604001514261290f9190614d3f565b9150612929565b8660400151816129269190614d3f565b91505b62015180821115612a51576000601654600160009054906101000a900473ffffffffffffffffffffffffffffffffffffffff1673ffffffffffffffffffffffffffffffffffffffff1663b524ecab866040518263ffffffff1660e01b81526004016129949190614af5565b60206040518083038186803b1580156129ac57600080fd5b505afa1580156129c0573d6000803e3d6000fd5b505050506040513d601f19601f820116820180604052508101906129e49190614498565b6064600e6001886129f59190614d3f565b60038110612a0657612a05614f0c565b5b0154612a129190614cb4565b612a1c9190614ce5565b612a269190614cb4565b9050620151808184612a389190614ce5565b612a429190614cb4565b86612a4d9190614c5e565b9550505b505b50508080612a6090614e36565b9150506126e8565b50809350505050919050565b600160009054906101000a900473ffffffffffffffffffffffffffffffffffffffff1681565b601460009054906101000a900473ffffffffffffffffffffffffffffffffffffffff1673ffffffffffffffffffffffffffffffffffffffff163373ffffffffffffffffffffffffffffffffffffffff1614612af457600080fd5b600073ffffffffffffffffffffffffffffffffffffffff168173ffffffffffffffffffffffffffffffffffffffff161415612b64576040517f08c379a0000000000000000000000000000000000000000000000000000000008152600401612b5b90614975565b60405180910390fd5b80600160006101000a81548173ffffffffffffffffffffffffffffffffffffffff021916908373ffffffffffffffffffffffffffffffffffffffff16021790555050565b601460009054906101000a900473ffffffffffffffffffffffffffffffffffffffff1673ffffffffffffffffffffffffffffffffffffffff163373ffffffffffffffffffffffffffffffffffffffff1614612c0257600080fd5b60008111612c45576040517f08c379a0000000000000000000000000000000000000000000000000000000008152600401612c3c906149f5565b60405180910390fd5b8060178190555050565b601460009054906101000a900473ffffffffffffffffffffffffffffffffffffffff1673ffffffffffffffffffffffffffffffffffffffff163373ffffffffffffffffffffffffffffffffffffffff1614612ca957600080fd5b600073ffffffffffffffffffffffffffffffffffffffff168173ffffffffffffffffffffffffffffffffffffffff161415612d19576040517f08c379a0000000000000000000000000000000000000000000000000000000008152600401612d1090614975565b60405180910390fd5b80601560006101000a81548173ffffffffffffffffffffffffffffffffffffffff021916908373ffffffffffffffffffffffffffffffffffffffff16021790555050565b601460009054906101000a900473ffffffffffffffffffffffffffffffffffffffff1673ffffffffffffffffffffffffffffffffffffffff163373ffffffffffffffffffffffffffffffffffffffff1614612db757600080fd5b600073ffffffffffffffffffffffffffffffffffffffff168173ffffffffffffffffffffffffffffffffffffffff161415612e27576040517f08c379a0000000000000000000000000000000000000000000000000000000008152600401612e1e90614975565b60405180910390fd5b80600360006101000a81548173ffffffffffffffffffffffffffffffffffffffff021916908373ffffffffffffffffffffffffffffffffffffffff16021790555050565b600b8160038110612e7b57600080fd5b016000915090505481565b600360009054906101000a900473ffffffffffffffffffffffffffffffffffffffff1681565b600080600460009054906101000a900473ffffffffffffffffffffffffffffffffffffffff1673ffffffffffffffffffffffffffffffffffffffff166370a08231306040518263ffffffff1660e01b8152600401612f0a9190614806565b60206040518083038186803b158015612f2257600080fd5b505afa158015612f36573d6000803e3d6000fd5b505050506040513d601f19601f82011682018060405250810190612f5a9190614498565b90506016548160646016546001612f719190614ce5565b612f7b9190614cb4565b612f859190614ce5565b612f8f9190614cb4565b831015612fa05760009150506132fe565b6016548160646016546002612fb59190614ce5565b612fbf9190614cb4565b612fc99190614ce5565b612fd39190614cb4565b83101561300957601654601754606486612fed9190614cb4565b612ff79190614ce5565b6130019190614cb4565b9150506132fe565b601654816064601654600361301e9190614ce5565b6130289190614cb4565b6130329190614ce5565b61303c9190614cb4565b83101561307e5760165460026017546130559190614ce5565b6064866130629190614cb4565b61306c9190614ce5565b6130769190614cb4565b9150506132fe565b60165481606460165460046130939190614ce5565b61309d9190614cb4565b6130a79190614ce5565b6130b19190614cb4565b8310156130f35760165460036017546130ca9190614ce5565b6064866130d79190614cb4565b6130e19190614ce5565b6130eb9190614cb4565b9150506132fe565b60165481606460165460056131089190614ce5565b6131129190614cb4565b61311c9190614ce5565b6131269190614cb4565b83101561316857601654600460175461313f9190614ce5565b60648661314c9190614cb4565b6131569190614ce5565b6131609190614cb4565b9150506132fe565b601654816064601654600661317d9190614ce5565b6131879190614cb4565b6131919190614ce5565b61319b9190614cb4565b8310156131dd5760165460056017546131b49190614ce5565b6064866131c19190614cb4565b6131cb9190614ce5565b6131d59190614cb4565b9150506132fe565b60165481606460165460076131f29190614ce5565b6131fc9190614cb4565b6132069190614ce5565b6132109190614cb4565b8310156132525760165460066017546132299190614ce5565b6064866132369190614cb4565b6132409190614ce5565b61324a9190614cb4565b9150506132fe565b60165481606460165460086132679190614ce5565b6132719190614cb4565b61327b9190614ce5565b6132859190614cb4565b8310156132c757601654600760175461329e9190614ce5565b6064866132ab9190614cb4565b6132b59190614ce5565b6132bf9190614cb4565b9150506132fe565b60165460086017546132d99190614ce5565b6064866132e69190614cb4565b6132f09190614ce5565b6132fa9190614cb4565b9150505b92915050565b601460009054906101000a900473ffffffffffffffffffffffffffffffffffffffff1673ffffffffffffffffffffffffffffffffffffffff163373ffffffffffffffffffffffffffffffffffffffff161461335e57600080fd5b600a8110156133a2576040517f08c379a000000000000000000000000000000000000000000000000000000000815260040161339990614a55565b60405180910390fd5b8060168190555050565b601460009054906101000a900473ffffffffffffffffffffffffffffffffffffffff1681565b60076020528060005260406000206000915090508060000154908060010154908060020154908060030154905084565b60096020528060005260406000206000915054906101000a900473ffffffffffffffffffffffffffffffffffffffff1681565b6008602052816000526040600020818154811061345157600080fd5b9060005260206000209060050201600091509150508060000154908060010154908060020154908060030154908060040160009054906101000a900460ff16905085565b601860009054906101000a900460ff16156134e5576040517f08c379a00000000000000000000000000000000000000000000000000000000081526004016134dc90614955565b60405180910390fd5b6001601860006101000a81548160ff0219169083151502179055506000600760003373ffffffffffffffffffffffffffffffffffffffff1673ffffffffffffffffffffffffffffffffffffffff1681526020019081526020016000209050600081600101541161358a576040517f08c379a0000000000000000000000000000000000000000000000000000000008152600401613581906149d5565b60405180910390fd5b600061359533612591565b90506135a033613f4e565b60008260000154905060006135b58383612eac565b9050600086869050905080826135cb9190614ce5565b846135d69190614d3f565b8560030160008282546135e99190614c5e565b9250508190555060005b818110156137a6573373ffffffffffffffffffffffffffffffffffffffff16600960008a8a8581811061362957613628614f0c565b5b90506020020135815260200190815260200160002060009054906101000a900473ffffffffffffffffffffffffffffffffffffffff1673ffffffffffffffffffffffffffffffffffffffff161461367f57600080fd5b6000600960008a8a8581811061369857613697614f0c565b5b90506020020135815260200190815260200160002060006101000a81548173ffffffffffffffffffffffffffffffffffffffff021916908373ffffffffffffffffffffffffffffffffffffffff160217905550600160009054906101000a900473ffffffffffffffffffffffffffffffffffffffff1673ffffffffffffffffffffffffffffffffffffffff166323b872dd30338b8b8681811061373e5761373d614f0c565b5b905060200201356040518463ffffffff1660e01b81526004016137639392919061484a565b600060405180830381600087803b15801561377d57600080fd5b505af1158015613791573d6000803e3d6000fd5b505050508061379f90614e36565b90506135f3565b50808560010160008282546137bb9190614d3f565b925050819055504285600201819055506000856001015414156139615760005b60068054905081101561395f573373ffffffffffffffffffffffffffffffffffffffff166006828154811061381357613812614f0c565b5b9060005260206000200160009054906101000a900473ffffffffffffffffffffffffffffffffffffffff1673ffffffffffffffffffffffffffffffffffffffff16141561394e576006600160068054905061386e9190614d3f565b8154811061387f5761387e614f0c565b5b9060005260206000200160009054906101000a900473ffffffffffffffffffffffffffffffffffffffff16600682815481106138be576138bd614f0c565b5b9060005260206000200160006101000a81548173ffffffffffffffffffffffffffffffffffffffff021916908373ffffffffffffffffffffffffffffffffffffffff160217905550600680548061391857613917614edd565b5b6001900381819060005260206000200160006101000a81549073ffffffffffffffffffffffffffffffffffffffff021916905590555b8061395890614e36565b90506137db565b505b86866040516139719291906147ed565b60405180910390207f033a2415316072bf4b832ef21089e4a369c5dfe86c72a9822201b88626db9005336040516139a89190614806565b60405180910390a250505050506000601860006101000a81548160ff0219169083151502179055505050565b600e81600381106139e457600080fd5b016000915090505481565b6000600760003373ffffffffffffffffffffffffffffffffffffffff1673ffffffffffffffffffffffffffffffffffffffff16815260200190815260200160002060030154613a3d33612591565b613a479190614c5e565b9050613a5233613f4e565b60008111613a95576040517f08c379a0000000000000000000000000000000000000000000000000000000008152600401613a8c90614a95565b60405180910390fd5b42600760003373ffffffffffffffffffffffffffffffffffffffff1673ffffffffffffffffffffffffffffffffffffffff168152602001908152602001600020600201819055506000600760003373ffffffffffffffffffffffffffffffffffffffff1673ffffffffffffffffffffffffffffffffffffffff168152602001908152602001600020600301819055506000600360009054906101000a900473ffffffffffffffffffffffffffffffffffffffff1673ffffffffffffffffffffffffffffffffffffffff1663b1eb714c836040518263ffffffff1660e01b8152600401613b819190614af5565b602060405180830381600087803b158015613b9b57600080fd5b505af1158015613baf573d6000803e3d6000fd5b505050506040513d601f19601f82011682018060405250810190613bd39190614498565b9050600560009054906101000a900473ffffffffffffffffffffffffffffffffffffffff1673ffffffffffffffffffffffffffffffffffffffff1663a9059cbb33836040518363ffffffff1660e01b8152600401613c32929190614881565b602060405180830381600087803b158015613c4c57600080fd5b505af1158015613c60573d6000803e3d6000fd5b505050506040513d601f19601f82011682018060405250810190613c84919061443e565b507f53330f30ecb853d493bc4d50dddaaf9421c4cd9589fb3d5b63cf9ff2867fa55382604051613cb49190614af5565b60405180910390a15050565b601560009054906101000a900473ffffffffffffffffffffffffffffffffffffffff1681565b601460009054906101000a900473ffffffffffffffffffffffffffffffffffffffff1673ffffffffffffffffffffffffffffffffffffffff163373ffffffffffffffffffffffffffffffffffffffff1614613d4057600080fd5b600073ffffffffffffffffffffffffffffffffffffffff168173ffffffffffffffffffffffffffffffffffffffff161415613db0576040517f08c379a0000000000000000000000000000000000000000000000000000000008152600401613da790614975565b60405180910390fd5b806000806101000a81548173ffffffffffffffffffffffffffffffffffffffff021916908373ffffffffffffffffffffffffffffffffffffffff16021790555050565b60175481565b6000806000600e600060038110613e1357613e12614f0c565b5b0154600e600060038110613e2a57613e29614f0c565b5b0154600e600060038110613e4157613e40614f0c565b5b0154925092509250909192565b60165481565b600080600760008473ffffffffffffffffffffffffffffffffffffffff1673ffffffffffffffffffffffffffffffffffffffff168152602001908152602001600020600101541415613eea57600760008373ffffffffffffffffffffffffffffffffffffffff1673ffffffffffffffffffffffffffffffffffffffff168152602001908152602001600020600301549050613f49565b6000613ef583612591565b600760008573ffffffffffffffffffffffffffffffffffffffff1673ffffffffffffffffffffffffffffffffffffffff16815260200190815260200160002060030154613f429190614c5e565b9050809150505b919050565b6000600760008373ffffffffffffffffffffffffffffffffffffffff1673ffffffffffffffffffffffffffffffffffffffff16815260200190815260200160002090506000600860008473ffffffffffffffffffffffffffffffffffffffff1673ffffffffffffffffffffffffffffffffffffffff168152602001908152602001600020905060005b8260010154811015614261576000600160009054906101000a900473ffffffffffffffffffffffffffffffffffffffff1673ffffffffffffffffffffffffffffffffffffffff16632c59ff1084848154811061403657614035614f0c565b5b9060005260206000209060050201600001546040518263ffffffff1660e01b81526004016140649190614af5565b60206040518083038186803b15801561407c57600080fd5b505afa158015614090573d6000803e3d6000fd5b505050506040513d601f19601f820116820180604052508101906140b49190614498565b90508282815481106140c9576140c8614f0c565b5b906000526020600020906005020160040160009054906101000a900460ff1661424d578473ffffffffffffffffffffffffffffffffffffffff166009600085858154811061411a57614119614f0c565b5b906000526020600020906005020160000154815260200190815260200160002060009054906101000a900473ffffffffffffffffffffffffffffffffffffffff1673ffffffffffffffffffffffffffffffffffffffff161480156141ce575060116001826141889190614d3f565b6003811061419957614198614f0c565b5b01548383815481106141ae576141ad614f0c565b5b906000526020600020906005020160030154426141cb9190614d3f565b11155b1561424c5762278d008383815481106141ea576141e9614f0c565b5b906000526020600020906005020160020154426142079190614d3f565b111561424b57600183838154811061422257614221614f0c565b5b906000526020600020906005020160040160006101000a81548160ff0219169083151502179055505b5b5b50808061425990614e36565b915050613fd7565b50505050565b6040518060a00160405280600081526020016000815260200160008152602001600081526020016000151581525090565b6000813590506142a78161516e565b92915050565b6000815190506142bc8161516e565b92915050565b60008083601f8401126142d8576142d7614f40565b5b8235905067ffffffffffffffff8111156142f5576142f4614f3b565b5b60208301915083602082028301111561431157614310614f45565b5b9250929050565b60008151905061432781615185565b92915050565b60008135905061433c8161519c565b92915050565b6000815190506143518161519c565b92915050565b60006020828403121561436d5761436c614f54565b5b600061437b84828501614298565b91505092915050565b60006020828403121561439a57614399614f54565b5b60006143a8848285016142ad565b91505092915050565b600080604083850312156143c8576143c7614f54565b5b60006143d685828601614298565b92505060206143e78582860161432d565b9150509250929050565b6000806020838503121561440857614407614f54565b5b600083013567ffffffffffffffff81111561442657614425614f4a565b5b614432858286016142c2565b92509250509250929050565b60006020828403121561445457614453614f54565b5b600061446284828501614318565b91505092915050565b60006020828403121561448157614480614f54565b5b600061448f8482850161432d565b91505092915050565b6000602082840312156144ae576144ad614f54565b5b60006144bc84828501614342565b91505092915050565b600080604083850312156144dc576144db614f54565b5b60006144ea8582860161432d565b92505060206144fb8582860161432d565b9150509250929050565b61450e81614d73565b82525050565b60006145208385614c31565b93507f07ffffffffffffffffffffffffffffffffffffffffffffffffffffffffffffff83111561455357614552614f4f565b5b602083029250614564838584614e27565b82840190509392505050565b600061457c8385614c42565b93507f07ffffffffffffffffffffffffffffffffffffffffffffffffffffffffffffff8311156145af576145ae614f4f565b5b6020830292506145c0838584614e27565b82840190509392505050565b6145d581614d85565b82525050565b6145e481614dbb565b82525050565b6145f381614dcd565b82525050565b61460281614ddf565b82525050565b61461181614df1565b82525050565b6000614624601883614c4d565b915061462f82614f59565b602082019050919050565b6000614647601483614c4d565b915061465282614f82565b602082019050919050565b600061466a601583614c4d565b915061467582614fab565b602082019050919050565b600061468d601183614c4d565b915061469882614fd4565b602082019050919050565b60006146b0601983614c4d565b91506146bb82614ffd565b602082019050919050565b60006146d3601283614c4d565b91506146de82615026565b602082019050919050565b60006146f6601383614c4d565b91506147018261504f565b602082019050919050565b6000614719601a83614c4d565b915061472482615078565b602082019050919050565b600061473c601b83614c4d565b9150614747826150a1565b602082019050919050565b600061475f601883614c4d565b915061476a826150ca565b602082019050919050565b6000614782601c83614c4d565b915061478d826150f3565b602082019050919050565b60006147a5602083614c4d565b91506147b08261511c565b602082019050919050565b60006147c8600d83614c4d565b91506147d382615145565b602082019050919050565b6147e781614db1565b82525050565b60006147fa828486614570565b91508190509392505050565b600060208201905061481b6000830184614505565b92915050565b60006040820190506148366000830185614505565b6148436020830184614505565b9392505050565b600060608201905061485f6000830186614505565b61486c6020830185614505565b61487960408301846147de565b949350505050565b60006040820190506148966000830185614505565b6148a360208301846147de565b9392505050565b600060208201905081810360008301526148c5818486614514565b90509392505050565b60006020820190506148e360008301846145cc565b92915050565b60006020820190506148fe60008301846145db565b92915050565b600060208201905061491960008301846145ea565b92915050565b600060208201905061493460008301846145f9565b92915050565b600060208201905061494f6000830184614608565b92915050565b6000602082019050818103600083015261496e81614617565b9050919050565b6000602082019050818103600083015261498e8161463a565b9050919050565b600060208201905081810360008301526149ae8161465d565b9050919050565b600060208201905081810360008301526149ce81614680565b9050919050565b600060208201905081810360008301526149ee816146a3565b9050919050565b60006020820190508181036000830152614a0e816146c6565b9050919050565b60006020820190508181036000830152614a2e816146e9565b9050919050565b60006020820190508181036000830152614a4e8161470c565b9050919050565b60006020820190508181036000830152614a6e8161472f565b9050919050565b60006020820190508181036000830152614a8e81614752565b9050919050565b60006020820190508181036000830152614aae81614775565b9050919050565b60006020820190508181036000830152614ace81614798565b9050919050565b60006020820190508181036000830152614aee816147bb565b9050919050565b6000602082019050614b0a60008301846147de565b92915050565b6000604082019050614b2560008301856147de565b614b326020830184614505565b9392505050565b6000604082019050614b4e60008301856147de565b614b5b60208301846147de565b9392505050565b6000606082019050614b7760008301866147de565b614b8460208301856147de565b614b9160408301846147de565b949350505050565b6000608082019050614bae60008301876147de565b614bbb60208301866147de565b614bc860408301856147de565b614bd560608301846147de565b95945050505050565b600060a082019050614bf360008301886147de565b614c0060208301876147de565b614c0d60408301866147de565b614c1a60608301856147de565b614c2760808301846145cc565b9695505050505050565b600082825260208201905092915050565b600081905092915050565b600082825260208201905092915050565b6000614c6982614db1565b9150614c7483614db1565b9250827fffffffffffffffffffffffffffffffffffffffffffffffffffffffffffffffff03821115614ca957614ca8614e7f565b5b828201905092915050565b6000614cbf82614db1565b9150614cca83614db1565b925082614cda57614cd9614eae565b5b828204905092915050565b6000614cf082614db1565b9150614cfb83614db1565b9250817fffffffffffffffffffffffffffffffffffffffffffffffffffffffffffffffff0483118215151615614d3457614d33614e7f565b5b828202905092915050565b6000614d4a82614db1565b9150614d5583614db1565b925082821015614d6857614d67614e7f565b5b828203905092915050565b6000614d7e82614d91565b9050919050565b60008115159050919050565b600073ffffffffffffffffffffffffffffffffffffffff82169050919050565b6000819050919050565b6000614dc682614e03565b9050919050565b6000614dd882614e03565b9050919050565b6000614dea82614e03565b9050919050565b6000614dfc82614e03565b9050919050565b6000614e0e82614e15565b9050919050565b6000614e2082614d91565b9050919050565b82818337600083830152505050565b6000614e4182614db1565b91507fffffffffffffffffffffffffffffffffffffffffffffffffffffffffffffffff821415614e7457614e73614e7f565b5b600182019050919050565b7f4e487b7100000000000000000000000000000000000000000000000000000000600052601160045260246000fd5b7f4e487b7100000000000000000000000000000000000000000000000000000000600052601260045260246000fd5b7f4e487b7100000000000000000000000000000000000000000000000000000000600052603160045260246000fd5b7f4e487b7100000000000000000000000000000000000000000000000000000000600052603260045260246000fd5b600080fd5b600080fd5b600080fd5b600080fd5b600080fd5b600080fd5b7f5265656e7472616e742063616c6c206465746563746564210000000000000000600082015250565b7f6164647265737320697320756e646566696e6564000000000000000000000000600082015250565b7f43616e27742052657374616b65204120546f6b656e0000000000000000000000600082015250565b7f4e6674204973204e6f74205374616b6564000000000000000000000000000000600082015250565b7f596f752048617665204e6f20546f6b656e73205374616b656400000000000000600082015250565b7f76616c756520697320756e646566696e65640000000000000000000000000000600082015250565b7f4665652043616e204e6f74204265205a65726f00000000000000000000000000600082015250565b7f417070726f7665205374616b657220466f7220546865204e6674000000000000600082015250565b7f73686f756c642062652061746c65617374203120646563696d616c0000000000600082015250565b7f417070726f7665205374616b696e6720436f6e74726163740000000000000000600082015250565b7f596f752068617665206e6f207265776172647320746f20636c61696d00000000600082015250565b7f43616e2774205374616b6520546f6b656e20596f7520446f6e2774204f776e21600082015250565b7f496e76616c696420496e64657800000000000000000000000000000000000000600082015250565b61517781614d73565b811461518257600080fd5b50565b61518e81614d85565b811461519957600080fd5b50565b6151a581614db1565b81146151b057600080fd5b5056fea26469706673582212202ea02ce7419c00bf4a4e4d771a302a67cdb6487a7f3fcc95f34b110acdcfd9c364736f6c63430008070033",
  "linkReferences": {},
  "deployedLinkReferences": {}
}