{
  "_format": "hh-sol-artifact-1",
  "contractName": "CrazyZooToken",
  "sourceName": "contracts/CrazyZooToken.sol",
  "abi": [
    {
      "inputs": [],
      "stateMutability": "nonpayable",
      "type": "constructor"
    },
    {
      "anonymous": false,
      "inputs": [
        {
          "indexed": true,
          "internalType": "address",
          "name": "owner",
          "type": "address"
        },
        {
          "indexed": true,
          "internalType": "address",
          "name": "spender",
          "type": "address"
        },
        {
          "indexed": false,
          "internalType": "uint256",
          "name": "value",
          "type": "uint256"
        }
      ],
      "name": "Approval",
      "type": "event"
    },
    {
      "anonymous": false,
      "inputs": [
        {
          "indexed": true,
          "internalType": "address",
          "name": "newAddress",
          "type": "address"
        }
      ],
      "name": "Deprecate",
      "type": "event"
    },
    {
      "anonymous": false,
      "inputs": [
        {
          "indexed": true,
          "internalType": "address",
          "name": "nftStakingAddr",
          "type": "address"
        },
        {
          "indexed": true,
          "internalType": "address",
          "name": "marketingAddr",
          "type": "address"
        }
      ],
      "name": "FeeCollectors",
      "type": "event"
    },
    {
      "anonymous": false,
      "inputs": [
        {
          "indexed": false,
          "internalType": "uint256",
          "name": "_feeMarketing",
          "type": "uint256"
        }
      ],
      "name": "FeeMarketing",
      "type": "event"
    },
    {
      "anonymous": false,
      "inputs": [
        {
          "indexed": false,
          "internalType": "uint256",
          "name": "_feeNftStaking",
          "type": "uint256"
        }
      ],
      "name": "FeeNftStaking",
      "type": "event"
    },
    {
      "anonymous": false,
      "inputs": [
        {
          "indexed": false,
          "internalType": "uint256",
          "name": "_feeReferrer",
          "type": "uint256"
        }
      ],
      "name": "FeeReferrer",
      "type": "event"
    },
    {
      "anonymous": false,
      "inputs": [
        {
          "indexed": false,
          "internalType": "uint8",
          "name": "num",
          "type": "uint8"
        }
      ],
      "name": "From",
      "type": "event"
    },
    {
      "anonymous": false,
      "inputs": [
        {
          "indexed": false,
          "internalType": "address",
          "name": "_from",
          "type": "address"
        }
      ],
      "name": "FromUniswap",
      "type": "event"
    },
    {
      "anonymous": false,
      "inputs": [
        {
          "indexed": false,
          "internalType": "address",
          "name": "newStakingContractAddress",
          "type": "address"
        }
      ],
      "name": "MarketingFeeAddressUpdated",
      "type": "event"
    },
    {
      "anonymous": false,
      "inputs": [
        {
          "indexed": false,
          "internalType": "uint256",
          "name": "_marketingFee",
          "type": "uint256"
        }
      ],
      "name": "MarketingFeeUpdated",
      "type": "event"
    },
    {
      "anonymous": false,
      "inputs": [
        {
          "indexed": false,
          "internalType": "address",
          "name": "_minter",
          "type": "address"
        }
      ],
      "name": "MinterUpdated",
      "type": "event"
    },
    {
      "anonymous": false,
      "inputs": [
        {
          "indexed": false,
          "internalType": "address",
          "name": "newStakingContractAddress",
          "type": "address"
        }
      ],
      "name": "NftStakingFeeAddressUpdated",
      "type": "event"
    },
    {
      "anonymous": false,
      "inputs": [
        {
          "indexed": false,
          "internalType": "uint8",
          "name": "num",
          "type": "uint8"
        }
      ],
      "name": "None",
      "type": "event"
    },
    {
      "anonymous": false,
      "inputs": [
        {
          "indexed": false,
          "internalType": "uint256",
          "name": "feeLiquidityFee",
          "type": "uint256"
        },
        {
          "indexed": false,
          "internalType": "uint256",
          "name": "feeTeam",
          "type": "uint256"
        }
      ],
      "name": "Params",
      "type": "event"
    },
    {
      "anonymous": false,
      "inputs": [],
      "name": "Pause",
      "type": "event"
    },
    {
      "anonymous": false,
      "inputs": [
        {
          "indexed": false,
          "internalType": "uint256",
          "name": "_referralFee",
          "type": "uint256"
        }
      ],
      "name": "ReferralFeeUpdated",
      "type": "event"
    },
    {
      "anonymous": false,
      "inputs": [
        {
          "indexed": false,
          "internalType": "address",
          "name": "_referrer",
          "type": "address"
        },
        {
          "indexed": false,
          "internalType": "address",
          "name": "_referral",
          "type": "address"
        }
      ],
      "name": "ReferralUpdated",
      "type": "event"
    },
    {
      "anonymous": false,
      "inputs": [
        {
          "indexed": false,
          "internalType": "uint256",
          "name": "_stakingFee",
          "type": "uint256"
        }
      ],
      "name": "StakingFeeUpdated",
      "type": "event"
    },
    {
      "anonymous": false,
      "inputs": [
        {
          "indexed": false,
          "internalType": "uint8",
          "name": "num",
          "type": "uint8"
        }
      ],
      "name": "To",
      "type": "event"
    },
    {
      "anonymous": false,
      "inputs": [
        {
          "indexed": true,
          "internalType": "address",
          "name": "from",
          "type": "address"
        },
        {
          "indexed": true,
          "internalType": "address",
          "name": "to",
          "type": "address"
        },
        {
          "indexed": false,
          "internalType": "uint256",
          "name": "value",
          "type": "uint256"
        }
      ],
      "name": "Transfer",
      "type": "event"
    },
    {
      "anonymous": false,
      "inputs": [],
      "name": "Unpause",
      "type": "event"
    },
    {
      "anonymous": false,
      "inputs": [
        {
          "indexed": false,
          "internalType": "uint256",
          "name": "fee",
          "type": "uint256"
        }
      ],
      "name": "checkFees",
      "type": "event"
    },
    {
      "anonymous": false,
      "inputs": [
        {
          "indexed": false,
          "internalType": "address",
          "name": "_to",
          "type": "address"
        }
      ],
      "name": "checkUniswap",
      "type": "event"
    },
    {
      "anonymous": false,
      "inputs": [
        {
          "indexed": false,
          "internalType": "address",
          "name": "upgradedAddress",
          "type": "address"
        }
      ],
      "name": "newupgradedAddressUpdated",
      "type": "event"
    },
    {
      "anonymous": false,
      "inputs": [
        {
          "indexed": false,
          "internalType": "address",
          "name": "_to",
          "type": "address"
        }
      ],
      "name": "toUniswap",
      "type": "event"
    },
    {
      "inputs": [],
      "name": "MAX_UINT",
      "outputs": [
        {
          "internalType": "uint256",
          "name": "",
          "type": "uint256"
        }
      ],
      "stateMutability": "view",
      "type": "function"
    },
    {
      "inputs": [],
      "name": "MarketingFee",
      "outputs": [
        {
          "internalType": "uint256",
          "name": "",
          "type": "uint256"
        }
      ],
      "stateMutability": "view",
      "type": "function"
    },
    {
      "inputs": [],
      "name": "ReferrarFee",
      "outputs": [
        {
          "internalType": "uint256",
          "name": "",
          "type": "uint256"
        }
      ],
      "stateMutability": "view",
      "type": "function"
    },
    {
      "inputs": [
        {
          "internalType": "address",
          "name": "_referrer",
          "type": "address"
        },
        {
          "internalType": "address",
          "name": "_referral",
          "type": "address"
        }
      ],
      "name": "SetReferral",
      "outputs": [],
      "stateMutability": "nonpayable",
      "type": "function"
    },
    {
      "inputs": [],
      "name": "StakingContractAddress",
      "outputs": [
        {
          "internalType": "address",
          "name": "",
          "type": "address"
        }
      ],
      "stateMutability": "view",
      "type": "function"
    },
    {
      "inputs": [],
      "name": "StakingFee",
      "outputs": [
        {
          "internalType": "uint256",
          "name": "",
          "type": "uint256"
        }
      ],
      "stateMutability": "view",
      "type": "function"
    },
    {
      "inputs": [
        {
          "internalType": "address",
          "name": "_user",
          "type": "address"
        },
        {
          "internalType": "uint256",
          "name": "value",
          "type": "uint256"
        }
      ],
      "name": "_calculateFee",
      "outputs": [
        {
          "internalType": "uint256",
          "name": "_StakingFees",
          "type": "uint256"
        },
        {
          "internalType": "uint256",
          "name": "_MarketingFee",
          "type": "uint256"
        },
        {
          "internalType": "uint256",
          "name": "_ReferrerFee",
          "type": "uint256"
        },
        {
          "internalType": "uint256",
          "name": "_fee",
          "type": "uint256"
        }
      ],
      "stateMutability": "view",
      "type": "function"
    },
    {
      "inputs": [
        {
          "internalType": "address",
          "name": "",
          "type": "address"
        }
      ],
      "name": "_isMinter",
      "outputs": [
        {
          "internalType": "bool",
          "name": "",
          "type": "bool"
        }
      ],
      "stateMutability": "view",
      "type": "function"
    },
    {
      "inputs": [
        {
          "internalType": "uint256",
          "name": "_feeNftStaking",
          "type": "uint256"
        },
        {
          "internalType": "uint256",
          "name": "_feeMarketing",
          "type": "uint256"
        },
        {
          "internalType": "uint256",
          "name": "_feeReferrer",
          "type": "uint256"
        },
        {
          "internalType": "address",
          "name": "_user",
          "type": "address"
        }
      ],
      "name": "_shareFee",
      "outputs": [],
      "stateMutability": "nonpayable",
      "type": "function"
    },
    {
      "inputs": [],
      "name": "_totalSupply",
      "outputs": [
        {
          "internalType": "uint256",
          "name": "",
          "type": "uint256"
        }
      ],
      "stateMutability": "view",
      "type": "function"
    },
    {
      "inputs": [
        {
          "internalType": "address",
          "name": "_owner",
          "type": "address"
        },
        {
          "internalType": "address",
          "name": "_spender",
          "type": "address"
        }
      ],
      "name": "allowance",
      "outputs": [
        {
          "internalType": "uint256",
          "name": "remaining",
          "type": "uint256"
        }
      ],
      "stateMutability": "view",
      "type": "function"
    },
    {
      "inputs": [
        {
          "internalType": "address",
          "name": "",
          "type": "address"
        },
        {
          "internalType": "address",
          "name": "",
          "type": "address"
        }
      ],
      "name": "allowed",
      "outputs": [
        {
          "internalType": "uint256",
          "name": "",
          "type": "uint256"
        }
      ],
      "stateMutability": "view",
      "type": "function"
    },
    {
      "inputs": [
        {
          "internalType": "address",
          "name": "_spender",
          "type": "address"
        },
        {
          "internalType": "uint256",
          "name": "_value",
          "type": "uint256"
        }
      ],
      "name": "approve",
      "outputs": [],
      "stateMutability": "nonpayable",
      "type": "function"
    },
    {
      "inputs": [
        {
          "internalType": "address",
          "name": "who",
          "type": "address"
        }
      ],
      "name": "balanceOf",
      "outputs": [
        {
          "internalType": "uint256",
          "name": "",
          "type": "uint256"
        }
      ],
      "stateMutability": "view",
      "type": "function"
    },
    {
      "inputs": [
        {
          "internalType": "address",
          "name": "",
          "type": "address"
        }
      ],
      "name": "balances",
      "outputs": [
        {
          "internalType": "uint256",
          "name": "",
          "type": "uint256"
        }
      ],
      "stateMutability": "view",
      "type": "function"
    },
    {
      "inputs": [
        {
          "internalType": "uint256",
          "name": "amount",
          "type": "uint256"
        }
      ],
      "name": "burn",
      "outputs": [],
      "stateMutability": "nonpayable",
      "type": "function"
    },
    {
      "inputs": [],
      "name": "decimals",
      "outputs": [
        {
          "internalType": "uint256",
          "name": "",
          "type": "uint256"
        }
      ],
      "stateMutability": "view",
      "type": "function"
    },
    {
      "inputs": [
        {
          "internalType": "address",
          "name": "_upgradedAddress",
          "type": "address"
        }
      ],
      "name": "deprecate",
      "outputs": [],
      "stateMutability": "nonpayable",
      "type": "function"
    },
    {
      "inputs": [],
      "name": "deprecated",
      "outputs": [
        {
          "internalType": "bool",
          "name": "",
          "type": "bool"
        }
      ],
      "stateMutability": "view",
      "type": "function"
    },
    {
      "inputs": [
        {
          "internalType": "address",
          "name": "_minter",
          "type": "address"
        }
      ],
      "name": "isMinter",
      "outputs": [
        {
          "internalType": "bool",
          "name": "",
          "type": "bool"
        }
      ],
      "stateMutability": "view",
      "type": "function"
    },
    {
      "inputs": [
        {
          "internalType": "address",
          "name": "_referrer",
          "type": "address"
        },
        {
          "internalType": "address",
          "name": "_referral",
          "type": "address"
        }
      ],
      "name": "isReferralAlreadyPresent",
      "outputs": [
        {
          "internalType": "bool",
          "name": "",
          "type": "bool"
        }
      ],
      "stateMutability": "view",
      "type": "function"
    },
    {
      "inputs": [],
      "name": "marketingWallet",
      "outputs": [
        {
          "internalType": "address",
          "name": "",
          "type": "address"
        }
      ],
      "stateMutability": "view",
      "type": "function"
    },
    {
      "inputs": [
        {
          "internalType": "address",
          "name": "to",
          "type": "address"
        },
        {
          "internalType": "uint256",
          "name": "amount",
          "type": "uint256"
        }
      ],
      "name": "mint",
      "outputs": [],
      "stateMutability": "nonpayable",
      "type": "function"
    },
    {
      "inputs": [],
      "name": "multiplier",
      "outputs": [
        {
          "internalType": "uint256",
          "name": "",
          "type": "uint256"
        }
      ],
      "stateMutability": "view",
      "type": "function"
    },
    {
      "inputs": [],
      "name": "name",
      "outputs": [
        {
          "internalType": "string",
          "name": "",
          "type": "string"
        }
      ],
      "stateMutability": "view",
      "type": "function"
    },
    {
      "inputs": [],
      "name": "owner",
      "outputs": [
        {
          "internalType": "address",
          "name": "",
          "type": "address"
        }
      ],
      "stateMutability": "view",
      "type": "function"
    },
    {
      "inputs": [],
      "name": "pause",
      "outputs": [],
      "stateMutability": "nonpayable",
      "type": "function"
    },
    {
      "inputs": [],
      "name": "paused",
      "outputs": [
        {
          "internalType": "bool",
          "name": "",
          "type": "bool"
        }
      ],
      "stateMutability": "view",
      "type": "function"
    },
    {
      "inputs": [
        {
          "internalType": "address",
          "name": "",
          "type": "address"
        },
        {
          "internalType": "uint256",
          "name": "",
          "type": "uint256"
        }
      ],
      "name": "referrals",
      "outputs": [
        {
          "internalType": "address",
          "name": "",
          "type": "address"
        }
      ],
      "stateMutability": "view",
      "type": "function"
    },
    {
      "inputs": [
        {
          "internalType": "address",
          "name": "",
          "type": "address"
        }
      ],
      "name": "referrer",
      "outputs": [
        {
          "internalType": "address",
          "name": "",
          "type": "address"
        }
      ],
      "stateMutability": "view",
      "type": "function"
    },
    {
      "inputs": [
        {
          "internalType": "uint256",
          "name": "_marketingFee",
          "type": "uint256"
        }
      ],
      "name": "setMarketingFee",
      "outputs": [],
      "stateMutability": "nonpayable",
      "type": "function"
    },
    {
      "inputs": [
        {
          "internalType": "address",
          "name": "newMarketingWallet",
          "type": "address"
        }
      ],
      "name": "setMarketingWallet",
      "outputs": [],
      "stateMutability": "nonpayable",
      "type": "function"
    },
    {
      "inputs": [
        {
          "internalType": "address",
          "name": "_minter",
          "type": "address"
        }
      ],
      "name": "setMinter",
      "outputs": [],
      "stateMutability": "nonpayable",
      "type": "function"
    },
    {
      "inputs": [
        {
          "internalType": "uint256",
          "name": "_referralFee",
          "type": "uint256"
        }
      ],
      "name": "setReferralFee",
      "outputs": [],
      "stateMutability": "nonpayable",
      "type": "function"
    },
    {
      "inputs": [
        {
          "internalType": "address",
          "name": "newStakingContractAddress",
          "type": "address"
        }
      ],
      "name": "setStakingContractAddress",
      "outputs": [],
      "stateMutability": "nonpayable",
      "type": "function"
    },
    {
      "inputs": [
        {
          "internalType": "uint256",
          "name": "_stakingFee",
          "type": "uint256"
        }
      ],
      "name": "setStakingFee",
      "outputs": [],
      "stateMutability": "nonpayable",
      "type": "function"
    },
    {
      "inputs": [
        {
          "internalType": "address",
          "name": "_newupgradedAddress",
          "type": "address"
        }
      ],
      "name": "setUpgradedContractAddress",
      "outputs": [],
      "stateMutability": "nonpayable",
      "type": "function"
    },
    {
      "inputs": [],
      "name": "symbol",
      "outputs": [
        {
          "internalType": "string",
          "name": "",
          "type": "string"
        }
      ],
      "stateMutability": "view",
      "type": "function"
    },
    {
      "inputs": [],
      "name": "totalSupply",
      "outputs": [
        {
          "internalType": "uint256",
          "name": "",
          "type": "uint256"
        }
      ],
      "stateMutability": "view",
      "type": "function"
    },
    {
      "inputs": [
        {
          "internalType": "address",
          "name": "_to",
          "type": "address"
        },
        {
          "internalType": "uint256",
          "name": "_value",
          "type": "uint256"
        }
      ],
      "name": "transfer",
      "outputs": [],
      "stateMutability": "nonpayable",
      "type": "function"
    },
    {
      "inputs": [
        {
          "internalType": "address",
          "name": "_from",
          "type": "address"
        },
        {
          "internalType": "address",
          "name": "_to",
          "type": "address"
        },
        {
          "internalType": "uint256",
          "name": "_value",
          "type": "uint256"
        }
      ],
      "name": "transferFrom",
      "outputs": [],
      "stateMutability": "nonpayable",
      "type": "function"
    },
    {
      "inputs": [
        {
          "internalType": "address",
          "name": "newOwner",
          "type": "address"
        }
      ],
      "name": "transferOwnership",
      "outputs": [],
      "stateMutability": "nonpayable",
      "type": "function"
    },
    {
      "inputs": [],
      "name": "unpause",
      "outputs": [],
      "stateMutability": "nonpayable",
      "type": "function"
    },
    {
      "inputs": [],
      "name": "upgradedAddress",
      "outputs": [
        {
          "internalType": "address",
          "name": "",
          "type": "address"
        }
      ],
      "stateMutability": "view",
      "type": "function"
    }
  ],
  "bytecode": "0x608060405260008060146101000a81548160ff0219169083151502179055506216e3606003556216e360600455622dc6c0600555620f4240600e553480156200004757600080fd5b50336000806101000a81548173ffffffffffffffffffffffffffffffffffffffff021916908373ffffffffffffffffffffffffffffffffffffffff16021790555067011c37937e0800006001819055506040518060400160405280600781526020017f5a6f6f5465737400000000000000000000000000000000000000000000000000815250600b9080519060200190620000e4929190620001fa565b506040518060400160405280600781526020017f5a6f6f5465737400000000000000000000000000000000000000000000000000815250600c908051906020019062000132929190620001fa565b506006600d81905550600154600260003373ffffffffffffffffffffffffffffffffffffffff1673ffffffffffffffffffffffffffffffffffffffff168152602001908152602001600020819055506000600f60146101000a81548160ff0219169083151502179055506001601060003373ffffffffffffffffffffffffffffffffffffffff1673ffffffffffffffffffffffffffffffffffffffff16815260200190815260200160002060006101000a81548160ff0219169083151502179055506200030f565b8280546200020890620002aa565b90600052602060002090601f0160209004810192826200022c576000855562000278565b82601f106200024757805160ff191683800117855562000278565b8280016001018555821562000278579182015b82811115620002775782518255916020019190600101906200025a565b5b5090506200028791906200028b565b5090565b5b80821115620002a65760008160009055506001016200028c565b5090565b60006002820490506001821680620002c357607f821691505b60208210811415620002da57620002d9620002e0565b5b50919050565b7f4e487b7100000000000000000000000000000000000000000000000000000000600052602260045260246000fd5b613da3806200031f6000396000f3fe608060405234801561001057600080fd5b50600436106102745760003560e01c80635c975abb11610151578063aa271e1a116100c3578063e5df002011610087578063e5df002014610727578063e697b5d814610757578063ec0e599114610787578063f2093612146107a5578063f2fde38b146107d8578063fca3b5aa146107f457610274565b8063aa271e1a14610671578063c78e139a146106a1578063d7588576146106bd578063dd62ed3e146106d9578063e5b5019a1461070957610274565b806375f0a8741161011557806375f0a874146105d35780638456cb59146105f15780638da5cb5b146105fb5780639105f6201461061957806395d89b4114610637578063a9059cbb1461065557610274565b80635c975abb146105315780635d098b381461054f578063625e764c1461056b57806370a0823114610587578063713494d7146105b757610274565b80632cf003c2116101ea57806340c10f19116101ae57806340c10f191461045f578063410dbf7e1461047b578063420b9efc1461049757806342966c68146104c75780634ce8364a146104e35780635c6581651461050157610274565b80632cf003c2146103cd578063313ce567146103fd5780633576c10a1461041b5780633eaaf86b146104375780633f4ba83a1461045557610274565b806318160ddd1161023c57806318160ddd1461030b5780631b3ed722146103295780631c1f8aa31461034757806323b872dd1461036357806326976e3f1461037f57806327e235e31461039d57610274565b806306fdde03146102795780630753c30c14610297578063095ea7b3146102b35780630e136b19146102cf5780630ea9f816146102ed575b600080fd5b610281610810565b60405161028e91906134d6565b60405180910390f35b6102b160048036038101906102ac919061300d565b61089e565b005b6102cd60048036038101906102c891906130cd565b610a08565b005b6102d7610ae2565b6040516102e491906134bb565b60405180910390f35b6102f5610af5565b6040516103029190613698565b60405180910390f35b610313610afb565b6040516103209190613698565b60405180910390f35b610331610bc2565b60405161033e9190613698565b60405180910390f35b610361600480360381019061035c919061300d565b610bc8565b005b61037d6004803603810190610378919061307a565b610d0b565b005b610387610de3565b60405161039491906133fb565b60405180910390f35b6103b760048036038101906103b2919061300d565b610e09565b6040516103c49190613698565b60405180910390f35b6103e760048036038101906103e2919061300d565b610e21565b6040516103f491906133fb565b60405180910390f35b610405610e54565b6040516104129190613698565b60405180910390f35b6104356004803603810190610430919061303a565b610e5a565b005b61043f6111d2565b60405161044c9190613698565b60405180910390f35b61045d6111d8565b005b610479600480360381019061047491906130cd565b611291565b005b6104956004803603810190610490919061310d565b6114fc565b005b6104b160048036038101906104ac919061303a565b6115d8565b6040516104be91906134bb565b60405180910390f35b6104e160048036038101906104dc919061310d565b611806565b005b6104eb6119f3565b6040516104f891906133fb565b60405180910390f35b61051b6004803603810190610516919061303a565b611a19565b6040516105289190613698565b60405180910390f35b610539611a3e565b60405161054691906134bb565b60405180910390f35b6105696004803603810190610564919061300d565b611a51565b005b6105856004803603810190610580919061310d565b611b94565b005b6105a1600480360381019061059c919061300d565b611c70565b6040516105ae9190613698565b60405180910390f35b6105d160048036038101906105cc919061310d565b611d4a565b005b6105db611e26565b6040516105e891906133fb565b60405180910390f35b6105f9611e4c565b005b610603611f07565b60405161061091906133fb565b60405180910390f35b610621611f2b565b60405161062e9190613698565b60405180910390f35b61063f611f31565b60405161064c91906134d6565b60405180910390f35b61066f600480360381019061066a91906130cd565b611fbf565b005b61068b6004803603810190610686919061300d565b612093565b60405161069891906134bb565b60405180910390f35b6106bb60048036038101906106b6919061300d565b6120e9565b005b6106d760048036038101906106d29190613167565b61224e565b005b6106f360048036038101906106ee919061303a565b612336565b6040516107009190613698565b60405180910390f35b610711612414565b60405161071e9190613698565b60405180910390f35b610741600480360381019061073c919061300d565b612438565b60405161074e91906134bb565b60405180910390f35b610771600480360381019061076c91906130cd565b612458565b60405161077e91906133fb565b60405180910390f35b61078f6124a6565b60405161079c9190613698565b60405180910390f35b6107bf60048036038101906107ba91906130cd565b6124ac565b6040516107cf94939291906136b3565b60405180910390f35b6107f260048036038101906107ed919061300d565b6126f6565b005b61080e6004803603810190610809919061300d565b6127c6565b005b600b805461081d906138a4565b80601f0160208091040260200160405190810160405280929190818152602001828054610849906138a4565b80156108965780601f1061086b57610100808354040283529160200191610896565b820191906000526020600020905b81548152906001019060200180831161087957829003601f168201915b505050505081565b60008054906101000a900473ffffffffffffffffffffffffffffffffffffffff1673ffffffffffffffffffffffffffffffffffffffff163373ffffffffffffffffffffffffffffffffffffffff16146108f657600080fd5b600073ffffffffffffffffffffffffffffffffffffffff168173ffffffffffffffffffffffffffffffffffffffff161415610966576040517f08c379a000000000000000000000000000000000000000000000000000000000815260040161095d906135d8565b60405180910390fd5b6001600f60146101000a81548160ff02191690831515021790555080600f60006101000a81548173ffffffffffffffffffffffffffffffffffffffff021916908373ffffffffffffffffffffffffffffffffffffffff1602179055508073ffffffffffffffffffffffffffffffffffffffff167fcc358699805e9a8b7f77b522628c7cb9abd07d9efb86b6fb616af1609036a99e60405160405180910390a250565b6040600481610a179190613714565b60003690501015610a2757600080fd5b600f60149054906101000a900460ff1615610ad257600f60009054906101000a900473ffffffffffffffffffffffffffffffffffffffff1673ffffffffffffffffffffffffffffffffffffffff1663aee92d333385856040518463ffffffff1660e01b8152600401610a9b93929190613484565b600060405180830381600087803b158015610ab557600080fd5b505af1158015610ac9573d6000803e3d6000fd5b50505050610add565b610adc8383612920565b5b505050565b600f60149054906101000a900460ff1681565b60055481565b6000600f60149054906101000a900460ff1615610bb957600f60009054906101000a900473ffffffffffffffffffffffffffffffffffffffff1673ffffffffffffffffffffffffffffffffffffffff166318160ddd6040518163ffffffff1660e01b815260040160206040518083038186803b158015610b7a57600080fd5b505afa158015610b8e573d6000803e3d6000fd5b505050506040513d601f19601f82011682018060405250810190610bb2919061313a565b9050610bbf565b60015490505b90565b600e5481565b60008054906101000a900473ffffffffffffffffffffffffffffffffffffffff1673ffffffffffffffffffffffffffffffffffffffff163373ffffffffffffffffffffffffffffffffffffffff1614610c2057600080fd5b600073ffffffffffffffffffffffffffffffffffffffff168173ffffffffffffffffffffffffffffffffffffffff161415610c90576040517f08c379a0000000000000000000000000000000000000000000000000000000008152600401610c8790613618565b60405180910390fd5b80600660006101000a81548173ffffffffffffffffffffffffffffffffffffffff021916908373ffffffffffffffffffffffffffffffffffffffff1602179055507f7efd1cdef3088bea36d0bd18edcfeabd212936ba4cc39c12275eb4f082bd880081604051610d0091906133fb565b60405180910390a150565b600060149054906101000a900460ff1615610d2557600080fd5b600f60149054906101000a900460ff1615610dd257600f60009054906101000a900473ffffffffffffffffffffffffffffffffffffffff1673ffffffffffffffffffffffffffffffffffffffff16638b477adb338585856040518563ffffffff1660e01b8152600401610d9b949392919061343f565b600060405180830381600087803b158015610db557600080fd5b505af1158015610dc9573d6000803e3d6000fd5b50505050610dde565b610ddd838383612a9a565b5b505050565b600f60009054906101000a900473ffffffffffffffffffffffffffffffffffffffff1681565b60026020528060005260406000206000915090505481565b60086020528060005260406000206000915054906101000a900473ffffffffffffffffffffffffffffffffffffffff1681565b600d5481565b600073ffffffffffffffffffffffffffffffffffffffff168273ffffffffffffffffffffffffffffffffffffffff161415610eca576040517f08c379a0000000000000000000000000000000000000000000000000000000008152600401610ec190613598565b60405180910390fd5b600073ffffffffffffffffffffffffffffffffffffffff168173ffffffffffffffffffffffffffffffffffffffff161415610f3a576040517f08c379a0000000000000000000000000000000000000000000000000000000008152600401610f3190613558565b60405180910390fd5b8073ffffffffffffffffffffffffffffffffffffffff168273ffffffffffffffffffffffffffffffffffffffff161415610fa9576040517f08c379a0000000000000000000000000000000000000000000000000000000008152600401610fa090613638565b60405180910390fd5b600073ffffffffffffffffffffffffffffffffffffffff16600860008373ffffffffffffffffffffffffffffffffffffffff1673ffffffffffffffffffffffffffffffffffffffff16815260200190815260200160002060009054906101000a900473ffffffffffffffffffffffffffffffffffffffff1673ffffffffffffffffffffffffffffffffffffffff1614611077576040517f08c379a000000000000000000000000000000000000000000000000000000000815260040161106e90613578565b60405180910390fd5b600960008373ffffffffffffffffffffffffffffffffffffffff1673ffffffffffffffffffffffffffffffffffffffff168152602001908152602001600020819080600181540180825580915050600190039060005260206000200160009091909190916101000a81548173ffffffffffffffffffffffffffffffffffffffff021916908373ffffffffffffffffffffffffffffffffffffffff16021790555081600860008373ffffffffffffffffffffffffffffffffffffffff1673ffffffffffffffffffffffffffffffffffffffff16815260200190815260200160002060006101000a81548173ffffffffffffffffffffffffffffffffffffffff021916908373ffffffffffffffffffffffffffffffffffffffff1602179055507feefe1ce2782e4ba3bbccd79617fae74979fa22005f22f7075c0910cd51c8ffd982826040516111c6929190613416565b60405180910390a15050565b60015481565b60008054906101000a900473ffffffffffffffffffffffffffffffffffffffff1673ffffffffffffffffffffffffffffffffffffffff163373ffffffffffffffffffffffffffffffffffffffff161461123057600080fd5b600060149054906101000a900460ff1661124957600080fd5b60008060146101000a81548160ff0219169083151502179055507f7805862f689e2f13df9f062ff482ad3ad112aca9e0847911ed832e158c525b3360405160405180910390a1565b601060003373ffffffffffffffffffffffffffffffffffffffff1673ffffffffffffffffffffffffffffffffffffffff16815260200190815260200160002060009054906101000a900460ff1680611334575060008054906101000a900473ffffffffffffffffffffffffffffffffffffffff1673ffffffffffffffffffffffffffffffffffffffff163373ffffffffffffffffffffffffffffffffffffffff16145b611373576040517f08c379a000000000000000000000000000000000000000000000000000000000815260040161136a90613658565b60405180910390fd5b600154816001546113849190613714565b1161138e57600080fd5b600260008373ffffffffffffffffffffffffffffffffffffffff1673ffffffffffffffffffffffffffffffffffffffff1681526020019081526020016000205481600260008573ffffffffffffffffffffffffffffffffffffffff1673ffffffffffffffffffffffffffffffffffffffff168152602001908152602001600020546114199190613714565b1161142357600080fd5b80600260008473ffffffffffffffffffffffffffffffffffffffff1673ffffffffffffffffffffffffffffffffffffffff16815260200190815260200160002060008282546114729190613714565b92505081905550806001600082825461148b9190613714565b925050819055508173ffffffffffffffffffffffffffffffffffffffff16600073ffffffffffffffffffffffffffffffffffffffff167fddf252ad1be2c89b69c2b068fc378daa952ba7f163c4a11628f55a4df523b3ef836040516114f09190613698565b60405180910390a35050565b60008054906101000a900473ffffffffffffffffffffffffffffffffffffffff1673ffffffffffffffffffffffffffffffffffffffff163373ffffffffffffffffffffffffffffffffffffffff161461155457600080fd5b60008111611597576040517f08c379a000000000000000000000000000000000000000000000000000000000815260040161158e906135f8565b60405180910390fd5b806003819055507f95e173ed06087159ed2a97fa9dd2dd3669417289e073faffcd5e78855e118f25816040516115cd9190613698565b60405180910390a150565b60008073ffffffffffffffffffffffffffffffffffffffff168373ffffffffffffffffffffffffffffffffffffffff161415611649576040517f08c379a000000000000000000000000000000000000000000000000000000000815260040161164090613598565b60405180910390fd5b600073ffffffffffffffffffffffffffffffffffffffff168273ffffffffffffffffffffffffffffffffffffffff1614156116b9576040517f08c379a00000000000000000000000000000000000000000000000000000000081526004016116b090613558565b60405180910390fd5b6000600960008573ffffffffffffffffffffffffffffffffffffffff1673ffffffffffffffffffffffffffffffffffffffff16815260200190815260200160002080548060200260200160405190810160405280929190818152602001828054801561177a57602002820191906000526020600020905b8160009054906101000a900473ffffffffffffffffffffffffffffffffffffffff1673ffffffffffffffffffffffffffffffffffffffff1681526020019060010190808311611730575b5050505050905060005b81518110156117f9578373ffffffffffffffffffffffffffffffffffffffff168282815181106117b7576117b66139db565b5b602002602001015173ffffffffffffffffffffffffffffffffffffffff1614156117e657600192505050611800565b80806117f1906138d6565b915050611784565b5060009150505b92915050565b60008054906101000a900473ffffffffffffffffffffffffffffffffffffffff1673ffffffffffffffffffffffffffffffffffffffff163373ffffffffffffffffffffffffffffffffffffffff161461185e57600080fd5b80600154101561186d57600080fd5b80600260008060009054906101000a900473ffffffffffffffffffffffffffffffffffffffff1673ffffffffffffffffffffffffffffffffffffffff1673ffffffffffffffffffffffffffffffffffffffff1681526020019081526020016000205410156118da57600080fd5b80600160008282546118ec91906137f5565b9250508190555080600260008060009054906101000a900473ffffffffffffffffffffffffffffffffffffffff1673ffffffffffffffffffffffffffffffffffffffff1673ffffffffffffffffffffffffffffffffffffffff168152602001908152602001600020600082825461196391906137f5565b92505081905550600073ffffffffffffffffffffffffffffffffffffffff1660008054906101000a900473ffffffffffffffffffffffffffffffffffffffff1673ffffffffffffffffffffffffffffffffffffffff167fddf252ad1be2c89b69c2b068fc378daa952ba7f163c4a11628f55a4df523b3ef836040516119e89190613698565b60405180910390a350565b600660009054906101000a900473ffffffffffffffffffffffffffffffffffffffff1681565b600a602052816000526040600020602052806000526040600020600091509150505481565b600060149054906101000a900460ff1681565b60008054906101000a900473ffffffffffffffffffffffffffffffffffffffff1673ffffffffffffffffffffffffffffffffffffffff163373ffffffffffffffffffffffffffffffffffffffff1614611aa957600080fd5b600073ffffffffffffffffffffffffffffffffffffffff168173ffffffffffffffffffffffffffffffffffffffff161415611b19576040517f08c379a0000000000000000000000000000000000000000000000000000000008152600401611b1090613618565b60405180910390fd5b80600760006101000a81548173ffffffffffffffffffffffffffffffffffffffff021916908373ffffffffffffffffffffffffffffffffffffffff1602179055507f1bbe6d9eebc46961e51a28481eb7ee44dd2a49126987824cb9f41ee4ab4da91c81604051611b8991906133fb565b60405180910390a150565b60008054906101000a900473ffffffffffffffffffffffffffffffffffffffff1673ffffffffffffffffffffffffffffffffffffffff163373ffffffffffffffffffffffffffffffffffffffff1614611bec57600080fd5b60008111611c2f576040517f08c379a0000000000000000000000000000000000000000000000000000000008152600401611c2690613518565b60405180910390fd5b806004819055507f92e4b8a3e1c3c0607e1f6a0102220cfeac4db4b702b24064e6aee87885885d1b81604051611c659190613698565b60405180910390a150565b6000600f60149054906101000a900460ff1615611d3957600f60009054906101000a900473ffffffffffffffffffffffffffffffffffffffff1673ffffffffffffffffffffffffffffffffffffffff166370a08231836040518263ffffffff1660e01b8152600401611ce291906133fb565b60206040518083038186803b158015611cfa57600080fd5b505afa158015611d0e573d6000803e3d6000fd5b505050506040513d601f19601f82011682018060405250810190611d32919061313a565b9050611d45565b611d4282612c08565b90505b919050565b60008054906101000a900473ffffffffffffffffffffffffffffffffffffffff1673ffffffffffffffffffffffffffffffffffffffff163373ffffffffffffffffffffffffffffffffffffffff1614611da257600080fd5b60008111611de5576040517f08c379a0000000000000000000000000000000000000000000000000000000008152600401611ddc90613678565b60405180910390fd5b806005819055507f08b5f02b448b15c0b31ca32226635e94494ddaa2cd48398aadcbde2c938f6df481604051611e1b9190613698565b60405180910390a150565b600760009054906101000a900473ffffffffffffffffffffffffffffffffffffffff1681565b60008054906101000a900473ffffffffffffffffffffffffffffffffffffffff1673ffffffffffffffffffffffffffffffffffffffff163373ffffffffffffffffffffffffffffffffffffffff1614611ea457600080fd5b600060149054906101000a900460ff1615611ebe57600080fd5b6001600060146101000a81548160ff0219169083151502179055507f6985a02210a168e66602d3235cb6db0e70f92b3ba4d376a33c0f3d9434bff62560405160405180910390a1565b60008054906101000a900473ffffffffffffffffffffffffffffffffffffffff1681565b60035481565b600c8054611f3e906138a4565b80601f0160208091040260200160405190810160405280929190818152602001828054611f6a906138a4565b8015611fb75780601f10611f8c57610100808354040283529160200191611fb7565b820191906000526020600020905b815481529060010190602001808311611f9a57829003601f168201915b505050505081565b600060149054906101000a900460ff1615611fd957600080fd5b600f60149054906101000a900460ff161561208457600f60009054906101000a900473ffffffffffffffffffffffffffffffffffffffff1673ffffffffffffffffffffffffffffffffffffffff16636e18980a3384846040518463ffffffff1660e01b815260040161204d93929190613484565b600060405180830381600087803b15801561206757600080fd5b505af115801561207b573d6000803e3d6000fd5b5050505061208f565b61208e8282612c51565b5b5050565b6000601060008373ffffffffffffffffffffffffffffffffffffffff1673ffffffffffffffffffffffffffffffffffffffff16815260200190815260200160002060009054906101000a900460ff169050919050565b60008054906101000a900473ffffffffffffffffffffffffffffffffffffffff1673ffffffffffffffffffffffffffffffffffffffff163373ffffffffffffffffffffffffffffffffffffffff161461214157600080fd5b600073ffffffffffffffffffffffffffffffffffffffff168173ffffffffffffffffffffffffffffffffffffffff1614156121b1576040517f08c379a00000000000000000000000000000000000000000000000000000000081526004016121a890613618565b60405180910390fd5b80600f60006101000a81548173ffffffffffffffffffffffffffffffffffffffff021916908373ffffffffffffffffffffffffffffffffffffffff1602179055507f9a6fd31fb135453b015bec892180cfc4b4dc8aa748fe120a3d8a908744f2c9d0600f60009054906101000a900473ffffffffffffffffffffffffffffffffffffffff1660405161224391906133fb565b60405180910390a150565b60008311156122855761228433600760009054906101000a900473ffffffffffffffffffffffffffffffffffffffff1685612c80565b5b60008411156122bc576122bb33600660009054906101000a900473ffffffffffffffffffffffffffffffffffffffff1686612c80565b5b60008211156123305761232f33600860008473ffffffffffffffffffffffffffffffffffffffff1673ffffffffffffffffffffffffffffffffffffffff16815260200190815260200160002060009054906101000a900473ffffffffffffffffffffffffffffffffffffffff1684612c80565b5b50505050565b6000600f60149054906101000a900460ff161561240157600f60009054906101000a900473ffffffffffffffffffffffffffffffffffffffff1673ffffffffffffffffffffffffffffffffffffffff1663dd62ed3e84846040518363ffffffff1660e01b81526004016123aa929190613416565b60206040518083038186803b1580156123c257600080fd5b505afa1580156123d6573d6000803e3d6000fd5b505050506040513d601f19601f820116820180604052508101906123fa919061313a565b905061240e565b61240b8383612ef4565b90505b92915050565b7fffffffffffffffffffffffffffffffffffffffffffffffffffffffffffffffff81565b60106020528060005260406000206000915054906101000a900460ff1681565b6009602052816000526040600020818154811061247457600080fd5b906000526020600020016000915091509054906101000a900473ffffffffffffffffffffffffffffffffffffffff1681565b60045481565b60008060008060008054906101000a900473ffffffffffffffffffffffffffffffffffffffff1673ffffffffffffffffffffffffffffffffffffffff163373ffffffffffffffffffffffffffffffffffffffff161415801561255c5750600660009054906101000a900473ffffffffffffffffffffffffffffffffffffffff1673ffffffffffffffffffffffffffffffffffffffff163373ffffffffffffffffffffffffffffffffffffffff1614155b80156125b65750600760009054906101000a900473ffffffffffffffffffffffffffffffffffffffff1673ffffffffffffffffffffffffffffffffffffffff163373ffffffffffffffffffffffffffffffffffffffff1614155b156126ed57600e548560646003546125ce919061376a565b6125d8919061379b565b6125e2919061376a565b9350600e548560646004546125f7919061376a565b612601919061379b565b61260b919061376a565b9250600073ffffffffffffffffffffffffffffffffffffffff16600860008873ffffffffffffffffffffffffffffffffffffffff1673ffffffffffffffffffffffffffffffffffffffff16815260200190815260200160002060009054906101000a900473ffffffffffffffffffffffffffffffffffffffff1673ffffffffffffffffffffffffffffffffffffffff16146126ce57600e548560646005546126b3919061376a565b6126bd919061379b565b6126c7919061376a565b91506126d3565b600091505b8183856126e09190613714565b6126ea9190613714565b90505b92959194509250565b60008054906101000a900473ffffffffffffffffffffffffffffffffffffffff1673ffffffffffffffffffffffffffffffffffffffff163373ffffffffffffffffffffffffffffffffffffffff161461274e57600080fd5b600073ffffffffffffffffffffffffffffffffffffffff168173ffffffffffffffffffffffffffffffffffffffff16146127c357806000806101000a81548173ffffffffffffffffffffffffffffffffffffffff021916908373ffffffffffffffffffffffffffffffffffffffff1602179055505b50565b60008054906101000a900473ffffffffffffffffffffffffffffffffffffffff1673ffffffffffffffffffffffffffffffffffffffff163373ffffffffffffffffffffffffffffffffffffffff161461281e57600080fd5b600073ffffffffffffffffffffffffffffffffffffffff168173ffffffffffffffffffffffffffffffffffffffff16141561288e576040517f08c379a000000000000000000000000000000000000000000000000000000000815260040161288590613618565b60405180910390fd5b6001601060008373ffffffffffffffffffffffffffffffffffffffff1673ffffffffffffffffffffffffffffffffffffffff16815260200190815260200160002060006101000a81548160ff0219169083151502179055507fad0f299ec81a386c98df0ac27dae11dd020ed1b56963c53a7292e7a3a314539a8160405161291591906133fb565b60405180910390a150565b604060048161292f9190613714565b6000369050101561293f57600080fd5b600073ffffffffffffffffffffffffffffffffffffffff168373ffffffffffffffffffffffffffffffffffffffff1614156129af576040517f08c379a00000000000000000000000000000000000000000000000000000000081526004016129a690613538565b60405180910390fd5b81600a60003373ffffffffffffffffffffffffffffffffffffffff1673ffffffffffffffffffffffffffffffffffffffff16815260200190815260200160002060008573ffffffffffffffffffffffffffffffffffffffff1673ffffffffffffffffffffffffffffffffffffffff168152602001908152602001600020819055508273ffffffffffffffffffffffffffffffffffffffff163373ffffffffffffffffffffffffffffffffffffffff167f8c5be1e5ebec7d5bd14f71427d1e84f3dd0314c0f7b2291e5b200ac8c7c3b92584604051612a8d9190613698565b60405180910390a3505050565b6060600481612aa99190613714565b60003690501015612ab957600080fd5b6000600a60008673ffffffffffffffffffffffffffffffffffffffff1673ffffffffffffffffffffffffffffffffffffffff16815260200190815260200160002060003373ffffffffffffffffffffffffffffffffffffffff1673ffffffffffffffffffffffffffffffffffffffff1681526020019081526020016000205490507fffffffffffffffffffffffffffffffffffffffffffffffffffffffffffffffff811015612bf657612b758382612f7b90919063ffffffff16565b600a60008773ffffffffffffffffffffffffffffffffffffffff1673ffffffffffffffffffffffffffffffffffffffff16815260200190815260200160002060003373ffffffffffffffffffffffffffffffffffffffff1673ffffffffffffffffffffffffffffffffffffffff168152602001908152602001600020819055505b612c01858585612c80565b5050505050565b6000600260008373ffffffffffffffffffffffffffffffffffffffff1673ffffffffffffffffffffffffffffffffffffffff168152602001908152602001600020549050919050565b6040600481612c609190613714565b60003690501015612c7057600080fd5b612c7b338484612c80565b505050565b600073ffffffffffffffffffffffffffffffffffffffff168373ffffffffffffffffffffffffffffffffffffffff161415612cf0576040517f08c379a0000000000000000000000000000000000000000000000000000000008152600401612ce7906135b8565b60405180910390fd5b600073ffffffffffffffffffffffffffffffffffffffff168273ffffffffffffffffffffffffffffffffffffffff161415612d60576040517f08c379a0000000000000000000000000000000000000000000000000000000008152600401612d57906134f8565b60405180910390fd5b612db281600260008673ffffffffffffffffffffffffffffffffffffffff1673ffffffffffffffffffffffffffffffffffffffff16815260200190815260200160002054612f7b90919063ffffffff16565b600260008573ffffffffffffffffffffffffffffffffffffffff1673ffffffffffffffffffffffffffffffffffffffff16815260200190815260200160002081905550612e4781600260008573ffffffffffffffffffffffffffffffffffffffff1673ffffffffffffffffffffffffffffffffffffffff16815260200190815260200160002054612fa290919063ffffffff16565b600260008473ffffffffffffffffffffffffffffffffffffffff1673ffffffffffffffffffffffffffffffffffffffff168152602001908152602001600020819055508173ffffffffffffffffffffffffffffffffffffffff168373ffffffffffffffffffffffffffffffffffffffff167fddf252ad1be2c89b69c2b068fc378daa952ba7f163c4a11628f55a4df523b3ef83604051612ee79190613698565b60405180910390a3505050565b6000600a60008473ffffffffffffffffffffffffffffffffffffffff1673ffffffffffffffffffffffffffffffffffffffff16815260200190815260200160002060008373ffffffffffffffffffffffffffffffffffffffff1673ffffffffffffffffffffffffffffffffffffffff16815260200190815260200160002054905092915050565b600082821115612f8e57612f8d61391f565b5b8183612f9a91906137f5565b905092915050565b6000808284612fb19190613714565b905083811015612fc457612fc361391f565b5b8091505092915050565b600081359050612fdd81613d3f565b92915050565b600081359050612ff281613d56565b92915050565b60008151905061300781613d56565b92915050565b60006020828403121561302357613022613a0a565b5b600061303184828501612fce565b91505092915050565b6000806040838503121561305157613050613a0a565b5b600061305f85828601612fce565b925050602061307085828601612fce565b9150509250929050565b60008060006060848603121561309357613092613a0a565b5b60006130a186828701612fce565b93505060206130b286828701612fce565b92505060406130c386828701612fe3565b9150509250925092565b600080604083850312156130e4576130e3613a0a565b5b60006130f285828601612fce565b925050602061310385828601612fe3565b9150509250929050565b60006020828403121561312357613122613a0a565b5b600061313184828501612fe3565b91505092915050565b6000602082840312156131505761314f613a0a565b5b600061315e84828501612ff8565b91505092915050565b6000806000806080858703121561318157613180613a0a565b5b600061318f87828801612fe3565b94505060206131a087828801612fe3565b93505060406131b187828801612fe3565b92505060606131c287828801612fce565b91505092959194509250565b6131d781613829565b82525050565b6131e68161383b565b82525050565b60006131f7826136f8565b6132018185613703565b9350613211818560208601613871565b61321a81613a0f565b840191505092915050565b6000613232602383613703565b915061323d82613a20565b604082019050919050565b6000613255602383613703565b915061326082613a6f565b604082019050919050565b6000613278602283613703565b915061328382613abe565b604082019050919050565b600061329b601583613703565b91506132a682613b0d565b602082019050919050565b60006132be603383613703565b91506132c982613b36565b604082019050919050565b60006132e1601583613703565b91506132ec82613b85565b602082019050919050565b6000613304602583613703565b915061330f82613bae565b604082019050919050565b6000613327601c83613703565b915061333282613bfd565b602082019050919050565b600061334a602183613703565b915061335582613c26565b604082019050919050565b600061336d601983613703565b915061337882613c75565b602082019050919050565b6000613390602083613703565b915061339b82613c9e565b602082019050919050565b60006133b3601b83613703565b91506133be82613cc7565b602082019050919050565b60006133d6602283613703565b91506133e182613cf0565b604082019050919050565b6133f581613867565b82525050565b600060208201905061341060008301846131ce565b92915050565b600060408201905061342b60008301856131ce565b61343860208301846131ce565b9392505050565b600060808201905061345460008301876131ce565b61346160208301866131ce565b61346e60408301856131ce565b61347b60608301846133ec565b95945050505050565b600060608201905061349960008301866131ce565b6134a660208301856131ce565b6134b360408301846133ec565b949350505050565b60006020820190506134d060008301846131dd565b92915050565b600060208201905081810360008301526134f081846131ec565b905092915050565b6000602082019050818103600083015261351181613225565b9050919050565b6000602082019050818103600083015261353181613248565b9050919050565b600060208201905081810360008301526135518161326b565b9050919050565b600060208201905081810360008301526135718161328e565b9050919050565b60006020820190508181036000830152613591816132b1565b9050919050565b600060208201905081810360008301526135b1816132d4565b9050919050565b600060208201905081810360008301526135d1816132f7565b9050919050565b600060208201905081810360008301526135f18161331a565b9050919050565b600060208201905081810360008301526136118161333d565b9050919050565b6000602082019050818103600083015261363181613360565b9050919050565b6000602082019050818103600083015261365181613383565b9050919050565b60006020820190508181036000830152613671816133a6565b9050919050565b60006020820190508181036000830152613691816133c9565b9050919050565b60006020820190506136ad60008301846133ec565b92915050565b60006080820190506136c860008301876133ec565b6136d560208301866133ec565b6136e260408301856133ec565b6136ef60608301846133ec565b95945050505050565b600081519050919050565b600082825260208201905092915050565b600061371f82613867565b915061372a83613867565b9250827fffffffffffffffffffffffffffffffffffffffffffffffffffffffffffffffff0382111561375f5761375e61394e565b5b828201905092915050565b600061377582613867565b915061378083613867565b9250826137905761378f61397d565b5b828204905092915050565b60006137a682613867565b91506137b183613867565b9250817fffffffffffffffffffffffffffffffffffffffffffffffffffffffffffffffff04831182151516156137ea576137e961394e565b5b828202905092915050565b600061380082613867565b915061380b83613867565b92508282101561381e5761381d61394e565b5b828203905092915050565b600061383482613847565b9050919050565b60008115159050919050565b600073ffffffffffffffffffffffffffffffffffffffff82169050919050565b6000819050919050565b60005b8381101561388f578082015181840152602081019050613874565b8381111561389e576000848401525b50505050565b600060028204905060018216806138bc57607f821691505b602082108114156138d0576138cf6139ac565b5b50919050565b60006138e182613867565b91507fffffffffffffffffffffffffffffffffffffffffffffffffffffffffffffffff8214156139145761391361394e565b5b600182019050919050565b7f4e487b7100000000000000000000000000000000000000000000000000000000600052600160045260246000fd5b7f4e487b7100000000000000000000000000000000000000000000000000000000600052601160045260246000fd5b7f4e487b7100000000000000000000000000000000000000000000000000000000600052601260045260246000fd5b7f4e487b7100000000000000000000000000000000000000000000000000000000600052602260045260246000fd5b7f4e487b7100000000000000000000000000000000000000000000000000000000600052603260045260246000fd5b600080fd5b6000601f19601f8301169050919050565b7f45524332303a207472616e7366657220746f20746865207a65726f206164647260008201527f6573730000000000000000000000000000000000000000000000000000000000602082015250565b7f4d61726b6574696e67466565206d75737420626520677265617465722074686160008201527f6e20300000000000000000000000000000000000000000000000000000000000602082015250565b7f45524332303a20617070726f766520746f20746865207a65726f20616464726560008201527f7373000000000000000000000000000000000000000000000000000000000000602082015250565b7f726566657272616c20697320756e646566696e65640000000000000000000000600082015250565b7f706572736f6e20796f752061726520726566657272696e672068617320616c7260008201527f6561647920676f74206120726566657272657200000000000000000000000000602082015250565b7f726566657272657220697320756e646566696e65640000000000000000000000600082015250565b7f45524332303a207472616e736665722066726f6d20746865207a65726f20616460008201527f6472657373000000000000000000000000000000000000000000000000000000602082015250565b7f75706772616465644164647265737320697320756e646566696e656400000000600082015250565b7f5374616b696e67466565206d7573742062652067726561746572207468616e2060008201527f3000000000000000000000000000000000000000000000000000000000000000602082015250565b7f796f75206172652073657474696e672030206164647265737300000000000000600082015250565b7f596f752063616e206e6f7420626520796f7572206f776e20726566657272616c600082015250565b7f4e6f205065726d697373696f6e20746f206d696e7420746f6b656e0000000000600082015250565b7f526566657272616c466565206d7573742062652067726561746572207468616e60008201527f2030000000000000000000000000000000000000000000000000000000000000602082015250565b613d4881613829565b8114613d5357600080fd5b50565b613d5f81613867565b8114613d6a57600080fd5b5056fea26469706673582212203ed4606a142c53b647e30b2bc481678472fdd5d75e8e7665c8dd548bc6366e4464736f6c63430008070033",
  "linkReferences": {},
  "deployedLinkReferences": {}
}