{
  "_format": "hh-sol-artifact-1",
  "contractName": "CrazyZooNFT",
  "sourceName": "contracts/CrazyZooNFT.sol",
  "abi": [
    {
      "inputs": [
        {
          "internalType": "contract IERC20",
          "name": "_USDTtoken",
          "type": "address"
        },
        {
          "internalType": "address",
          "name": "_feeCollector",
          "type": "address"
        }
      ],
      "stateMutability": "nonpayable",
      "type": "constructor"
    },
    {
      "anonymous": false,
      "inputs": [
        {
          "indexed": true,
          "internalType": "address",
          "name": "owner",
          "type": "address"
        },
        {
          "indexed": true,
          "internalType": "address",
          "name": "approved",
          "type": "address"
        },
        {
          "indexed": true,
          "internalType": "uint256",
          "name": "tokenId",
          "type": "uint256"
        }
      ],
      "name": "Approval",
      "type": "event"
    },
    {
      "anonymous": false,
      "inputs": [
        {
          "indexed": true,
          "internalType": "address",
          "name": "owner",
          "type": "address"
        },
        {
          "indexed": true,
          "internalType": "address",
          "name": "operator",
          "type": "address"
        },
        {
          "indexed": false,
          "internalType": "bool",
          "name": "approved",
          "type": "bool"
        }
      ],
      "name": "ApprovalForAll",
      "type": "event"
    },
    {
      "anonymous": false,
      "inputs": [
        {
          "indexed": true,
          "internalType": "bool",
          "name": "enabled",
          "type": "bool"
        }
      ],
      "name": "DirectMinting",
      "type": "event"
    },
    {
      "anonymous": false,
      "inputs": [
        {
          "indexed": true,
          "internalType": "bool",
          "name": "newStatus",
          "type": "bool"
        }
      ],
      "name": "FeeStatusUpdated",
      "type": "event"
    },
    {
      "anonymous": false,
      "inputs": [
        {
          "indexed": true,
          "internalType": "uint256",
          "name": "index",
          "type": "uint256"
        },
        {
          "indexed": true,
          "internalType": "string",
          "name": "newCid",
          "type": "string"
        }
      ],
      "name": "NewCID",
      "type": "event"
    },
    {
      "anonymous": false,
      "inputs": [
        {
          "indexed": true,
          "internalType": "address",
          "name": "newFeeCollector",
          "type": "address"
        }
      ],
      "name": "NewFeeCollector",
      "type": "event"
    },
    {
      "anonymous": false,
      "inputs": [
        {
          "indexed": true,
          "internalType": "uint256[]",
          "name": "fees",
          "type": "uint256[]"
        }
      ],
      "name": "NewFees",
      "type": "event"
    },
    {
      "anonymous": false,
      "inputs": [
        {
          "indexed": false,
          "internalType": "address",
          "name": "newToken",
          "type": "address"
        }
      ],
      "name": "NewUSDTtoken",
      "type": "event"
    },
    {
      "anonymous": false,
      "inputs": [
        {
          "indexed": true,
          "internalType": "bytes32",
          "name": "role",
          "type": "bytes32"
        },
        {
          "indexed": true,
          "internalType": "bytes32",
          "name": "previousAdminRole",
          "type": "bytes32"
        },
        {
          "indexed": true,
          "internalType": "bytes32",
          "name": "newAdminRole",
          "type": "bytes32"
        }
      ],
      "name": "RoleAdminChanged",
      "type": "event"
    },
    {
      "anonymous": false,
      "inputs": [
        {
          "indexed": true,
          "internalType": "bytes32",
          "name": "role",
          "type": "bytes32"
        },
        {
          "indexed": true,
          "internalType": "address",
          "name": "account",
          "type": "address"
        },
        {
          "indexed": true,
          "internalType": "address",
          "name": "sender",
          "type": "address"
        }
      ],
      "name": "RoleGranted",
      "type": "event"
    },
    {
      "anonymous": false,
      "inputs": [
        {
          "indexed": true,
          "internalType": "bytes32",
          "name": "role",
          "type": "bytes32"
        },
        {
          "indexed": true,
          "internalType": "address",
          "name": "account",
          "type": "address"
        },
        {
          "indexed": true,
          "internalType": "address",
          "name": "sender",
          "type": "address"
        }
      ],
      "name": "RoleRevoked",
      "type": "event"
    },
    {
      "anonymous": false,
      "inputs": [
        {
          "indexed": true,
          "internalType": "address",
          "name": "from",
          "type": "address"
        },
        {
          "indexed": true,
          "internalType": "address",
          "name": "to",
          "type": "address"
        },
        {
          "indexed": true,
          "internalType": "uint256",
          "name": "tokenId",
          "type": "uint256"
        }
      ],
      "name": "Transfer",
      "type": "event"
    },
    {
      "anonymous": false,
      "inputs": [
        {
          "indexed": true,
          "internalType": "address",
          "name": "sender",
          "type": "address"
        },
        {
          "indexed": true,
          "internalType": "address",
          "name": "feeCollector",
          "type": "address"
        },
        {
          "indexed": true,
          "internalType": "uint256",
          "name": "fee",
          "type": "uint256"
        }
      ],
      "name": "TransferFee",
      "type": "event"
    },
    {
      "anonymous": false,
      "inputs": [
        {
          "indexed": true,
          "internalType": "address",
          "name": "to",
          "type": "address"
        },
        {
          "indexed": true,
          "internalType": "uint256",
          "name": "currentId",
          "type": "uint256"
        }
      ],
      "name": "mint",
      "type": "event"
    },
    {
      "inputs": [],
      "name": "DEFAULT_ADMIN_ROLE",
      "outputs": [
        {
          "internalType": "bytes32",
          "name": "",
          "type": "bytes32"
        }
      ],
      "stateMutability": "view",
      "type": "function"
    },
    {
      "inputs": [],
      "name": "MINTER_ROLE",
      "outputs": [
        {
          "internalType": "bytes32",
          "name": "",
          "type": "bytes32"
        }
      ],
      "stateMutability": "view",
      "type": "function"
    },
    {
      "inputs": [],
      "name": "USDTtoken",
      "outputs": [
        {
          "internalType": "contract IERC20",
          "name": "",
          "type": "address"
        }
      ],
      "stateMutability": "view",
      "type": "function"
    },
    {
      "inputs": [
        {
          "internalType": "address",
          "name": "to",
          "type": "address"
        },
        {
          "internalType": "uint256",
          "name": "tokenId",
          "type": "uint256"
        }
      ],
      "name": "approve",
      "outputs": [],
      "stateMutability": "nonpayable",
      "type": "function"
    },
    {
      "inputs": [
        {
          "internalType": "address",
          "name": "owner",
          "type": "address"
        }
      ],
      "name": "balanceOf",
      "outputs": [
        {
          "internalType": "uint256",
          "name": "",
          "type": "uint256"
        }
      ],
      "stateMutability": "view",
      "type": "function"
    },
    {
      "inputs": [],
      "name": "baseURI",
      "outputs": [
        {
          "internalType": "string",
          "name": "",
          "type": "string"
        }
      ],
      "stateMutability": "view",
      "type": "function"
    },
    {
      "inputs": [
        {
          "internalType": "uint256",
          "name": "tokenId",
          "type": "uint256"
        }
      ],
      "name": "burn",
      "outputs": [],
      "stateMutability": "nonpayable",
      "type": "function"
    },
    {
      "inputs": [],
      "name": "chargeFeeOnMint",
      "outputs": [
        {
          "internalType": "bool",
          "name": "",
          "type": "bool"
        }
      ],
      "stateMutability": "view",
      "type": "function"
    },
    {
      "inputs": [
        {
          "internalType": "uint256",
          "name": "",
          "type": "uint256"
        }
      ],
      "name": "cids",
      "outputs": [
        {
          "internalType": "string",
          "name": "",
          "type": "string"
        }
      ],
      "stateMutability": "view",
      "type": "function"
    },
    {
      "inputs": [],
      "name": "directMintEnabled",
      "outputs": [
        {
          "internalType": "bool",
          "name": "",
          "type": "bool"
        }
      ],
      "stateMutability": "view",
      "type": "function"
    },
    {
      "inputs": [
        {
          "internalType": "uint256",
          "name": "",
          "type": "uint256"
        }
      ],
      "name": "extraMintAmount",
      "outputs": [
        {
          "internalType": "uint256",
          "name": "",
          "type": "uint256"
        }
      ],
      "stateMutability": "view",
      "type": "function"
    },
    {
      "inputs": [],
      "name": "feeCollector",
      "outputs": [
        {
          "internalType": "address",
          "name": "",
          "type": "address"
        }
      ],
      "stateMutability": "view",
      "type": "function"
    },
    {
      "inputs": [
        {
          "internalType": "uint256",
          "name": "tokenId",
          "type": "uint256"
        }
      ],
      "name": "getApproved",
      "outputs": [
        {
          "internalType": "address",
          "name": "",
          "type": "address"
        }
      ],
      "stateMutability": "view",
      "type": "function"
    },
    {
      "inputs": [],
      "name": "getBaseURI",
      "outputs": [
        {
          "internalType": "string",
          "name": "",
          "type": "string"
        }
      ],
      "stateMutability": "view",
      "type": "function"
    },
    {
      "inputs": [],
      "name": "getDirectMinting",
      "outputs": [
        {
          "internalType": "bool",
          "name": "",
          "type": "bool"
        }
      ],
      "stateMutability": "view",
      "type": "function"
    },
    {
      "inputs": [
        {
          "internalType": "uint256",
          "name": "_id",
          "type": "uint256"
        }
      ],
      "name": "getExtraAmount",
      "outputs": [
        {
          "internalType": "uint256",
          "name": "",
          "type": "uint256"
        }
      ],
      "stateMutability": "view",
      "type": "function"
    },
    {
      "inputs": [],
      "name": "getFeeCollector",
      "outputs": [
        {
          "internalType": "address",
          "name": "",
          "type": "address"
        }
      ],
      "stateMutability": "view",
      "type": "function"
    },
    {
      "inputs": [
        {
          "internalType": "uint256",
          "name": "_id",
          "type": "uint256"
        }
      ],
      "name": "getFeeForId",
      "outputs": [
        {
          "internalType": "uint256",
          "name": "",
          "type": "uint256"
        }
      ],
      "stateMutability": "view",
      "type": "function"
    },
    {
      "inputs": [
        {
          "internalType": "uint256",
          "name": "_index",
          "type": "uint256"
        }
      ],
      "name": "getFeeForIndex",
      "outputs": [
        {
          "internalType": "uint256",
          "name": "",
          "type": "uint256"
        }
      ],
      "stateMutability": "view",
      "type": "function"
    },
    {
      "inputs": [
        {
          "internalType": "uint256",
          "name": "_id",
          "type": "uint256"
        }
      ],
      "name": "getIndexForId",
      "outputs": [
        {
          "internalType": "uint256",
          "name": "",
          "type": "uint256"
        }
      ],
      "stateMutability": "view",
      "type": "function"
    },
    {
      "inputs": [],
      "name": "getMintFeeStatus",
      "outputs": [
        {
          "internalType": "bool",
          "name": "",
          "type": "bool"
        }
      ],
      "stateMutability": "view",
      "type": "function"
    },
    {
      "inputs": [
        {
          "internalType": "bytes32",
          "name": "role",
          "type": "bytes32"
        }
      ],
      "name": "getRoleAdmin",
      "outputs": [
        {
          "internalType": "bytes32",
          "name": "",
          "type": "bytes32"
        }
      ],
      "stateMutability": "view",
      "type": "function"
    },
    {
      "inputs": [
        {
          "internalType": "uint256",
          "name": "_id",
          "type": "uint256"
        }
      ],
      "name": "getTotalMintedNfts",
      "outputs": [
        {
          "internalType": "uint256",
          "name": "",
          "type": "uint256"
        }
      ],
      "stateMutability": "view",
      "type": "function"
    },
    {
      "inputs": [],
      "name": "gorillaIdCounter",
      "outputs": [
        {
          "internalType": "uint256",
          "name": "",
          "type": "uint256"
        }
      ],
      "stateMutability": "view",
      "type": "function"
    },
    {
      "inputs": [],
      "name": "gorillaMaxId",
      "outputs": [
        {
          "internalType": "uint256",
          "name": "",
          "type": "uint256"
        }
      ],
      "stateMutability": "view",
      "type": "function"
    },
    {
      "inputs": [],
      "name": "gorillaMinId",
      "outputs": [
        {
          "internalType": "uint256",
          "name": "",
          "type": "uint256"
        }
      ],
      "stateMutability": "view",
      "type": "function"
    },
    {
      "inputs": [
        {
          "internalType": "bytes32",
          "name": "role",
          "type": "bytes32"
        },
        {
          "internalType": "address",
          "name": "account",
          "type": "address"
        }
      ],
      "name": "grantRole",
      "outputs": [],
      "stateMutability": "nonpayable",
      "type": "function"
    },
    {
      "inputs": [
        {
          "internalType": "bytes32",
          "name": "role",
          "type": "bytes32"
        },
        {
          "internalType": "address",
          "name": "account",
          "type": "address"
        }
      ],
      "name": "hasRole",
      "outputs": [
        {
          "internalType": "bool",
          "name": "",
          "type": "bool"
        }
      ],
      "stateMutability": "view",
      "type": "function"
    },
    {
      "inputs": [
        {
          "internalType": "address",
          "name": "owner",
          "type": "address"
        },
        {
          "internalType": "address",
          "name": "operator",
          "type": "address"
        }
      ],
      "name": "isApprovedForAll",
      "outputs": [
        {
          "internalType": "bool",
          "name": "",
          "type": "bool"
        }
      ],
      "stateMutability": "view",
      "type": "function"
    },
    {
      "inputs": [],
      "name": "lemurIdCounter",
      "outputs": [
        {
          "internalType": "uint256",
          "name": "",
          "type": "uint256"
        }
      ],
      "stateMutability": "view",
      "type": "function"
    },
    {
      "inputs": [],
      "name": "lemurMaxId",
      "outputs": [
        {
          "internalType": "uint256",
          "name": "",
          "type": "uint256"
        }
      ],
      "stateMutability": "view",
      "type": "function"
    },
    {
      "inputs": [],
      "name": "lemurMinId",
      "outputs": [
        {
          "internalType": "uint256",
          "name": "",
          "type": "uint256"
        }
      ],
      "stateMutability": "view",
      "type": "function"
    },
    {
      "inputs": [
        {
          "internalType": "address",
          "name": "to",
          "type": "address"
        }
      ],
      "name": "mintGorilla",
      "outputs": [],
      "stateMutability": "nonpayable",
      "type": "function"
    },
    {
      "inputs": [
        {
          "internalType": "address",
          "name": "to",
          "type": "address"
        }
      ],
      "name": "mintLemur",
      "outputs": [],
      "stateMutability": "nonpayable",
      "type": "function"
    },
    {
      "inputs": [
        {
          "internalType": "address",
          "name": "to",
          "type": "address"
        }
      ],
      "name": "mintRhino",
      "outputs": [],
      "stateMutability": "nonpayable",
      "type": "function"
    },
    {
      "inputs": [],
      "name": "name",
      "outputs": [
        {
          "internalType": "string",
          "name": "",
          "type": "string"
        }
      ],
      "stateMutability": "view",
      "type": "function"
    },
    {
      "inputs": [
        {
          "internalType": "uint256",
          "name": "",
          "type": "uint256"
        }
      ],
      "name": "nftPrices",
      "outputs": [
        {
          "internalType": "uint256",
          "name": "",
          "type": "uint256"
        }
      ],
      "stateMutability": "view",
      "type": "function"
    },
    {
      "inputs": [
        {
          "internalType": "uint256",
          "name": "tokenId",
          "type": "uint256"
        }
      ],
      "name": "ownerOf",
      "outputs": [
        {
          "internalType": "address",
          "name": "",
          "type": "address"
        }
      ],
      "stateMutability": "view",
      "type": "function"
    },
    {
      "inputs": [
        {
          "internalType": "bytes32",
          "name": "role",
          "type": "bytes32"
        },
        {
          "internalType": "address",
          "name": "account",
          "type": "address"
        }
      ],
      "name": "renounceRole",
      "outputs": [],
      "stateMutability": "nonpayable",
      "type": "function"
    },
    {
      "inputs": [
        {
          "internalType": "bytes32",
          "name": "role",
          "type": "bytes32"
        },
        {
          "internalType": "address",
          "name": "account",
          "type": "address"
        }
      ],
      "name": "revokeRole",
      "outputs": [],
      "stateMutability": "nonpayable",
      "type": "function"
    },
    {
      "inputs": [],
      "name": "rhinoIdCounter",
      "outputs": [
        {
          "internalType": "uint256",
          "name": "",
          "type": "uint256"
        }
      ],
      "stateMutability": "view",
      "type": "function"
    },
    {
      "inputs": [],
      "name": "rhinoMaxId",
      "outputs": [
        {
          "internalType": "uint256",
          "name": "",
          "type": "uint256"
        }
      ],
      "stateMutability": "view",
      "type": "function"
    },
    {
      "inputs": [],
      "name": "rhinoMinId",
      "outputs": [
        {
          "internalType": "uint256",
          "name": "",
          "type": "uint256"
        }
      ],
      "stateMutability": "view",
      "type": "function"
    },
    {
      "inputs": [
        {
          "internalType": "address",
          "name": "to",
          "type": "address"
        },
        {
          "internalType": "uint256",
          "name": "tokenId",
          "type": "uint256"
        }
      ],
      "name": "safeMint",
      "outputs": [],
      "stateMutability": "nonpayable",
      "type": "function"
    },
    {
      "inputs": [
        {
          "internalType": "address",
          "name": "from",
          "type": "address"
        },
        {
          "internalType": "address",
          "name": "to",
          "type": "address"
        },
        {
          "internalType": "uint256",
          "name": "tokenId",
          "type": "uint256"
        }
      ],
      "name": "safeTransferFrom",
      "outputs": [],
      "stateMutability": "nonpayable",
      "type": "function"
    },
    {
      "inputs": [
        {
          "internalType": "address",
          "name": "from",
          "type": "address"
        },
        {
          "internalType": "address",
          "name": "to",
          "type": "address"
        },
        {
          "internalType": "uint256",
          "name": "tokenId",
          "type": "uint256"
        },
        {
          "internalType": "bytes",
          "name": "data",
          "type": "bytes"
        }
      ],
      "name": "safeTransferFrom",
      "outputs": [],
      "stateMutability": "nonpayable",
      "type": "function"
    },
    {
      "inputs": [
        {
          "internalType": "address",
          "name": "operator",
          "type": "address"
        },
        {
          "internalType": "bool",
          "name": "approved",
          "type": "bool"
        }
      ],
      "name": "setApprovalForAll",
      "outputs": [],
      "stateMutability": "nonpayable",
      "type": "function"
    },
    {
      "inputs": [
        {
          "internalType": "string",
          "name": "_uri",
          "type": "string"
        }
      ],
      "name": "setBaseURI",
      "outputs": [],
      "stateMutability": "nonpayable",
      "type": "function"
    },
    {
      "inputs": [
        {
          "internalType": "uint256",
          "name": "index",
          "type": "uint256"
        },
        {
          "internalType": "string",
          "name": "_cid",
          "type": "string"
        }
      ],
      "name": "setCid",
      "outputs": [],
      "stateMutability": "nonpayable",
      "type": "function"
    },
    {
      "inputs": [
        {
          "internalType": "bool",
          "name": "setValue",
          "type": "bool"
        }
      ],
      "name": "setDirectMinting",
      "outputs": [],
      "stateMutability": "nonpayable",
      "type": "function"
    },
    {
      "inputs": [
        {
          "internalType": "address",
          "name": "_newCollector",
          "type": "address"
        }
      ],
      "name": "setFeeCollector",
      "outputs": [],
      "stateMutability": "nonpayable",
      "type": "function"
    },
    {
      "inputs": [
        {
          "internalType": "uint256[]",
          "name": "fees",
          "type": "uint256[]"
        }
      ],
      "name": "setFees",
      "outputs": [],
      "stateMutability": "nonpayable",
      "type": "function"
    },
    {
      "inputs": [
        {
          "internalType": "bool",
          "name": "setValue",
          "type": "bool"
        }
      ],
      "name": "setMintFeeStatus",
      "outputs": [],
      "stateMutability": "nonpayable",
      "type": "function"
    },
    {
      "inputs": [
        {
          "internalType": "uint256",
          "name": "min",
          "type": "uint256"
        },
        {
          "internalType": "uint256",
          "name": "diff",
          "type": "uint256"
        }
      ],
      "name": "setRange",
      "outputs": [],
      "stateMutability": "nonpayable",
      "type": "function"
    },
    {
      "inputs": [
        {
          "internalType": "address",
          "name": "newToken",
          "type": "address"
        }
      ],
      "name": "setUSDTToken",
      "outputs": [],
      "stateMutability": "nonpayable",
      "type": "function"
    },
    {
      "inputs": [
        {
          "internalType": "bytes4",
          "name": "interfaceId",
          "type": "bytes4"
        }
      ],
      "name": "supportsInterface",
      "outputs": [
        {
          "internalType": "bool",
          "name": "",
          "type": "bool"
        }
      ],
      "stateMutability": "view",
      "type": "function"
    },
    {
      "inputs": [],
      "name": "symbol",
      "outputs": [
        {
          "internalType": "string",
          "name": "",
          "type": "string"
        }
      ],
      "stateMutability": "view",
      "type": "function"
    },
    {
      "inputs": [
        {
          "internalType": "uint256",
          "name": "_tokenId",
          "type": "uint256"
        }
      ],
      "name": "tokenURI",
      "outputs": [
        {
          "internalType": "string",
          "name": "",
          "type": "string"
        }
      ],
      "stateMutability": "view",
      "type": "function"
    },
    {
      "inputs": [
        {
          "internalType": "address",
          "name": "from",
          "type": "address"
        },
        {
          "internalType": "address",
          "name": "to",
          "type": "address"
        },
        {
          "internalType": "uint256",
          "name": "amount",
          "type": "uint256"
        }
      ],
      "name": "transferFee",
      "outputs": [],
      "stateMutability": "nonpayable",
      "type": "function"
    },
    {
      "inputs": [
        {
          "internalType": "address",
          "name": "from",
          "type": "address"
        },
        {
          "internalType": "address",
          "name": "to",
          "type": "address"
        },
        {
          "internalType": "uint256",
          "name": "tokenId",
          "type": "uint256"
        }
      ],
      "name": "transferFrom",
      "outputs": [],
      "stateMutability": "nonpayable",
      "type": "function"
    }
  ],
  "bytecode": "0x60806040526040518060600160405280680d8d726b7177a8000068ffffffffffffffffff168152602001680d8d726b7177a8000068ffffffffffffffffff168152602001680d8d726b7177a8000068ffffffffffffffffff1681525060109060036200006d929190620003c2565b50601060139060036200008292919062000414565b506001601760146101000a81548160ff0219169083151502179055506000601760156101000a81548160ff021916908315150217905550348015620000c657600080fd5b506040516200650f3803806200650f8339818101604052810190620000ec919062000534565b6040518060400160405280600d81526020017f4372617a79205a6f6f204e4654000000000000000000000000000000000000008152506040518060400160405280600381526020017f435a4e000000000000000000000000000000000000000000000000000000000081525081600090805190602001906200017092919062000456565b5080600190805190602001906200018992919062000456565b505050620001a16000801b336200025d60201b60201c565b620001d37f9f2df0fed2c77648de5860a4cc508cd0818c85b8b8a1ab4ceeef8d981c8956a6336200025d60201b60201c565b81601660006101000a81548173ffffffffffffffffffffffffffffffffffffffff021916908373ffffffffffffffffffffffffffffffffffffffff16021790555080601760006101000a81548173ffffffffffffffffffffffffffffffffffffffff021916908373ffffffffffffffffffffffffffffffffffffffff160217905550505062000661565b6200026f82826200034f60201b60201c565b6200034b5760016006600084815260200190815260200160002060000160008373ffffffffffffffffffffffffffffffffffffffff1673ffffffffffffffffffffffffffffffffffffffff16815260200190815260200160002060006101000a81548160ff021916908315150217905550620002f0620003ba60201b60201c565b73ffffffffffffffffffffffffffffffffffffffff168173ffffffffffffffffffffffffffffffffffffffff16837f2f8788117e7eff1d82e926ec794901d17c78024a50270940304540a733656f0d60405160405180910390a45b5050565b60006006600084815260200190815260200160002060000160008373ffffffffffffffffffffffffffffffffffffffff1673ffffffffffffffffffffffffffffffffffffffff16815260200190815260200160002060009054906101000a900460ff16905092915050565b600033905090565b826003810192821562000401579160200282015b8281111562000400578251829068ffffffffffffffffff16905591602001919060010190620003d6565b5b509050620004109190620004e7565b5090565b826003810192821562000443579182015b828111156200044257825482559160010191906001019062000425565b5b509050620004529190620004e7565b5090565b8280546200046490620005c3565b90600052602060002090601f016020900481019282620004885760008555620004d4565b82601f10620004a357805160ff1916838001178555620004d4565b82800160010185558215620004d4579182015b82811115620004d3578251825591602001919060010190620004b6565b5b509050620004e39190620004e7565b5090565b5b8082111562000502576000816000905550600101620004e8565b5090565b60008151905062000517816200062d565b92915050565b6000815190506200052e8162000647565b92915050565b600080604083850312156200054e576200054d62000628565b5b60006200055e858286016200051d565b9250506020620005718582860162000506565b9150509250929050565b60006200058882620005a3565b9050919050565b60006200059c826200057b565b9050919050565b600073ffffffffffffffffffffffffffffffffffffffff82169050919050565b60006002820490506001821680620005dc57607f821691505b60208210811415620005f357620005f2620005f9565b5b50919050565b7f4e487b7100000000000000000000000000000000000000000000000000000000600052602260045260246000fd5b600080fd5b62000638816200057b565b81146200064457600080fd5b50565b62000652816200058f565b81146200065e57600080fd5b50565b615e9e80620006716000396000f3fe608060405234801561001057600080fd5b50600436106103a45760003560e01c806370a08231116101e9578063b3f4bd3f1161010f578063d547741f116100ad578063eecb05281161007c578063eecb052814610b2f578063f127a1d314610b4d578063f1b51b1614610b6b578063f40f62d214610b87576103a4565b8063d547741f14610a95578063d65e91aa14610ab1578063d9f10a2b14610acf578063e985e9c514610aff576103a4565b8063c2dc0ca3116100e9578063c2dc0ca3146109f9578063c415b95c14610a29578063c87b56dd14610a47578063d539139314610a77576103a4565b8063b3f4bd3f1461098f578063b524ecab146109ad578063b88d4fde146109dd576103a4565b806395d89b4111610187578063a217fddf11610156578063a217fddf1461091d578063a22cb4651461093b578063a42dce8014610957578063a84c191c14610973576103a4565b806395d89b41146108a95780639db9ac97146108c7578063a10539fd146108e5578063a144819414610901576103a4565b806374073040116101c3578063740730401461080f5780637df102ae1461082d57806383ad45421461085d57806391d1485414610879576103a4565b806370a08231146107a5578063714c5398146107d557806372b78bca146107f3576103a4565b806342842e0e116102ce5780635f7b88bd1161026c578063687863e81161023b578063687863e8146107095780636c0360eb146107275780636d9ab07e14610745578063704fe71014610775576103a4565b80635f7b88bd146106815780636352211e1461069f57806366e226bd146106cf578063674c0886146106eb576103a4565b80634b11f578116102a85780634b11f5781461060d57806353a6e36b1461062b57806355f804b31461064957806359d5d02a14610665576103a4565b806342842e0e146105b757806342966c68146105d35780634a7efefd146105ef576103a4565b8063248a9ca3116103465780632f2ff15d116103155780632f2ff15d1461054557806336568abe14610561578063367fef441461057d57806336ffc2aa14610599576103a4565b8063248a9ca3146104995780632ae0357f146104c95780632b8fdbc9146104e55780632c59ff1014610515576103a4565b8063095ea7b311610382578063095ea7b31461042757806312fde4b7146104435780631cc5fe591461046157806323b872dd1461047d576103a4565b806301ffc9a7146103a957806306fdde03146103d9578063081812fc146103f7575b600080fd5b6103c360048036038101906103be919061446a565b610ba5565b6040516103d09190614d8e565b60405180910390f35b6103e1610bb7565b6040516103ee9190614ddf565b60405180910390f35b610411600480360381019061040c919061450d565b610c49565b60405161041e9190614cc7565b60405180910390f35b610441600480360381019061043c9190614316565b610c8f565b005b61044b610da7565b6040516104589190614cc7565b60405180910390f35b61047b60048036038101906104769190614567565b610dd1565b005b61049760048036038101906104929190614200565b610ee1565b005b6104b360048036038101906104ae91906143fd565b610f41565b6040516104c09190614da9565b60405180910390f35b6104e360048036038101906104de9190614356565b610f61565b005b6104ff60048036038101906104fa919061450d565b61106b565b60405161050c91906151e1565b60405180910390f35b61052f600480360381019061052a919061450d565b6110e5565b60405161053c91906151e1565b60405180910390f35b61055f600480360381019061055a919061442a565b61118d565b005b61057b6004803603810190610576919061442a565b6111ae565b005b610597600480360381019061059291906143a3565b611231565b005b6105a161128b565b6040516105ae9190614d8e565b60405180910390f35b6105d160048036038101906105cc9190614200565b61129e565b005b6105ed60048036038101906105e8919061450d565b6112be565b005b6105f761131a565b60405161060491906151e1565b60405180910390f35b610615611320565b60405161062291906151e1565b60405180910390f35b610633611326565b60405161064091906151e1565b60405180910390f35b610663600480360381019061065e91906144c4565b61132c565b005b61067f600480360381019061067a9190614200565b611354565b005b610689611579565b60405161069691906151e1565b60405180910390f35b6106b960048036038101906106b4919061450d565b61157f565b6040516106c69190614cc7565b60405180910390f35b6106e960048036038101906106e49190614193565b611606565b005b6106f36116ff565b60405161070091906151e1565b60405180910390f35b610711611705565b60405161071e9190614d8e565b60405180910390f35b61072f61171c565b60405161073c9190614ddf565b60405180910390f35b61075f600480360381019061075a919061450d565b6117aa565b60405161076c91906151e1565b60405180910390f35b61078f600480360381019061078a919061450d565b6117c9565b60405161079c9190614ddf565b60405180910390f35b6107bf60048036038101906107ba9190614193565b611869565b6040516107cc91906151e1565b60405180910390f35b6107dd611921565b6040516107ea9190614ddf565b60405180910390f35b61080d60048036038101906108089190614193565b6119b3565b005b610817611ae7565b6040516108249190614dc4565b60405180910390f35b6108476004803603810190610842919061450d565b611b0d565b60405161085491906151e1565b60405180910390f35b610877600480360381019061087291906145c3565b611b28565b005b610893600480360381019061088e919061442a565b611c65565b6040516108a09190614d8e565b60405180910390f35b6108b1611cd0565b6040516108be9190614ddf565b60405180910390f35b6108cf611d62565b6040516108dc91906151e1565b60405180910390f35b6108ff60048036038101906108fa9190614193565b611d68565b005b61091b60048036038101906109169190614316565b611e9c565b005b61092561202b565b6040516109329190614da9565b60405180910390f35b610955600480360381019061095091906142d6565b612032565b005b610971600480360381019061096c9190614193565b612048565b005b61098d60048036038101906109889190614193565b61214d565b005b610997612281565b6040516109a491906151e1565b60405180910390f35b6109c760048036038101906109c2919061450d565b612287565b6040516109d491906151e1565b60405180910390f35b6109f760048036038101906109f29190614253565b61236e565b005b610a136004803603810190610a0e919061450d565b6123d0565b604051610a2091906151e1565b60405180910390f35b610a316124b7565b604051610a3e9190614cc7565b60405180910390f35b610a616004803603810190610a5c919061450d565b6124dd565b604051610a6e9190614ddf565b60405180910390f35b610a7f61256f565b604051610a8c9190614da9565b60405180910390f35b610aaf6004803603810190610aaa919061442a565b612593565b005b610ab96125b4565b604051610ac69190614d8e565b60405180910390f35b610ae96004803603810190610ae4919061450d565b6125c7565b604051610af691906151e1565b60405180910390f35b610b196004803603810190610b1491906141c0565b6125e2565b604051610b269190614d8e565b60405180910390f35b610b37612676565b604051610b449190614d8e565b60405180910390f35b610b5561268d565b604051610b6291906151e1565b60405180910390f35b610b856004803603810190610b8091906143a3565b612693565b005b610b8f6126fc565b604051610b9c91906151e1565b60405180910390f35b6000610bb082612702565b9050919050565b606060008054610bc6906154a1565b80601f0160208091040260200160405190810160405280929190818152602001828054610bf2906154a1565b8015610c3f5780601f10610c1457610100808354040283529160200191610c3f565b820191906000526020600020905b815481529060010190602001808311610c2257829003601f168201915b5050505050905090565b6000610c548261277c565b6004600083815260200190815260200160002060009054906101000a900473ffffffffffffffffffffffffffffffffffffffff169050919050565b6000610c9a8261157f565b90508073ffffffffffffffffffffffffffffffffffffffff168373ffffffffffffffffffffffffffffffffffffffff161415610d0b576040517f08c379a0000000000000000000000000000000000000000000000000000000008152600401610d02906150a1565b60405180910390fd5b8073ffffffffffffffffffffffffffffffffffffffff16610d2a6127c7565b73ffffffffffffffffffffffffffffffffffffffff161480610d595750610d5881610d536127c7565b6125e2565b5b610d98576040517f08c379a0000000000000000000000000000000000000000000000000000000008152600401610d8f906150c1565b60405180910390fd5b610da283836127cf565b505050565b6000601760009054906101000a900473ffffffffffffffffffffffffffffffffffffffff16905090565b6000801b610dde81612888565b600083118015610dee5750600483105b610e2d576040517f08c379a0000000000000000000000000000000000000000000000000000000008152600401610e2490615181565b60405180910390fd5b6000825111610e71576040517f08c379a0000000000000000000000000000000000000000000000000000000008152600401610e6890614f41565b60405180910390fd5b81601960008581526020019081526020016000209080519060200190610e98929190613f12565b5081604051610ea79190614c2f565b6040518091039020837f89e510b22312e6f4ff982989120ff8ae6fc80b4d85a6b5438e548528f6a1decb60405160405180910390a3505050565b610ef2610eec6127c7565b8261289c565b610f31576040517f08c379a0000000000000000000000000000000000000000000000000000000008152600401610f2890614e41565b60405180910390fd5b610f3c838383612931565b505050565b600060066000838152602001908152602001600020600101549050919050565b6000801b610f6e81612888565b60006003905060005b81811015611020576000858583818110610f9457610f936155da565b5b905060200201351415610fdc576040517f08c379a0000000000000000000000000000000000000000000000000000000008152600401610fd390614f61565b60405180910390fd5b848482818110610fef57610fee6155da565b5b905060200201356010826003811061100a576110096155da565b5b01819055508061101990615504565b9050610f77565b508383604051611031929190614c16565b60405180910390207f2f89c0799e9cf5d801cd01b7621cb5d4661d47a30fb789a007ddaea4f646707260405160405180910390a250505050565b60008082141561107f57600d5490506110e0565b600182141561109257600e5490506110e0565b60028214156110a557600f5490506110e0565b6040517f08c379a00000000000000000000000000000000000000000000000000000000081526004016110d790615101565b60405180910390fd5b919050565b600060075482101580156110fb57506008548211155b156111095760019050611188565b600954821015801561111d5750600a548211155b1561112b5760029050611188565b600b54821015801561113f5750600c548211155b1561114d5760039050611188565b6040517f08c379a000000000000000000000000000000000000000000000000000000000815260040161117f90615101565b60405180910390fd5b919050565b61119682610f41565b61119f81612888565b6111a98383612c2b565b505050565b6111b66127c7565b73ffffffffffffffffffffffffffffffffffffffff168173ffffffffffffffffffffffffffffffffffffffff1614611223576040517f08c379a000000000000000000000000000000000000000000000000000000000815260040161121a906151a1565b60405180910390fd5b61122d8282612d0c565b5050565b6000801b61123e81612888565b81601760156101000a81548160ff0219169083151502179055508115157f368ceb084b2d3316aefae13a4993c281ff684148bf76acd73f6e5c266e2ad28160405160405180910390a25050565b601760159054906101000a900460ff1681565b6112b98383836040518060200160405280600081525061236e565b505050565b6112cf6112c96127c7565b8261289c565b61130e576040517f08c379a000000000000000000000000000000000000000000000000000000000815260040161130590614e41565b60405180910390fd5b61131781612dee565b50565b600d5481565b600c5481565b600b5481565b6000801b61133981612888565b816018908051906020019061134f929190613f12565b505050565b600073ffffffffffffffffffffffffffffffffffffffff168273ffffffffffffffffffffffffffffffffffffffff1614156113c4576040517f08c379a00000000000000000000000000000000000000000000000000000000081526004016113bb90614e81565b60405180910390fd5b60008114156113d257611574565b80601660009054906101000a900473ffffffffffffffffffffffffffffffffffffffff1673ffffffffffffffffffffffffffffffffffffffff1663dd62ed3e85306040518363ffffffff1660e01b8152600401611430929190614ce2565b60206040518083038186803b15801561144857600080fd5b505afa15801561145c573d6000803e3d6000fd5b505050506040513d601f19601f82011682018060405250810190611480919061453a565b10156114c1576040517f08c379a00000000000000000000000000000000000000000000000000000000081526004016114b890614fc1565b60405180910390fd5b601660009054906101000a900473ffffffffffffffffffffffffffffffffffffffff1673ffffffffffffffffffffffffffffffffffffffff166323b872dd8484846040518463ffffffff1660e01b815260040161152093929190614d0b565b602060405180830381600087803b15801561153a57600080fd5b505af115801561154e573d6000803e3d6000fd5b505050506040513d601f19601f8201168201806040525081019061157291906143d0565b505b505050565b60095481565b60008061158b83612f3c565b9050600073ffffffffffffffffffffffffffffffffffffffff168173ffffffffffffffffffffffffffffffffffffffff1614156115fd576040517f08c379a00000000000000000000000000000000000000000000000000000000081526004016115f490615081565b60405180910390fd5b80915050919050565b6000801b61161381612888565b600073ffffffffffffffffffffffffffffffffffffffff168273ffffffffffffffffffffffffffffffffffffffff161415611683576040517f08c379a000000000000000000000000000000000000000000000000000000000815260040161167a90614f81565b60405180910390fd5b81601660006101000a81548173ffffffffffffffffffffffffffffffffffffffff021916908373ffffffffffffffffffffffffffffffffffffffff1602179055507fe80e72dd496f25f712ddf45e51738bf836b5b28d255c936d0eddcdbad5fad6c3826040516116f39190614cc7565b60405180910390a15050565b600a5481565b6000601760159054906101000a900460ff16905090565b60188054611729906154a1565b80601f0160208091040260200160405190810160405280929190818152602001828054611755906154a1565b80156117a25780601f10611777576101008083540402835291602001916117a2565b820191906000526020600020905b81548152906001019060200180831161178557829003601f168201915b505050505081565b6000601082600381106117c0576117bf6155da565b5b01549050919050565b601960205280600052604060002060009150905080546117e8906154a1565b80601f0160208091040260200160405190810160405280929190818152602001828054611814906154a1565b80156118615780601f1061183657610100808354040283529160200191611861565b820191906000526020600020905b81548152906001019060200180831161184457829003601f168201915b505050505081565b60008073ffffffffffffffffffffffffffffffffffffffff168273ffffffffffffffffffffffffffffffffffffffff1614156118da576040517f08c379a00000000000000000000000000000000000000000000000000000000081526004016118d190614fa1565b60405180910390fd5b600360008373ffffffffffffffffffffffffffffffffffffffff1673ffffffffffffffffffffffffffffffffffffffff168152602001908152602001600020549050919050565b606060188054611930906154a1565b80601f016020809104026020016040519081016040528092919081815260200182805461195c906154a1565b80156119a95780601f1061197e576101008083540402835291602001916119a9565b820191906000526020600020905b81548152906001019060200180831161198c57829003601f168201915b5050505050905090565b600073ffffffffffffffffffffffffffffffffffffffff168173ffffffffffffffffffffffffffffffffffffffff161415611a23576040517f08c379a0000000000000000000000000000000000000000000000000000000008152600401611a1a90615141565b60405180910390fd5b600a54600e541115611a6a576040517f08c379a0000000000000000000000000000000000000000000000000000000008152600401611a6190615121565b60405180910390fd5b6000600e5490506009548110158015611a855750600a548111155b611ac4576040517f08c379a0000000000000000000000000000000000000000000000000000000008152600401611abb90615041565b60405180910390fd5b611ace8282611e9c565b6001600e54611add91906152d1565b600e819055505050565b601660009054906101000a900473ffffffffffffffffffffffffffffffffffffffff1681565b60138160038110611b1d57600080fd5b016000915090505481565b6000801b611b3581612888565b60008311611b78576040517f08c379a0000000000000000000000000000000000000000000000000000000008152600401611b6f90615161565b60405180910390fd5b828211611bba576040517f08c379a0000000000000000000000000000000000000000000000000000000008152600401611bb190615021565b60405180910390fd5b6001600d5410611bc957600080fd5b6001600e5410611bd857600080fd5b6001600f5410611be757600080fd5b8260078190555081600881905550600754600d819055506001600854611c0d91906152d1565b600981905550600282611c209190615327565b600a81905550600954600e819055506001600a54611c3e91906152d1565b600b81905550600382611c519190615327565b600c81905550600b54600f81905550505050565b60006006600084815260200190815260200160002060000160008373ffffffffffffffffffffffffffffffffffffffff1673ffffffffffffffffffffffffffffffffffffffff16815260200190815260200160002060009054906101000a900460ff16905092915050565b606060018054611cdf906154a1565b80601f0160208091040260200160405190810160405280929190818152602001828054611d0b906154a1565b8015611d585780601f10611d2d57610100808354040283529160200191611d58565b820191906000526020600020905b815481529060010190602001808311611d3b57829003601f168201915b5050505050905090565b60085481565b600073ffffffffffffffffffffffffffffffffffffffff168173ffffffffffffffffffffffffffffffffffffffff161415611dd8576040517f08c379a0000000000000000000000000000000000000000000000000000000008152600401611dcf90615141565b60405180910390fd5b600c54600f541115611e1f576040517f08c379a0000000000000000000000000000000000000000000000000000000008152600401611e16906150e1565b60405180910390fd5b6000600f549050600b548110158015611e3a5750600c548111155b611e79576040517f08c379a0000000000000000000000000000000000000000000000000000000008152600401611e7090614e21565b60405180910390fd5b611e838282611e9c565b6001600f54611e9291906152d1565b600f819055505050565b611ea581612f79565b611ed67f9f2df0fed2c77648de5860a4cc508cd0818c85b8b8a1ab4ceeef8d981c8956a6611ed16127c7565b611c65565b15611eea57611ee58282613005565b612027565b601760159054906101000a900460ff1615611feb57601760149054906101000a900460ff1615611fdb576000611f1f82612287565b9050611f4e33601760009054906101000a900473ffffffffffffffffffffffffffffffffffffffff1683611354565b80601760009054906101000a900473ffffffffffffffffffffffffffffffffffffffff1673ffffffffffffffffffffffffffffffffffffffff163373ffffffffffffffffffffffffffffffffffffffff167fe85e14b969bb775b4056348e1a8b33b3329738b1fbf3455091825f3370efd8a860405160405180910390a4611fd58383613005565b50611fe6565b611fe58282613005565b5b612026565b6040517f08c379a000000000000000000000000000000000000000000000000000000000815260040161201d906151c1565b60405180910390fd5b5b5050565b6000801b81565b61204461203d6127c7565b8383613023565b5050565b6000801b61205581612888565b600073ffffffffffffffffffffffffffffffffffffffff168273ffffffffffffffffffffffffffffffffffffffff1614156120c5576040517f08c379a00000000000000000000000000000000000000000000000000000000081526004016120bc90615061565b60405180910390fd5b81601760006101000a81548173ffffffffffffffffffffffffffffffffffffffff021916908373ffffffffffffffffffffffffffffffffffffffff1602179055508173ffffffffffffffffffffffffffffffffffffffff167f5b3a6d9c65a2724eb803a0a5c54acff6e6805eaa888cf4609baad4266c06fa9060405160405180910390a25050565b600073ffffffffffffffffffffffffffffffffffffffff168173ffffffffffffffffffffffffffffffffffffffff1614156121bd576040517f08c379a00000000000000000000000000000000000000000000000000000000081526004016121b490615141565b60405180910390fd5b600854600d541115612204576040517f08c379a00000000000000000000000000000000000000000000000000000000081526004016121fb90615001565b60405180910390fd5b6000600d549050600754811015801561221f57506008548111155b61225e576040517f08c379a000000000000000000000000000000000000000000000000000000000815260040161225590614ee1565b60405180910390fd5b6122688282611e9c565b6001600d5461227791906152d1565b600d819055505050565b600f5481565b6000600754821015801561229d57506008548211155b156122c05760106000600381106122b7576122b66155da565b5b01549050612369565b60095482101580156122d45750600a548211155b156122f75760106001600381106122ee576122ed6155da565b5b01549050612369565b600b54821015801561230b5750600c548211155b1561232e576010600260038110612325576123246155da565b5b01549050612369565b6040517f08c379a000000000000000000000000000000000000000000000000000000000815260040161236090615101565b60405180910390fd5b919050565b61237f6123796127c7565b8361289c565b6123be576040517f08c379a00000000000000000000000000000000000000000000000000000000081526004016123b590614e41565b60405180910390fd5b6123ca84848484613190565b50505050565b600060075482101580156123e657506008548211155b15612409576013600060038110612400576123ff6155da565b5b015490506124b2565b600954821015801561241d5750600a548211155b15612440576013600160038110612437576124366155da565b5b015490506124b2565b600b5482101580156124545750600c548211155b1561247757601360026003811061246e5761246d6155da565b5b015490506124b2565b6040517f08c379a00000000000000000000000000000000000000000000000000000000081526004016124a990615101565b60405180910390fd5b919050565b601760009054906101000a900473ffffffffffffffffffffffffffffffffffffffff1681565b60606124e88261277c565b60006124f3836131ec565b905060006124ff611921565b9050600060188054612510906154a1565b9050118015612520575060008251115b6125395760405180602001604052806000815250612566565b80826125448661342d565b60405160200161255693929190614c46565b6040516020818303038152906040525b92505050919050565b7f9f2df0fed2c77648de5860a4cc508cd0818c85b8b8a1ab4ceeef8d981c8956a681565b61259c82610f41565b6125a581612888565b6125af8383612d0c565b505050565b601760149054906101000a900460ff1681565b601081600381106125d757600080fd5b016000915090505481565b6000600560008473ffffffffffffffffffffffffffffffffffffffff1673ffffffffffffffffffffffffffffffffffffffff16815260200190815260200160002060008373ffffffffffffffffffffffffffffffffffffffff1673ffffffffffffffffffffffffffffffffffffffff16815260200190815260200160002060009054906101000a900460ff16905092915050565b6000601760149054906101000a900460ff16905090565b60075481565b6000801b6126a081612888565b81601760146101000a81548160ff021916908315150217905550601760149054906101000a900460ff1615157f78b87335d0826fba9cf6ec712ed7df4946ed38764f50bf97477daa0255642c6a60405160405180910390a25050565b600e5481565b60007f7965db0b000000000000000000000000000000000000000000000000000000007bffffffffffffffffffffffffffffffffffffffffffffffffffffffff1916827bffffffffffffffffffffffffffffffffffffffffffffffffffffffff19161480612775575061277482613505565b5b9050919050565b612785816135e7565b6127c4576040517f08c379a00000000000000000000000000000000000000000000000000000000081526004016127bb90615081565b60405180910390fd5b50565b600033905090565b816004600083815260200190815260200160002060006101000a81548173ffffffffffffffffffffffffffffffffffffffff021916908373ffffffffffffffffffffffffffffffffffffffff160217905550808273ffffffffffffffffffffffffffffffffffffffff166128428361157f565b73ffffffffffffffffffffffffffffffffffffffff167f8c5be1e5ebec7d5bd14f71427d1e84f3dd0314c0f7b2291e5b200ac8c7c3b92560405160405180910390a45050565b612899816128946127c7565b613628565b50565b6000806128a88361157f565b90508073ffffffffffffffffffffffffffffffffffffffff168473ffffffffffffffffffffffffffffffffffffffff1614806128ea57506128e981856125e2565b5b8061292857508373ffffffffffffffffffffffffffffffffffffffff1661291084610c49565b73ffffffffffffffffffffffffffffffffffffffff16145b91505092915050565b8273ffffffffffffffffffffffffffffffffffffffff166129518261157f565b73ffffffffffffffffffffffffffffffffffffffff16146129a7576040517f08c379a000000000000000000000000000000000000000000000000000000000815260040161299e90614ea1565b60405180910390fd5b600073ffffffffffffffffffffffffffffffffffffffff168273ffffffffffffffffffffffffffffffffffffffff161415612a17576040517f08c379a0000000000000000000000000000000000000000000000000000000008152600401612a0e90614f01565b60405180910390fd5b612a2483838360016136ad565b8273ffffffffffffffffffffffffffffffffffffffff16612a448261157f565b73ffffffffffffffffffffffffffffffffffffffff1614612a9a576040517f08c379a0000000000000000000000000000000000000000000000000000000008152600401612a9190614ea1565b60405180910390fd5b6004600082815260200190815260200160002060006101000a81549073ffffffffffffffffffffffffffffffffffffffff02191690556001600360008573ffffffffffffffffffffffffffffffffffffffff1673ffffffffffffffffffffffffffffffffffffffff168152602001908152602001600020600082825403925050819055506001600360008473ffffffffffffffffffffffffffffffffffffffff1673ffffffffffffffffffffffffffffffffffffffff16815260200190815260200160002060008282540192505081905550816002600083815260200190815260200160002060006101000a81548173ffffffffffffffffffffffffffffffffffffffff021916908373ffffffffffffffffffffffffffffffffffffffff160217905550808273ffffffffffffffffffffffffffffffffffffffff168473ffffffffffffffffffffffffffffffffffffffff167fddf252ad1be2c89b69c2b068fc378daa952ba7f163c4a11628f55a4df523b3ef60405160405180910390a4612c2683838360016136b3565b505050565b612c358282611c65565b612d085760016006600084815260200190815260200160002060000160008373ffffffffffffffffffffffffffffffffffffffff1673ffffffffffffffffffffffffffffffffffffffff16815260200190815260200160002060006101000a81548160ff021916908315150217905550612cad6127c7565b73ffffffffffffffffffffffffffffffffffffffff168173ffffffffffffffffffffffffffffffffffffffff16837f2f8788117e7eff1d82e926ec794901d17c78024a50270940304540a733656f0d60405160405180910390a45b5050565b612d168282611c65565b15612dea5760006006600084815260200190815260200160002060000160008373ffffffffffffffffffffffffffffffffffffffff1673ffffffffffffffffffffffffffffffffffffffff16815260200190815260200160002060006101000a81548160ff021916908315150217905550612d8f6127c7565b73ffffffffffffffffffffffffffffffffffffffff168173ffffffffffffffffffffffffffffffffffffffff16837ff6391f5c32d9c69d2a47ea670b442974b53935d1edc7fd64eb21e047a839171b60405160405180910390a45b5050565b6000612df98261157f565b9050612e098160008460016136ad565b612e128261157f565b90506004600083815260200190815260200160002060006101000a81549073ffffffffffffffffffffffffffffffffffffffff02191690556001600360008373ffffffffffffffffffffffffffffffffffffffff1673ffffffffffffffffffffffffffffffffffffffff168152602001908152602001600020600082825403925050819055506002600083815260200190815260200160002060006101000a81549073ffffffffffffffffffffffffffffffffffffffff021916905581600073ffffffffffffffffffffffffffffffffffffffff168273ffffffffffffffffffffffffffffffffffffffff167fddf252ad1be2c89b69c2b068fc378daa952ba7f163c4a11628f55a4df523b3ef60405160405180910390a4612f388160008460016136b3565b5050565b60006002600083815260200190815260200160002060009054906101000a900473ffffffffffffffffffffffffffffffffffffffff169050919050565b6007548110158015612f8d57506008548111155b80612fa857506009548110158015612fa75750600a548111155b5b80612fc35750600b548110158015612fc25750600c548111155b5b613002576040517f08c379a0000000000000000000000000000000000000000000000000000000008152600401612ff990615101565b60405180910390fd5b50565b61301f8282604051806020016040528060008152506136b9565b5050565b8173ffffffffffffffffffffffffffffffffffffffff168373ffffffffffffffffffffffffffffffffffffffff161415613092576040517f08c379a000000000000000000000000000000000000000000000000000000000815260040161308990614f21565b60405180910390fd5b80600560008573ffffffffffffffffffffffffffffffffffffffff1673ffffffffffffffffffffffffffffffffffffffff16815260200190815260200160002060008473ffffffffffffffffffffffffffffffffffffffff1673ffffffffffffffffffffffffffffffffffffffff16815260200190815260200160002060006101000a81548160ff0219169083151502179055508173ffffffffffffffffffffffffffffffffffffffff168373ffffffffffffffffffffffffffffffffffffffff167f17307eab39ab6107e8899845ad3d59bd9653f200f220920489ca2b5937696c31836040516131839190614d8e565b60405180910390a3505050565b61319b848484612931565b6131a784848484613714565b6131e6576040517f08c379a00000000000000000000000000000000000000000000000000000000081526004016131dd90614e61565b60405180910390fd5b50505050565b606080600754831015801561320357506008548311155b156132ac5760196000600181526020019081526020016000208054613227906154a1565b80601f0160208091040260200160405190810160405280929190818152602001828054613253906154a1565b80156132a05780601f10613275576101008083540402835291602001916132a0565b820191906000526020600020905b81548152906001019060200180831161328357829003601f168201915b50505050509050613424565b60095483101580156132c05750600a548311155b1561336957601960006002815260200190815260200160002080546132e4906154a1565b80601f0160208091040260200160405190810160405280929190818152602001828054613310906154a1565b801561335d5780601f106133325761010080835404028352916020019161335d565b820191906000526020600020905b81548152906001019060200180831161334057829003601f168201915b50505050509050613423565b600b54831015801561337d5750600c548311155b1561342257601960006003815260200190815260200160002080546133a1906154a1565b80601f01602080910402602001604051908101604052809291908181526020018280546133cd906154a1565b801561341a5780601f106133ef5761010080835404028352916020019161341a565b820191906000526020600020905b8154815290600101906020018083116133fd57829003601f168201915b505050505090505b5b5b80915050919050565b60606000600161343c846138ab565b01905060008167ffffffffffffffff81111561345b5761345a615609565b5b6040519080825280601f01601f19166020018201604052801561348d5781602001600182028036833780820191505090505b509050600082602001820190505b6001156134fa578080600190039150507f3031323334353637383961626364656600000000000000000000000000000000600a86061a8153600a85816134e4576134e361557c565b5b04945060008514156134f5576134fa565b61349b565b819350505050919050565b60007f80ac58cd000000000000000000000000000000000000000000000000000000007bffffffffffffffffffffffffffffffffffffffffffffffffffffffff1916827bffffffffffffffffffffffffffffffffffffffffffffffffffffffff191614806135d057507f5b5e139f000000000000000000000000000000000000000000000000000000007bffffffffffffffffffffffffffffffffffffffffffffffffffffffff1916827bffffffffffffffffffffffffffffffffffffffffffffffffffffffff1916145b806135e057506135df826139fe565b5b9050919050565b60008073ffffffffffffffffffffffffffffffffffffffff1661360983612f3c565b73ffffffffffffffffffffffffffffffffffffffff1614159050919050565b6136328282611c65565b6136a95761363f81613a68565b61364d8360001c6020613a95565b60405160200161365e929190614c8d565b6040516020818303038152906040526040517f08c379a00000000000000000000000000000000000000000000000000000000081526004016136a09190614ddf565b60405180910390fd5b5050565b50505050565b50505050565b6136c38383613cd1565b6136d06000848484613714565b61370f576040517f08c379a000000000000000000000000000000000000000000000000000000000815260040161370690614e61565b60405180910390fd5b505050565b60006137358473ffffffffffffffffffffffffffffffffffffffff16613eef565b1561389e578373ffffffffffffffffffffffffffffffffffffffff1663150b7a0261375e6127c7565b8786866040518563ffffffff1660e01b81526004016137809493929190614d42565b602060405180830381600087803b15801561379a57600080fd5b505af19250505080156137cb57506040513d601f19601f820116820180604052508101906137c89190614497565b60015b61384e573d80600081146137fb576040519150601f19603f3d011682016040523d82523d6000602084013e613800565b606091505b50600081511415613846576040517f08c379a000000000000000000000000000000000000000000000000000000000815260040161383d90614e61565b60405180910390fd5b805181602001fd5b63150b7a0260e01b7bffffffffffffffffffffffffffffffffffffffffffffffffffffffff1916817bffffffffffffffffffffffffffffffffffffffffffffffffffffffff1916149150506138a3565b600190505b949350505050565b600080600090507a184f03e93ff9f4daa797ed6e38ed64bf6a1f0100000000000000008310613909577a184f03e93ff9f4daa797ed6e38ed64bf6a1f01000000000000000083816138ff576138fe61557c565b5b0492506040810190505b6d04ee2d6d415b85acef81000000008310613946576d04ee2d6d415b85acef8100000000838161393c5761393b61557c565b5b0492506020810190505b662386f26fc10000831061397557662386f26fc10000838161396b5761396a61557c565b5b0492506010810190505b6305f5e100831061399e576305f5e10083816139945761399361557c565b5b0492506008810190505b61271083106139c35761271083816139b9576139b861557c565b5b0492506004810190505b606483106139e657606483816139dc576139db61557c565b5b0492506002810190505b600a83106139f5576001810190505b80915050919050565b60007f01ffc9a7000000000000000000000000000000000000000000000000000000007bffffffffffffffffffffffffffffffffffffffffffffffffffffffff1916827bffffffffffffffffffffffffffffffffffffffffffffffffffffffff1916149050919050565b6060613a8e8273ffffffffffffffffffffffffffffffffffffffff16601460ff16613a95565b9050919050565b606060006002836002613aa89190615327565b613ab291906152d1565b67ffffffffffffffff811115613acb57613aca615609565b5b6040519080825280601f01601f191660200182016040528015613afd5781602001600182028036833780820191505090505b5090507f300000000000000000000000000000000000000000000000000000000000000081600081518110613b3557613b346155da565b5b60200101907effffffffffffffffffffffffffffffffffffffffffffffffffffffffffffff1916908160001a9053507f780000000000000000000000000000000000000000000000000000000000000081600181518110613b9957613b986155da565b5b60200101907effffffffffffffffffffffffffffffffffffffffffffffffffffffffffffff1916908160001a90535060006001846002613bd99190615327565b613be391906152d1565b90505b6001811115613c83577f3031323334353637383961626364656600000000000000000000000000000000600f861660108110613c2557613c246155da565b5b1a60f81b828281518110613c3c57613c3b6155da565b5b60200101907effffffffffffffffffffffffffffffffffffffffffffffffffffffffffffff1916908160001a905350600485901c945080613c7c90615477565b9050613be6565b5060008414613cc7576040517f08c379a0000000000000000000000000000000000000000000000000000000008152600401613cbe90614e01565b60405180910390fd5b8091505092915050565b600073ffffffffffffffffffffffffffffffffffffffff168273ffffffffffffffffffffffffffffffffffffffff161415613d41576040517f08c379a0000000000000000000000000000000000000000000000000000000008152600401613d3890614fe1565b60405180910390fd5b613d4a816135e7565b15613d8a576040517f08c379a0000000000000000000000000000000000000000000000000000000008152600401613d8190614ec1565b60405180910390fd5b613d986000838360016136ad565b613da1816135e7565b15613de1576040517f08c379a0000000000000000000000000000000000000000000000000000000008152600401613dd890614ec1565b60405180910390fd5b6001600360008473ffffffffffffffffffffffffffffffffffffffff1673ffffffffffffffffffffffffffffffffffffffff16815260200190815260200160002060008282540192505081905550816002600083815260200190815260200160002060006101000a81548173ffffffffffffffffffffffffffffffffffffffff021916908373ffffffffffffffffffffffffffffffffffffffff160217905550808273ffffffffffffffffffffffffffffffffffffffff16600073ffffffffffffffffffffffffffffffffffffffff167fddf252ad1be2c89b69c2b068fc378daa952ba7f163c4a11628f55a4df523b3ef60405160405180910390a4613eeb6000838360016136b3565b5050565b6000808273ffffffffffffffffffffffffffffffffffffffff163b119050919050565b828054613f1e906154a1565b90600052602060002090601f016020900481019282613f405760008555613f87565b82601f10613f5957805160ff1916838001178555613f87565b82800160010185558215613f87579182015b82811115613f86578251825591602001919060010190613f6b565b5b509050613f949190613f98565b5090565b5b80821115613fb1576000816000905550600101613f99565b5090565b6000613fc8613fc384615221565b6151fc565b905082815260208101848484011115613fe457613fe3615647565b5b613fef848285615435565b509392505050565b600061400a61400584615252565b6151fc565b90508281526020810184848401111561402657614025615647565b5b614031848285615435565b509392505050565b60008135905061404881615df5565b92915050565b60008083601f8401126140645761406361563d565b5b8235905067ffffffffffffffff81111561408157614080615638565b5b60208301915083602082028301111561409d5761409c615642565b5b9250929050565b6000813590506140b381615e0c565b92915050565b6000815190506140c881615e0c565b92915050565b6000813590506140dd81615e23565b92915050565b6000813590506140f281615e3a565b92915050565b60008151905061410781615e3a565b92915050565b600082601f8301126141225761412161563d565b5b8135614132848260208601613fb5565b91505092915050565b600082601f8301126141505761414f61563d565b5b8135614160848260208601613ff7565b91505092915050565b60008135905061417881615e51565b92915050565b60008151905061418d81615e51565b92915050565b6000602082840312156141a9576141a8615656565b5b60006141b784828501614039565b91505092915050565b600080604083850312156141d7576141d6615656565b5b60006141e585828601614039565b92505060206141f685828601614039565b9150509250929050565b60008060006060848603121561421957614218615656565b5b600061422786828701614039565b935050602061423886828701614039565b925050604061424986828701614169565b9150509250925092565b6000806000806080858703121561426d5761426c615656565b5b600061427b87828801614039565b945050602061428c87828801614039565b935050604061429d87828801614169565b925050606085013567ffffffffffffffff8111156142be576142bd61564c565b5b6142ca8782880161410d565b91505092959194509250565b600080604083850312156142ed576142ec615656565b5b60006142fb85828601614039565b925050602061430c858286016140a4565b9150509250929050565b6000806040838503121561432d5761432c615656565b5b600061433b85828601614039565b925050602061434c85828601614169565b9150509250929050565b6000806020838503121561436d5761436c615656565b5b600083013567ffffffffffffffff81111561438b5761438a61564c565b5b6143978582860161404e565b92509250509250929050565b6000602082840312156143b9576143b8615656565b5b60006143c7848285016140a4565b91505092915050565b6000602082840312156143e6576143e5615656565b5b60006143f4848285016140b9565b91505092915050565b60006020828403121561441357614412615656565b5b6000614421848285016140ce565b91505092915050565b6000806040838503121561444157614440615656565b5b600061444f858286016140ce565b925050602061446085828601614039565b9150509250929050565b6000602082840312156144805761447f615656565b5b600061448e848285016140e3565b91505092915050565b6000602082840312156144ad576144ac615656565b5b60006144bb848285016140f8565b91505092915050565b6000602082840312156144da576144d9615656565b5b600082013567ffffffffffffffff8111156144f8576144f761564c565b5b6145048482850161413b565b91505092915050565b60006020828403121561452357614522615656565b5b600061453184828501614169565b91505092915050565b6000602082840312156145505761454f615656565b5b600061455e8482850161417e565b91505092915050565b6000806040838503121561457e5761457d615656565b5b600061458c85828601614169565b925050602083013567ffffffffffffffff8111156145ad576145ac61564c565b5b6145b98582860161413b565b9150509250929050565b600080604083850312156145da576145d9615656565b5b60006145e885828601614169565b92505060206145f985828601614169565b9150509250929050565b61460c81615381565b82525050565b600061461e8385615299565b93507f07ffffffffffffffffffffffffffffffffffffffffffffffffffffffffffffff83111561465157614650615651565b5b602083029250614662838584615435565b82840190509392505050565b61467781615393565b82525050565b6146868161539f565b82525050565b600061469782615283565b6146a181856152a4565b93506146b1818560208601615444565b6146ba8161565b565b840191505092915050565b6146ce816153ff565b82525050565b60006146df8261528e565b6146e981856152b5565b93506146f9818560208601615444565b6147028161565b565b840191505092915050565b60006147188261528e565b61472281856152c6565b9350614732818560208601615444565b80840191505092915050565b600061474b6020836152b5565b91506147568261566c565b602082019050919050565b600061476e6017836152b5565b915061477982615695565b602082019050919050565b6000614791602d836152b5565b915061479c826156be565b604082019050919050565b60006147b46032836152b5565b91506147bf8261570d565b604082019050919050565b60006147d76020836152b5565b91506147e28261575c565b602082019050919050565b60006147fa6025836152b5565b915061480582615785565b604082019050919050565b600061481d601c836152b5565b9150614828826157d4565b602082019050919050565b60006148406015836152b5565b915061484b826157fd565b602082019050919050565b60006148636024836152b5565b915061486e82615826565b604082019050919050565b60006148866019836152b5565b915061489182615875565b602082019050919050565b60006148a9601b836152b5565b91506148b48261589e565b602082019050919050565b60006148cc6013836152b5565b91506148d7826158c7565b602082019050919050565b60006148ef601f836152b5565b91506148fa826158f0565b602082019050919050565b60006149126029836152b5565b915061491d82615919565b604082019050919050565b6000614935601c836152b5565b915061494082615968565b602082019050919050565b60006149586020836152b5565b915061496382615991565b602082019050919050565b600061497b6005836152c6565b9150614986826159ba565b600582019050919050565b600061499e6024836152b5565b91506149a9826159e3565b604082019050919050565b60006149c1603f836152b5565b91506149cc82615a32565b604082019050919050565b60006149e46015836152b5565b91506149ef82615a81565b602082019050919050565b6000614a076021836152b5565b9150614a1282615aaa565b604082019050919050565b6000614a2a6018836152b5565b9150614a3582615af9565b602082019050919050565b6000614a4d6021836152b5565b9150614a5882615b22565b604082019050919050565b6000614a70603d836152b5565b9150614a7b82615b71565b604082019050919050565b6000614a936026836152b5565b9150614a9e82615bc0565b604082019050919050565b6000614ab6600f836152b5565b9150614ac182615c0f565b602082019050919050565b6000614ad96024836152b5565b9150614ae482615c38565b604082019050919050565b6000614afc6017836152c6565b9150614b0782615c87565b601782019050919050565b6000614b1f601c836152b5565b9150614b2a82615cb0565b602082019050919050565b6000614b42601c836152b5565b9150614b4d82615cd9565b602082019050919050565b6000614b656011836152c6565b9150614b7082615d02565b601182019050919050565b6000614b886011836152b5565b9150614b9382615d2b565b602082019050919050565b6000614bab602f836152b5565b9150614bb682615d54565b604082019050919050565b6000614bce6001836152c6565b9150614bd982615da3565b600182019050919050565b6000614bf16014836152b5565b9150614bfc82615dcc565b602082019050919050565b614c10816153f5565b82525050565b6000614c23828486614612565b91508190509392505050565b6000614c3b828461470d565b915081905092915050565b6000614c52828661470d565b9150614c5e828561470d565b9150614c6982614bc1565b9150614c75828461470d565b9150614c808261496e565b9150819050949350505050565b6000614c9882614aef565b9150614ca4828561470d565b9150614caf82614b58565b9150614cbb828461470d565b91508190509392505050565b6000602082019050614cdc6000830184614603565b92915050565b6000604082019050614cf76000830185614603565b614d046020830184614603565b9392505050565b6000606082019050614d206000830186614603565b614d2d6020830185614603565b614d3a6040830184614c07565b949350505050565b6000608082019050614d576000830187614603565b614d646020830186614603565b614d716040830185614c07565b8181036060830152614d83818461468c565b905095945050505050565b6000602082019050614da3600083018461466e565b92915050565b6000602082019050614dbe600083018461467d565b92915050565b6000602082019050614dd960008301846146c5565b92915050565b60006020820190508181036000830152614df981846146d4565b905092915050565b60006020820190508181036000830152614e1a8161473e565b9050919050565b60006020820190508181036000830152614e3a81614761565b9050919050565b60006020820190508181036000830152614e5a81614784565b9050919050565b60006020820190508181036000830152614e7a816147a7565b9050919050565b60006020820190508181036000830152614e9a816147ca565b9050919050565b60006020820190508181036000830152614eba816147ed565b9050919050565b60006020820190508181036000830152614eda81614810565b9050919050565b60006020820190508181036000830152614efa81614833565b9050919050565b60006020820190508181036000830152614f1a81614856565b9050919050565b60006020820190508181036000830152614f3a81614879565b9050919050565b60006020820190508181036000830152614f5a8161489c565b9050919050565b60006020820190508181036000830152614f7a816148bf565b9050919050565b60006020820190508181036000830152614f9a816148e2565b9050919050565b60006020820190508181036000830152614fba81614905565b9050919050565b60006020820190508181036000830152614fda81614928565b9050919050565b60006020820190508181036000830152614ffa8161494b565b9050919050565b6000602082019050818103600083015261501a81614991565b9050919050565b6000602082019050818103600083015261503a816149b4565b9050919050565b6000602082019050818103600083015261505a816149d7565b9050919050565b6000602082019050818103600083015261507a816149fa565b9050919050565b6000602082019050818103600083015261509a81614a1d565b9050919050565b600060208201905081810360008301526150ba81614a40565b9050919050565b600060208201905081810360008301526150da81614a63565b9050919050565b600060208201905081810360008301526150fa81614a86565b9050919050565b6000602082019050818103600083015261511a81614aa9565b9050919050565b6000602082019050818103600083015261513a81614acc565b9050919050565b6000602082019050818103600083015261515a81614b12565b9050919050565b6000602082019050818103600083015261517a81614b35565b9050919050565b6000602082019050818103600083015261519a81614b7b565b9050919050565b600060208201905081810360008301526151ba81614b9e565b9050919050565b600060208201905081810360008301526151da81614be4565b9050919050565b60006020820190506151f66000830184614c07565b92915050565b6000615206615217565b905061521282826154d3565b919050565b6000604051905090565b600067ffffffffffffffff82111561523c5761523b615609565b5b6152458261565b565b9050602081019050919050565b600067ffffffffffffffff82111561526d5761526c615609565b5b6152768261565b565b9050602081019050919050565b600081519050919050565b600081519050919050565b600081905092915050565b600082825260208201905092915050565b600082825260208201905092915050565b600081905092915050565b60006152dc826153f5565b91506152e7836153f5565b9250827fffffffffffffffffffffffffffffffffffffffffffffffffffffffffffffffff0382111561531c5761531b61554d565b5b828201905092915050565b6000615332826153f5565b915061533d836153f5565b9250817fffffffffffffffffffffffffffffffffffffffffffffffffffffffffffffffff04831182151516156153765761537561554d565b5b828202905092915050565b600061538c826153d5565b9050919050565b60008115159050919050565b6000819050919050565b60007fffffffff0000000000000000000000000000000000000000000000000000000082169050919050565b600073ffffffffffffffffffffffffffffffffffffffff82169050919050565b6000819050919050565b600061540a82615411565b9050919050565b600061541c82615423565b9050919050565b600061542e826153d5565b9050919050565b82818337600083830152505050565b60005b83811015615462578082015181840152602081019050615447565b83811115615471576000848401525b50505050565b6000615482826153f5565b915060008214156154965761549561554d565b5b600182039050919050565b600060028204905060018216806154b957607f821691505b602082108114156154cd576154cc6155ab565b5b50919050565b6154dc8261565b565b810181811067ffffffffffffffff821117156154fb576154fa615609565b5b80604052505050565b600061550f826153f5565b91507fffffffffffffffffffffffffffffffffffffffffffffffffffffffffffffffff8214156155425761554161554d565b5b600182019050919050565b7f4e487b7100000000000000000000000000000000000000000000000000000000600052601160045260246000fd5b7f4e487b7100000000000000000000000000000000000000000000000000000000600052601260045260246000fd5b7f4e487b7100000000000000000000000000000000000000000000000000000000600052602260045260246000fd5b7f4e487b7100000000000000000000000000000000000000000000000000000000600052603260045260246000fd5b7f4e487b7100000000000000000000000000000000000000000000000000000000600052604160045260246000fd5b600080fd5b600080fd5b600080fd5b600080fd5b600080fd5b600080fd5b600080fd5b6000601f19601f8301169050919050565b7f537472696e67733a20686578206c656e67746820696e73756666696369656e74600082015250565b7f476f72696c6c61204964204f7574204f662052616e6765000000000000000000600082015250565b7f4552433732313a2063616c6c6572206973206e6f7420746f6b656e206f776e6560008201527f72206f7220617070726f76656400000000000000000000000000000000000000602082015250565b7f4552433732313a207472616e7366657220746f206e6f6e20455243373231526560008201527f63656976657220696d706c656d656e7465720000000000000000000000000000602082015250565b7f43616e204e6f74205472616e7366657220546f205a65726f2041646472657373600082015250565b7f4552433732313a207472616e736665722066726f6d20696e636f72726563742060008201527f6f776e6572000000000000000000000000000000000000000000000000000000602082015250565b7f4552433732313a20746f6b656e20616c7265616479206d696e74656400000000600082015250565b7f4c656d7572204964204f7574204f662052616e67650000000000000000000000600082015250565b7f4552433732313a207472616e7366657220746f20746865207a65726f2061646460008201527f7265737300000000000000000000000000000000000000000000000000000000602082015250565b7f4552433732313a20617070726f766520746f2063616c6c657200000000000000600082015250565b7f4349442043616e204e6f7420426520456d70747920537472696e670000000000600082015250565b7f4665652043616e204e6f74204265205a65726f00000000000000000000000000600082015250565b7f416464726573732043616e204e6f74204265205a65726f204164647265737300600082015250565b7f4552433732313a2061646472657373207a65726f206973206e6f74206120766160008201527f6c6964206f776e65720000000000000000000000000000000000000000000000602082015250565b7f417070726f766520436f6e747261637420466f72205061796d656e7400000000600082015250565b7f4552433732313a206d696e7420746f20746865207a65726f2061646472657373600082015250565b7f2e6a736f6e000000000000000000000000000000000000000000000000000000600082015250565b7f4e6f206d6f7265204c656d75727320617661696c61626c6520666f72206d696e60008201527f74696e6700000000000000000000000000000000000000000000000000000000602082015250565b7f6e756d626572206f66206e66747320696e20612073696e676c6520636c61737360008201527f2073686f756c642062652067726561746572207468616e206d696e696d756d00602082015250565b7f5268696e6f204964204f7574204f662052616e67650000000000000000000000600082015250565b7f436f6c6c6563746f722043616e204e6f74204265205a65726f2041646472657360008201527f7300000000000000000000000000000000000000000000000000000000000000602082015250565b7f4552433732313a20696e76616c696420746f6b656e2049440000000000000000600082015250565b7f4552433732313a20617070726f76616c20746f2063757272656e74206f776e6560008201527f7200000000000000000000000000000000000000000000000000000000000000602082015250565b7f4552433732313a20617070726f76652063616c6c6572206973206e6f7420746f60008201527f6b656e206f776e6572206f7220617070726f76656420666f7220616c6c000000602082015250565b7f4e6f206d6f726520476f72696c6c617320617661696c61626c6520666f72206d60008201527f696e74696e670000000000000000000000000000000000000000000000000000602082015250565b7f4964204f7574204f662052616e67650000000000000000000000000000000000600082015250565b7f4e6f206d6f7265205268696e6f7320617661696c61626c6520666f72206d696e60008201527f74696e6700000000000000000000000000000000000000000000000000000000602082015250565b7f416363657373436f6e74726f6c3a206163636f756e7420000000000000000000600082015250565b7f43616e204e6f74204d696e7420546f205a65726f204164647265737300000000600082015250565b7f6d696e2073686f756c642062652067726561746572207468616e203000000000600082015250565b7f206973206d697373696e6720726f6c6520000000000000000000000000000000600082015250565b7f496e76616c69642043494420496e646578000000000000000000000000000000600082015250565b7f416363657373436f6e74726f6c3a2063616e206f6e6c792072656e6f756e636560008201527f20726f6c657320666f722073656c660000000000000000000000000000000000602082015250565b7f2f00000000000000000000000000000000000000000000000000000000000000600082015250565b7f596f752043616e204e6f74204d696e74204e6f77000000000000000000000000600082015250565b615dfe81615381565b8114615e0957600080fd5b50565b615e1581615393565b8114615e2057600080fd5b50565b615e2c8161539f565b8114615e3757600080fd5b50565b615e43816153a9565b8114615e4e57600080fd5b50565b615e5a816153f5565b8114615e6557600080fd5b5056fea26469706673582212201490f7f69a80d17d351b093672fcfd3eb50a1f3d71bb6e677af0e81791dd5a8064736f6c63430008070033",
  "linkReferences": {},
  "deployedLinkReferences": {}
}