{
  "_format": "hh-sol-artifact-1",
  "contractName": "PreSale",
  "sourceName": "contracts/PreSale.sol",
  "abi": [
    {
      "anonymous": false,
      "inputs": [],
      "name": "Pause",
      "type": "event"
    },
    {
      "anonymous": false,
      "inputs": [],
      "name": "Unpause",
      "type": "event"
    },
    {
      "anonymous": false,
      "inputs": [
        {
          "indexed": true,
          "internalType": "address",
          "name": "purchaser",
          "type": "address"
        },
        {
          "indexed": true,
          "internalType": "address",
          "name": "beneficiary",
          "type": "address"
        },
        {
          "indexed": false,
          "internalType": "uint256",
          "name": "amount",
          "type": "uint256"
        },
        {
          "indexed": false,
          "internalType": "uint256",
          "name": "investorsTokens",
          "type": "uint256"
        },
        {
          "indexed": false,
          "internalType": "uint256",
          "name": "tokens",
          "type": "uint256"
        },
        {
          "indexed": false,
          "internalType": "uint256",
          "name": "reffererTokens",
          "type": "uint256"
        }
      ],
      "name": "_buyZooTokens",
      "type": "event"
    },
    {
      "anonymous": false,
      "inputs": [
        {
          "indexed": false,
          "internalType": "uint256",
          "name": "cap",
          "type": "uint256"
        }
      ],
      "name": "_changeCap",
      "type": "event"
    },
    {
      "anonymous": false,
      "inputs": [
        {
          "indexed": false,
          "internalType": "address",
          "name": "collectorWallet",
          "type": "address"
        }
      ],
      "name": "_changeCollectorWallet",
      "type": "event"
    },
    {
      "anonymous": false,
      "inputs": [
        {
          "indexed": false,
          "internalType": "uint256",
          "name": "maxInvestment",
          "type": "uint256"
        }
      ],
      "name": "_changeMaxInvestment",
      "type": "event"
    },
    {
      "anonymous": false,
      "inputs": [
        {
          "indexed": false,
          "internalType": "uint256",
          "name": "minInvestment",
          "type": "uint256"
        }
      ],
      "name": "_changeMinInvestment",
      "type": "event"
    },
    {
      "anonymous": false,
      "inputs": [
        {
          "indexed": false,
          "internalType": "uint256",
          "name": "reffererFee",
          "type": "uint256"
        }
      ],
      "name": "_changeReffererFee",
      "type": "event"
    },
    {
      "anonymous": false,
      "inputs": [
        {
          "indexed": false,
          "internalType": "uint256",
          "name": "ZooTokenDecimal",
          "type": "uint256"
        }
      ],
      "name": "_changeZooTokenDecimal",
      "type": "event"
    },
    {
      "anonymous": false,
      "inputs": [
        {
          "indexed": false,
          "internalType": "address",
          "name": "collectorWallet",
          "type": "address"
        },
        {
          "indexed": false,
          "internalType": "uint256",
          "name": "cap",
          "type": "uint256"
        },
        {
          "indexed": false,
          "internalType": "uint256",
          "name": "rate",
          "type": "uint256"
        },
        {
          "indexed": false,
          "internalType": "uint256",
          "name": "minInvestment",
          "type": "uint256"
        },
        {
          "indexed": false,
          "internalType": "uint256",
          "name": "maxInvestment",
          "type": "uint256"
        },
        {
          "indexed": false,
          "internalType": "uint256",
          "name": "reffererFee",
          "type": "uint256"
        },
        {
          "indexed": false,
          "internalType": "uint256",
          "name": "startTime",
          "type": "uint256"
        },
        {
          "indexed": false,
          "internalType": "uint256",
          "name": "endTime",
          "type": "uint256"
        }
      ],
      "name": "_startPreSale",
      "type": "event"
    },
    {
      "anonymous": false,
      "inputs": [
        {
          "indexed": false,
          "internalType": "uint256",
          "name": "tokens",
          "type": "uint256"
        }
      ],
      "name": "_x",
      "type": "event"
    },
    {
      "inputs": [],
      "name": "USDTRaised",
      "outputs": [
        {
          "internalType": "uint256",
          "name": "",
          "type": "uint256"
        }
      ],
      "stateMutability": "view",
      "type": "function"
    },
    {
      "inputs": [],
      "name": "UsdtToken",
      "outputs": [
        {
          "internalType": "contract IUSDTToken",
          "name": "",
          "type": "address"
        }
      ],
      "stateMutability": "view",
      "type": "function"
    },
    {
      "inputs": [],
      "name": "ZooToken",
      "outputs": [
        {
          "internalType": "contract IZooToken",
          "name": "",
          "type": "address"
        }
      ],
      "stateMutability": "view",
      "type": "function"
    },
    {
      "inputs": [],
      "name": "ZooTokenDecimal",
      "outputs": [
        {
          "internalType": "uint256",
          "name": "",
          "type": "uint256"
        }
      ],
      "stateMutability": "view",
      "type": "function"
    },
    {
      "inputs": [
        {
          "internalType": "address",
          "name": "beneficiary",
          "type": "address"
        },
        {
          "internalType": "uint256",
          "name": "_inputAmount",
          "type": "uint256"
        }
      ],
      "name": "buyZooTokens",
      "outputs": [],
      "stateMutability": "nonpayable",
      "type": "function"
    },
    {
      "inputs": [],
      "name": "cap",
      "outputs": [
        {
          "internalType": "uint256",
          "name": "",
          "type": "uint256"
        }
      ],
      "stateMutability": "view",
      "type": "function"
    },
    {
      "inputs": [
        {
          "internalType": "uint256",
          "name": "_cap",
          "type": "uint256"
        }
      ],
      "name": "changeCap",
      "outputs": [],
      "stateMutability": "nonpayable",
      "type": "function"
    },
    {
      "inputs": [
        {
          "internalType": "address",
          "name": "_CollectorWallet",
          "type": "address"
        }
      ],
      "name": "changeCollectorWallet",
      "outputs": [],
      "stateMutability": "nonpayable",
      "type": "function"
    },
    {
      "inputs": [
        {
          "internalType": "uint256",
          "name": "_maxInvestment",
          "type": "uint256"
        }
      ],
      "name": "changeMaxInvestment",
      "outputs": [],
      "stateMutability": "nonpayable",
      "type": "function"
    },
    {
      "inputs": [
        {
          "internalType": "uint256",
          "name": "_minInvestment",
          "type": "uint256"
        }
      ],
      "name": "changeMinInvestment",
      "outputs": [],
      "stateMutability": "nonpayable",
      "type": "function"
    },
    {
      "inputs": [
        {
          "internalType": "uint256",
          "name": "fee",
          "type": "uint256"
        }
      ],
      "name": "changeReffererFee",
      "outputs": [],
      "stateMutability": "nonpayable",
      "type": "function"
    },
    {
      "inputs": [],
      "name": "collectorWallet",
      "outputs": [
        {
          "internalType": "address",
          "name": "",
          "type": "address"
        }
      ],
      "stateMutability": "view",
      "type": "function"
    },
    {
      "inputs": [],
      "name": "endTime",
      "outputs": [
        {
          "internalType": "uint256",
          "name": "",
          "type": "uint256"
        }
      ],
      "stateMutability": "view",
      "type": "function"
    },
    {
      "inputs": [],
      "name": "getCap",
      "outputs": [
        {
          "internalType": "uint256",
          "name": "",
          "type": "uint256"
        }
      ],
      "stateMutability": "view",
      "type": "function"
    },
    {
      "inputs": [],
      "name": "getEndTime",
      "outputs": [
        {
          "internalType": "uint256",
          "name": "",
          "type": "uint256"
        }
      ],
      "stateMutability": "view",
      "type": "function"
    },
    {
      "inputs": [],
      "name": "getMaxInvestment",
      "outputs": [
        {
          "internalType": "uint256",
          "name": "",
          "type": "uint256"
        }
      ],
      "stateMutability": "view",
      "type": "function"
    },
    {
      "inputs": [],
      "name": "getMinInvestment",
      "outputs": [
        {
          "internalType": "uint256",
          "name": "",
          "type": "uint256"
        }
      ],
      "stateMutability": "view",
      "type": "function"
    },
    {
      "inputs": [],
      "name": "getPriceOfToken",
      "outputs": [
        {
          "internalType": "uint256",
          "name": "",
          "type": "uint256"
        }
      ],
      "stateMutability": "view",
      "type": "function"
    },
    {
      "inputs": [],
      "name": "getTotalMinted",
      "outputs": [
        {
          "internalType": "uint256",
          "name": "",
          "type": "uint256"
        }
      ],
      "stateMutability": "view",
      "type": "function"
    },
    {
      "inputs": [
        {
          "internalType": "address",
          "name": "user",
          "type": "address"
        }
      ],
      "name": "getUserBalance",
      "outputs": [
        {
          "internalType": "uint256",
          "name": "",
          "type": "uint256"
        }
      ],
      "stateMutability": "view",
      "type": "function"
    },
    {
      "inputs": [],
      "name": "hasEnded",
      "outputs": [
        {
          "internalType": "bool",
          "name": "",
          "type": "bool"
        }
      ],
      "stateMutability": "view",
      "type": "function"
    },
    {
      "inputs": [],
      "name": "maxInvestment",
      "outputs": [
        {
          "internalType": "uint256",
          "name": "",
          "type": "uint256"
        }
      ],
      "stateMutability": "view",
      "type": "function"
    },
    {
      "inputs": [],
      "name": "minInvestment",
      "outputs": [
        {
          "internalType": "uint256",
          "name": "",
          "type": "uint256"
        }
      ],
      "stateMutability": "view",
      "type": "function"
    },
    {
      "inputs": [],
      "name": "mintedTokens",
      "outputs": [
        {
          "internalType": "uint256",
          "name": "",
          "type": "uint256"
        }
      ],
      "stateMutability": "view",
      "type": "function"
    },
    {
      "inputs": [],
      "name": "owner",
      "outputs": [
        {
          "internalType": "address",
          "name": "",
          "type": "address"
        }
      ],
      "stateMutability": "view",
      "type": "function"
    },
    {
      "inputs": [],
      "name": "pause",
      "outputs": [],
      "stateMutability": "nonpayable",
      "type": "function"
    },
    {
      "inputs": [],
      "name": "paused",
      "outputs": [
        {
          "internalType": "bool",
          "name": "",
          "type": "bool"
        }
      ],
      "stateMutability": "view",
      "type": "function"
    },
    {
      "inputs": [],
      "name": "rate",
      "outputs": [
        {
          "internalType": "uint256",
          "name": "",
          "type": "uint256"
        }
      ],
      "stateMutability": "view",
      "type": "function"
    },
    {
      "inputs": [],
      "name": "reffererFee",
      "outputs": [
        {
          "internalType": "uint256",
          "name": "",
          "type": "uint256"
        }
      ],
      "stateMutability": "view",
      "type": "function"
    },
    {
      "inputs": [
        {
          "internalType": "address",
          "name": "_collectorWallet",
          "type": "address"
        },
        {
          "internalType": "uint256",
          "name": "_cap",
          "type": "uint256"
        },
        {
          "internalType": "uint256",
          "name": "_rate",
          "type": "uint256"
        },
        {
          "internalType": "uint256",
          "name": "_minInvestment",
          "type": "uint256"
        },
        {
          "internalType": "uint256",
          "name": "_maxInvestment",
          "type": "uint256"
        },
        {
          "internalType": "uint256",
          "name": "_reffererFee",
          "type": "uint256"
        },
        {
          "internalType": "uint256",
          "name": "_endTime",
          "type": "uint256"
        },
        {
          "internalType": "contract IZooToken",
          "name": "_ZooToken",
          "type": "address"
        },
        {
          "internalType": "contract IUSDTToken",
          "name": "_UsdtToken",
          "type": "address"
        }
      ],
      "name": "startPreSale",
      "outputs": [],
      "stateMutability": "nonpayable",
      "type": "function"
    },
    {
      "inputs": [],
      "name": "startTime",
      "outputs": [
        {
          "internalType": "uint256",
          "name": "",
          "type": "uint256"
        }
      ],
      "stateMutability": "view",
      "type": "function"
    },
    {
      "inputs": [
        {
          "internalType": "address",
          "name": "newOwner",
          "type": "address"
        }
      ],
      "name": "transferOwnership",
      "outputs": [],
      "stateMutability": "nonpayable",
      "type": "function"
    },
    {
      "inputs": [],
      "name": "unpause",
      "outputs": [],
      "stateMutability": "nonpayable",
      "type": "function"
    },
    {
      "inputs": [
        {
          "internalType": "address",
          "name": "",
          "type": "address"
        }
      ],
      "name": "userBalance",
      "outputs": [
        {
          "internalType": "uint256",
          "name": "",
          "type": "uint256"
        }
      ],
      "stateMutability": "view",
      "type": "function"
    }
  ],
  "bytecode": "0x608060405260008060146101000a81548160ff021916908315150217905550620f4240600b5534801561003157600080fd5b50336000806101000a81548173ffffffffffffffffffffffffffffffffffffffff021916908373ffffffffffffffffffffffffffffffffffffffff160217905550612189806100816000396000f3fe608060405234801561001057600080fd5b50600436106102055760003560e01c80635e28bc831161011a5780638da5cb5b116100ad578063cff014381161007c578063cff0143814610560578063eb75bc361461057c578063ecb70fb71461059a578063f2fde38b146105b8578063f40b1ce4146105d457610205565b80638da5cb5b146104ea57806397c4f6dc146105085780639a6b1a8614610526578063a848a62a1461054257610205565b8063800edb9d116100e9578063800edb9d146104885780638456cb59146104a45780638ac2c680146104ae5780638d75fe05146104cc57610205565b80635e28bc83146104125780636f5626e11461042e578063724ae9d01461044c57806378e979251461046a57610205565b8063355274ea1161019d578063477348921161016c578063477348921461036a578063545e20b81461039a578063554d578d146103b857806359baf5fa146103d65780635c975abb146103f457610205565b8063355274ea146103085780633f4ba83a146103265780634108125314610330578063439f5ac21461034c57610205565b80630de84540116101d95780630de845401461029257806313f56f73146102b05780632c4e722e146102cc5780633197cbb6146102ea57610205565b80622e13161461020a5780630103c92b1461022857806306f913bc146102585780630ca1c5c914610274575b600080fd5b6102126105f2565b60405161021f9190611c77565b60405180910390f35b610242600480360381019061023d91906117bf565b6105f8565b60405161024f9190611c77565b60405180910390f35b610272600480360381019061026d91906117bf565b610610565b005b61027c61073f565b6040516102899190611c77565b60405180910390f35b61029a610749565b6040516102a79190611b9c565b60405180910390f35b6102ca60048036038101906102c59190611923565b61076f565b005b6102d4610819565b6040516102e19190611c77565b60405180910390f35b6102f261081f565b6040516102ff9190611c77565b60405180910390f35b610310610825565b60405161031d9190611c77565b60405180910390f35b61032e61082b565b005b61034a60048036038101906103459190611819565b6108e4565b005b610354610efb565b6040516103619190611c77565b60405180910390f35b610384600480360381019061037f91906117bf565b610f05565b6040516103919190611c77565b60405180910390f35b6103a2610f4e565b6040516103af9190611c77565b60405180910390f35b6103c0610f58565b6040516103cd9190611c77565b60405180910390f35b6103de610f62565b6040516103eb9190611c77565b60405180910390f35b6103fc610f6c565b6040516104099190611b66565b60405180910390f35b61042c60048036038101906104279190611923565b610f7f565b005b610436611028565b6040516104439190611c77565b60405180910390f35b61045461102e565b6040516104619190611c77565b60405180910390f35b610472611038565b60405161047f9190611c77565b60405180910390f35b6104a2600480360381019061049d9190611923565b61103e565b005b6104ac6110f4565b005b6104b66111af565b6040516104c39190611c77565b60405180910390f35b6104d46111b5565b6040516104e19190611c77565b60405180910390f35b6104f26111bb565b6040516104ff9190611a6d565b60405180910390f35b6105106111df565b60405161051d9190611b81565b60405180910390f35b610540600480360381019061053b9190611923565b611205565b005b61054a6112ad565b6040516105579190611a6d565b60405180910390f35b61057a60048036038101906105759190611859565b6112d3565b005b61058461162e565b6040516105919190611c77565b60405180910390f35b6105a2611634565b6040516105af9190611b66565b60405180910390f35b6105d260048036038101906105cd91906117bf565b611654565b005b6105dc611724565b6040516105e99190611c77565b60405180910390f35b60085481565b600e6020528060005260406000206000915090505481565b60008054906101000a900473ffffffffffffffffffffffffffffffffffffffff1673ffffffffffffffffffffffffffffffffffffffff163373ffffffffffffffffffffffffffffffffffffffff161461066857600080fd5b600073ffffffffffffffffffffffffffffffffffffffff168173ffffffffffffffffffffffffffffffffffffffff1614156106a257600080fd5b80600360006101000a81548173ffffffffffffffffffffffffffffffffffffffff021916908373ffffffffffffffffffffffffffffffffffffffff1602179055507f67ceae9c6b24bf1c6903aca968a7bf0a793aa732cd56f2747565037e88879446600360009054906101000a900473ffffffffffffffffffffffffffffffffffffffff166040516107349190611a6d565b60405180910390a150565b6000600654905090565b600160009054906101000a900473ffffffffffffffffffffffffffffffffffffffff1681565b60008054906101000a900473ffffffffffffffffffffffffffffffffffffffff1673ffffffffffffffffffffffffffffffffffffffff163373ffffffffffffffffffffffffffffffffffffffff16146107c757600080fd5b6009548110156107d657600080fd5b806007819055507f3efea805e66830268235dfa0a47b512147c6f691483a98f54117248ff90bbb9560075460405161080e9190611c77565b60405180910390a150565b60095481565b600d5481565b60055481565b60008054906101000a900473ffffffffffffffffffffffffffffffffffffffff1673ffffffffffffffffffffffffffffffffffffffff163373ffffffffffffffffffffffffffffffffffffffff161461088357600080fd5b600060149054906101000a900460ff1661089c57600080fd5b60008060146101000a81548160ff0219169083151502179055507f7805862f689e2f13df9f062ff482ad3ad112aca9e0847911ed832e158c525b3360405160405180910390a1565b600060149054906101000a900460ff16156108fe57600080fd5b600073ffffffffffffffffffffffffffffffffffffffff168273ffffffffffffffffffffffffffffffffffffffff16141561093857600080fd5b60075481101561094757600080fd5b600d54421061098b576040517f08c379a000000000000000000000000000000000000000000000000000000000815260040161098290611bf7565b60405180910390fd5b6000600954600b548361099e9190611d6f565b6109a89190611d3e565b9050600554600654826109bb9190611ce8565b11156109fc576040517f08c379a00000000000000000000000000000000000000000000000000000000081526004016109f390611bd7565b60405180910390fd5b600854600e60008573ffffffffffffffffffffffffffffffffffffffff1673ffffffffffffffffffffffffffffffffffffffff168152602001908152602001600020541115610a80576040517f08c379a0000000000000000000000000000000000000000000000000000000008152600401610a7790611c57565b60405180910390fd5b600260009054906101000a900473ffffffffffffffffffffffffffffffffffffffff1673ffffffffffffffffffffffffffffffffffffffff166323b872dd8430856040518463ffffffff1660e01b8152600401610adf93929190611a88565b600060405180830381600087803b158015610af957600080fd5b505af1158015610b0d573d6000803e3d6000fd5b50505050610b268260045461172a90919063ffffffff16565b6004819055508060066000828254610b3e9190611ce8565b9250508190555081600e60008573ffffffffffffffffffffffffffffffffffffffff1673ffffffffffffffffffffffffffffffffffffffff1681526020019081526020016000206000828254610b949190611ce8565b92505081905550600080600160009054906101000a900473ffffffffffffffffffffffffffffffffffffffff1673ffffffffffffffffffffffffffffffffffffffff1663e81758c6866040518263ffffffff1660e01b8152600401610bf99190611a6d565b60206040518083038186803b158015610c1157600080fd5b505afa158015610c25573d6000803e3d6000fd5b505050506040513d601f19601f82011682018060405250810190610c4991906117ec565b9050600073ffffffffffffffffffffffffffffffffffffffff168173ffffffffffffffffffffffffffffffffffffffff1614610d3857600b54836064600a54610c929190611d3e565b610c9c9190611d6f565b610ca69190611d3e565b9150600160009054906101000a900473ffffffffffffffffffffffffffffffffffffffff1673ffffffffffffffffffffffffffffffffffffffff166340c10f1982846040518363ffffffff1660e01b8152600401610d05929190611abf565b600060405180830381600087803b158015610d1f57600080fd5b505af1158015610d33573d6000803e3d6000fd5b505050505b60008284610d469190611dc9565b9050600160009054906101000a900473ffffffffffffffffffffffffffffffffffffffff1673ffffffffffffffffffffffffffffffffffffffff166340c10f1987836040518363ffffffff1660e01b8152600401610da5929190611abf565b600060405180830381600087803b158015610dbf57600080fd5b505af1158015610dd3573d6000803e3d6000fd5b50505050600260009054906101000a900473ffffffffffffffffffffffffffffffffffffffff1673ffffffffffffffffffffffffffffffffffffffff1663a9059cbb600360009054906101000a900473ffffffffffffffffffffffffffffffffffffffff16876040518363ffffffff1660e01b8152600401610e56929190611abf565b600060405180830381600087803b158015610e7057600080fd5b505af1158015610e84573d6000803e3d6000fd5b505050508573ffffffffffffffffffffffffffffffffffffffff163373ffffffffffffffffffffffffffffffffffffffff167f5e99c9b007de1ba9cf0eb461469ea7c3a4aadd66692dcaceedd56dad6f3ebc7c87848888604051610eeb9493929190611c92565b60405180910390a3505050505050565b6000600d54905090565b6000600e60008373ffffffffffffffffffffffffffffffffffffffff1673ffffffffffffffffffffffffffffffffffffffff168152602001908152602001600020549050919050565b6000600954905090565b6000600554905090565b6000600854905090565b600060149054906101000a900460ff1681565b60008054906101000a900473ffffffffffffffffffffffffffffffffffffffff1673ffffffffffffffffffffffffffffffffffffffff163373ffffffffffffffffffffffffffffffffffffffff1614610fd757600080fd5b6007548111610fe557600080fd5b806008819055507f53e824bbd9efc3c076c34b89a9d422924ecb91d49bb71ff3f1819de4cd6e8e4e60085460405161101d9190611c77565b60405180910390a150565b600a5481565b6000600754905090565b600c5481565b60008054906101000a900473ffffffffffffffffffffffffffffffffffffffff1673ffffffffffffffffffffffffffffffffffffffff163373ffffffffffffffffffffffffffffffffffffffff161461109657600080fd5b600081116110a357600080fd5b60065481116110b157600080fd5b806005819055507f60cc555f821e71f611a70054a4ddb43c4ffc5b2d76e4cc7f4a9f00f53ba919536005546040516110e99190611c77565b60405180910390a150565b60008054906101000a900473ffffffffffffffffffffffffffffffffffffffff1673ffffffffffffffffffffffffffffffffffffffff163373ffffffffffffffffffffffffffffffffffffffff161461114c57600080fd5b600060149054906101000a900460ff161561116657600080fd5b6001600060146101000a81548160ff0219169083151502179055507f6985a02210a168e66602d3235cb6db0e70f92b3ba4d376a33c0f3d9434bff62560405160405180910390a1565b60075481565b60065481565b60008054906101000a900473ffffffffffffffffffffffffffffffffffffffff1681565b600260009054906101000a900473ffffffffffffffffffffffffffffffffffffffff1681565b60008054906101000a900473ffffffffffffffffffffffffffffffffffffffff1673ffffffffffffffffffffffffffffffffffffffff163373ffffffffffffffffffffffffffffffffffffffff161461125d57600080fd5b6000811161126a57600080fd5b80600a819055507fecb22686d8c882020d32659c245ad85fb461f862d799b488b3e661bf251b909f600a546040516112a29190611c77565b60405180910390a150565b600360009054906101000a900473ffffffffffffffffffffffffffffffffffffffff1681565b60008054906101000a900473ffffffffffffffffffffffffffffffffffffffff1673ffffffffffffffffffffffffffffffffffffffff163373ffffffffffffffffffffffffffffffffffffffff161461132b57600080fd5b600073ffffffffffffffffffffffffffffffffffffffff168973ffffffffffffffffffffffffffffffffffffffff16141561136557600080fd5b600073ffffffffffffffffffffffffffffffffffffffff168273ffffffffffffffffffffffffffffffffffffffff16141561139f57600080fd5b600073ffffffffffffffffffffffffffffffffffffffff168173ffffffffffffffffffffffffffffffffffffffff1614156113d957600080fd5b600087116113e657600080fd5b86861015611429576040517f08c379a000000000000000000000000000000000000000000000000000000000815260040161142090611bb7565b60405180910390fd5b84861061146b576040517f08c379a000000000000000000000000000000000000000000000000000000000815260040161146290611c37565b60405180910390fd5b6000841161147857600080fd5b4283116114ba576040517f08c379a00000000000000000000000000000000000000000000000000000000081526004016114b190611c17565b60405180910390fd5b88600360006101000a81548173ffffffffffffffffffffffffffffffffffffffff021916908373ffffffffffffffffffffffffffffffffffffffff1602179055508660098190555085600781905550846008819055508760058190555083600a8190555042600c8190555082600d8190555081600160006101000a81548173ffffffffffffffffffffffffffffffffffffffff021916908373ffffffffffffffffffffffffffffffffffffffff16021790555080600260006101000a81548173ffffffffffffffffffffffffffffffffffffffff021916908373ffffffffffffffffffffffffffffffffffffffff1602179055507fa143f98f42256400c99e7a9066c8b682aaa8c0ad7e40db8f12d3adecb684a925600360009054906101000a900473ffffffffffffffffffffffffffffffffffffffff16600554600954600754600854600a54600c54600d5460405161161b989796959493929190611ae8565b60405180910390a1505050505050505050565b600b5481565b60008060055460065410158061164b5750600d5442115b90508091505090565b60008054906101000a900473ffffffffffffffffffffffffffffffffffffffff1673ffffffffffffffffffffffffffffffffffffffff163373ffffffffffffffffffffffffffffffffffffffff16146116ac57600080fd5b600073ffffffffffffffffffffffffffffffffffffffff168173ffffffffffffffffffffffffffffffffffffffff161461172157806000806101000a81548173ffffffffffffffffffffffffffffffffffffffff021916908373ffffffffffffffffffffffffffffffffffffffff1602179055505b50565b60045481565b60008082846117399190611ce8565b90508381101561174c5761174b611eb1565b5b8091505092915050565b600081359050611765816120f7565b92915050565b60008151905061177a816120f7565b92915050565b60008135905061178f8161210e565b92915050565b6000813590506117a481612125565b92915050565b6000813590506117b98161213c565b92915050565b6000602082840312156117d5576117d4611f3e565b5b60006117e384828501611756565b91505092915050565b60006020828403121561180257611801611f3e565b5b60006118108482850161176b565b91505092915050565b600080604083850312156118305761182f611f3e565b5b600061183e85828601611756565b925050602061184f858286016117aa565b9150509250929050565b60008060008060008060008060006101208a8c03121561187c5761187b611f3e565b5b600061188a8c828d01611756565b995050602061189b8c828d016117aa565b98505060406118ac8c828d016117aa565b97505060606118bd8c828d016117aa565b96505060806118ce8c828d016117aa565b95505060a06118df8c828d016117aa565b94505060c06118f08c828d016117aa565b93505060e06119018c828d01611795565b9250506101006119138c828d01611780565b9150509295985092959850929598565b60006020828403121561193957611938611f3e565b5b6000611947848285016117aa565b91505092915050565b61195981611dfd565b82525050565b61196881611e0f565b82525050565b61197781611e69565b82525050565b61198681611e7b565b82525050565b6000611999604383611cd7565b91506119a482611f43565b606082019050919050565b60006119bc601983611cd7565b91506119c782611fb8565b602082019050919050565b60006119df600e83611cd7565b91506119ea82611fe1565b602082019050919050565b6000611a02601483611cd7565b9150611a0d8261200a565b602082019050919050565b6000611a25604383611cd7565b9150611a3082612033565b606082019050919050565b6000611a48602183611cd7565b9150611a53826120a8565b604082019050919050565b611a6781611e5f565b82525050565b6000602082019050611a826000830184611950565b92915050565b6000606082019050611a9d6000830186611950565b611aaa6020830185611950565b611ab76040830184611a5e565b949350505050565b6000604082019050611ad46000830185611950565b611ae16020830184611a5e565b9392505050565b600061010082019050611afe600083018b611950565b611b0b602083018a611a5e565b611b186040830189611a5e565b611b256060830188611a5e565b611b326080830187611a5e565b611b3f60a0830186611a5e565b611b4c60c0830185611a5e565b611b5960e0830184611a5e565b9998505050505050505050565b6000602082019050611b7b600083018461195f565b92915050565b6000602082019050611b96600083018461196e565b92915050565b6000602082019050611bb1600083018461197d565b92915050565b60006020820190508181036000830152611bd08161198c565b9050919050565b60006020820190508181036000830152611bf0816119af565b9050919050565b60006020820190508181036000830152611c10816119d2565b9050919050565b60006020820190508181036000830152611c30816119f5565b9050919050565b60006020820190508181036000830152611c5081611a18565b9050919050565b60006020820190508181036000830152611c7081611a3b565b9050919050565b6000602082019050611c8c6000830184611a5e565b92915050565b6000608082019050611ca76000830187611a5e565b611cb46020830186611a5e565b611cc16040830185611a5e565b611cce6060830184611a5e565b95945050505050565b600082825260208201905092915050565b6000611cf382611e5f565b9150611cfe83611e5f565b9250827fffffffffffffffffffffffffffffffffffffffffffffffffffffffffffffffff03821115611d3357611d32611ee0565b5b828201905092915050565b6000611d4982611e5f565b9150611d5483611e5f565b925082611d6457611d63611f0f565b5b828204905092915050565b6000611d7a82611e5f565b9150611d8583611e5f565b9250817fffffffffffffffffffffffffffffffffffffffffffffffffffffffffffffffff0483118215151615611dbe57611dbd611ee0565b5b828202905092915050565b6000611dd482611e5f565b9150611ddf83611e5f565b925082821015611df257611df1611ee0565b5b828203905092915050565b6000611e0882611e3f565b9050919050565b60008115159050919050565b6000611e2682611dfd565b9050919050565b6000611e3882611dfd565b9050919050565b600073ffffffffffffffffffffffffffffffffffffffff82169050919050565b6000819050919050565b6000611e7482611e8d565b9050919050565b6000611e8682611e8d565b9050919050565b6000611e9882611e9f565b9050919050565b6000611eaa82611e3f565b9050919050565b7f4e487b7100000000000000000000000000000000000000000000000000000000600052600160045260246000fd5b7f4e487b7100000000000000000000000000000000000000000000000000000000600052601160045260246000fd5b7f4e487b7100000000000000000000000000000000000000000000000000000000600052601260045260246000fd5b600080fd5b7f6d696e696d756d20696e766573746d656e742073686f756c642062652067726560008201527f61746572207468616e206f7220657175616c20746f2072617465206f6620746f60208201527f6b656e0000000000000000000000000000000000000000000000000000000000604082015250565b7f796f752061726520657863656564696e67207468652063617000000000000000600082015250565b7f73616c652068617320656e646564000000000000000000000000000000000000600082015250565b7f656e6474696d6520697320696e636f7272656374000000000000000000000000600082015250565b7f6d6178696d756d20696e766573746d656e742073686f756c642062652067726560008201527f61746572207468616e206f7220657175616c20746f2072617465206f6620746f60208201527f6b656e0000000000000000000000000000000000000000000000000000000000604082015250565b7f796f75206861766520707572636861736564206d6178696d756d20746f6b656e60008201527f7300000000000000000000000000000000000000000000000000000000000000602082015250565b61210081611dfd565b811461210b57600080fd5b50565b61211781611e1b565b811461212257600080fd5b50565b61212e81611e2d565b811461213957600080fd5b50565b61214581611e5f565b811461215057600080fd5b5056fea26469706673582212206e2138e199003eb0be380e611b5bec3462fb35ca83e56f36019bd81295d16f9064736f6c63430008070033",
  "linkReferences": {},
  "deployedLinkReferences": {}
}