{
  "_format": "hh-sol-artifact-1",
  "contractName": "UniswapIntermediary",
  "sourceName": "contracts/UniswapIntermediary.sol",
  "abi": [
    {
      "inputs": [
        {
          "internalType": "address",
          "name": "_routerAddress",
          "type": "address"
        },
        {
          "internalType": "address",
          "name": "_Zoo",
          "type": "address"
        },
        {
          "internalType": "address",
          "name": "_factory",
          "type": "address"
        },
        {
          "internalType": "address",
          "name": "_QuoterAddress",
          "type": "address"
        },
        {
          "internalType": "uint24",
          "name": "_poolFee",
          "type": "uint24"
        }
      ],
      "stateMutability": "nonpayable",
      "type": "constructor"
    },
    {
      "anonymous": false,
      "inputs": [
        {
          "indexed": false,
          "internalType": "bool",
          "name": "",
          "type": "bool"
        }
      ],
      "name": "_ByingZoo",
      "type": "event"
    },
    {
      "anonymous": false,
      "inputs": [
        {
          "indexed": false,
          "internalType": "uint256",
          "name": "amountOut",
          "type": "uint256"
        }
      ],
      "name": "_SellingOtherToken",
      "type": "event"
    },
    {
      "anonymous": false,
      "inputs": [
        {
          "indexed": false,
          "internalType": "uint256",
          "name": "amountOut",
          "type": "uint256"
        }
      ],
      "name": "_SellingZooToken",
      "type": "event"
    },
    {
      "anonymous": false,
      "inputs": [
        {
          "indexed": false,
          "internalType": "uint256",
          "name": "_amountOutMinimum",
          "type": "uint256"
        }
      ],
      "name": "_setAmountOutMinimum",
      "type": "event"
    },
    {
      "anonymous": false,
      "inputs": [
        {
          "indexed": false,
          "internalType": "address",
          "name": "_Other",
          "type": "address"
        }
      ],
      "name": "_setOtherToken",
      "type": "event"
    },
    {
      "anonymous": false,
      "inputs": [
        {
          "indexed": false,
          "internalType": "address",
          "name": "owner",
          "type": "address"
        }
      ],
      "name": "_setOwner",
      "type": "event"
    },
    {
      "anonymous": false,
      "inputs": [
        {
          "indexed": false,
          "internalType": "uint24",
          "name": "poolFee",
          "type": "uint24"
        }
      ],
      "name": "_setPoolFee",
      "type": "event"
    },
    {
      "anonymous": false,
      "inputs": [
        {
          "indexed": false,
          "internalType": "address",
          "name": "routerAddress",
          "type": "address"
        }
      ],
      "name": "_setRouterAddress",
      "type": "event"
    },
    {
      "anonymous": false,
      "inputs": [
        {
          "indexed": false,
          "internalType": "address",
          "name": "Zoo",
          "type": "address"
        }
      ],
      "name": "_setZooToken",
      "type": "event"
    },
    {
      "inputs": [
        {
          "internalType": "uint256",
          "name": "amountOut",
          "type": "uint256"
        },
        {
          "internalType": "uint256",
          "name": "amountInMaximum",
          "type": "uint256"
        },
        {
          "internalType": "address",
          "name": "OtherToken",
          "type": "address"
        }
      ],
      "name": "ByingZoo",
      "outputs": [
        {
          "internalType": "bool",
          "name": "",
          "type": "bool"
        }
      ],
      "stateMutability": "nonpayable",
      "type": "function"
    },
    {
      "inputs": [
        {
          "internalType": "address",
          "name": "tokenA",
          "type": "address"
        },
        {
          "internalType": "address",
          "name": "tokenB",
          "type": "address"
        },
        {
          "internalType": "uint24",
          "name": "fee",
          "type": "uint24"
        }
      ],
      "name": "CurrentPrice",
      "outputs": [
        {
          "internalType": "uint256",
          "name": "",
          "type": "uint256"
        }
      ],
      "stateMutability": "view",
      "type": "function"
    },
    {
      "inputs": [],
      "name": "Factory",
      "outputs": [
        {
          "internalType": "address",
          "name": "",
          "type": "address"
        }
      ],
      "stateMutability": "view",
      "type": "function"
    },
    {
      "inputs": [
        {
          "internalType": "address",
          "name": "",
          "type": "address"
        }
      ],
      "name": "OtherTokens",
      "outputs": [
        {
          "internalType": "bool",
          "name": "",
          "type": "bool"
        }
      ],
      "stateMutability": "view",
      "type": "function"
    },
    {
      "inputs": [],
      "name": "QuoterAddress",
      "outputs": [
        {
          "internalType": "address",
          "name": "",
          "type": "address"
        }
      ],
      "stateMutability": "view",
      "type": "function"
    },
    {
      "inputs": [],
      "name": "RouterAddress",
      "outputs": [
        {
          "internalType": "address",
          "name": "",
          "type": "address"
        }
      ],
      "stateMutability": "view",
      "type": "function"
    },
    {
      "inputs": [
        {
          "internalType": "uint256",
          "name": "amountIn",
          "type": "uint256"
        },
        {
          "internalType": "address",
          "name": "OtherToken",
          "type": "address"
        }
      ],
      "name": "SellingOtherToken",
      "outputs": [],
      "stateMutability": "nonpayable",
      "type": "function"
    },
    {
      "inputs": [
        {
          "internalType": "uint256",
          "name": "amountIn",
          "type": "uint256"
        },
        {
          "internalType": "address",
          "name": "OtherToken",
          "type": "address"
        }
      ],
      "name": "SellingZooToken",
      "outputs": [],
      "stateMutability": "nonpayable",
      "type": "function"
    },
    {
      "inputs": [
        {
          "internalType": "uint256",
          "name": "amountIn",
          "type": "uint256"
        },
        {
          "internalType": "address",
          "name": "OtherToken",
          "type": "address"
        }
      ],
      "name": "TokenSwapBYPressure",
      "outputs": [
        {
          "internalType": "uint256",
          "name": "",
          "type": "uint256"
        }
      ],
      "stateMutability": "nonpayable",
      "type": "function"
    },
    {
      "inputs": [],
      "name": "Zoo",
      "outputs": [
        {
          "internalType": "address",
          "name": "",
          "type": "address"
        }
      ],
      "stateMutability": "view",
      "type": "function"
    },
    {
      "inputs": [],
      "name": "_amountOutMinimum",
      "outputs": [
        {
          "internalType": "uint256",
          "name": "",
          "type": "uint256"
        }
      ],
      "stateMutability": "view",
      "type": "function"
    },
    {
      "inputs": [
        {
          "internalType": "uint256",
          "name": "pricePerToken",
          "type": "uint256"
        },
        {
          "internalType": "uint256",
          "name": "numberOfZooTokens",
          "type": "uint256"
        }
      ],
      "name": "calculateTotalPrice",
      "outputs": [
        {
          "internalType": "uint256",
          "name": "",
          "type": "uint256"
        }
      ],
      "stateMutability": "pure",
      "type": "function"
    },
    {
      "inputs": [
        {
          "internalType": "address",
          "name": "_Other",
          "type": "address"
        }
      ],
      "name": "checkOtherToken",
      "outputs": [
        {
          "internalType": "bool",
          "name": "",
          "type": "bool"
        }
      ],
      "stateMutability": "view",
      "type": "function"
    },
    {
      "inputs": [],
      "name": "getAmountOutMinimum",
      "outputs": [
        {
          "internalType": "uint256",
          "name": "",
          "type": "uint256"
        }
      ],
      "stateMutability": "view",
      "type": "function"
    },
    {
      "inputs": [],
      "name": "getOwner",
      "outputs": [
        {
          "internalType": "address",
          "name": "",
          "type": "address"
        }
      ],
      "stateMutability": "view",
      "type": "function"
    },
    {
      "inputs": [
        {
          "internalType": "address",
          "name": "tokenA",
          "type": "address"
        },
        {
          "internalType": "address",
          "name": "tokenB",
          "type": "address"
        },
        {
          "internalType": "uint24",
          "name": "fee",
          "type": "uint24"
        }
      ],
      "name": "getPool",
      "outputs": [
        {
          "internalType": "address",
          "name": "",
          "type": "address"
        }
      ],
      "stateMutability": "view",
      "type": "function"
    },
    {
      "inputs": [],
      "name": "getPoolFee",
      "outputs": [
        {
          "internalType": "uint256",
          "name": "",
          "type": "uint256"
        }
      ],
      "stateMutability": "view",
      "type": "function"
    },
    {
      "inputs": [
        {
          "internalType": "uint256",
          "name": "amountIn",
          "type": "uint256"
        },
        {
          "internalType": "address",
          "name": "tokenIn",
          "type": "address"
        },
        {
          "internalType": "address",
          "name": "tokenOut",
          "type": "address"
        }
      ],
      "name": "getQuote_AmountReceived",
      "outputs": [
        {
          "internalType": "uint256",
          "name": "amountOut",
          "type": "uint256"
        }
      ],
      "stateMutability": "nonpayable",
      "type": "function"
    },
    {
      "inputs": [
        {
          "internalType": "uint256",
          "name": "amountOut",
          "type": "uint256"
        },
        {
          "internalType": "address",
          "name": "tokenIn",
          "type": "address"
        },
        {
          "internalType": "address",
          "name": "tokenOut",
          "type": "address"
        }
      ],
      "name": "getQuote_AmountRequired",
      "outputs": [
        {
          "internalType": "uint256",
          "name": "amountIn",
          "type": "uint256"
        }
      ],
      "stateMutability": "nonpayable",
      "type": "function"
    },
    {
      "inputs": [],
      "name": "getRouterAddress",
      "outputs": [
        {
          "internalType": "address",
          "name": "",
          "type": "address"
        }
      ],
      "stateMutability": "view",
      "type": "function"
    },
    {
      "inputs": [],
      "name": "getZooToken",
      "outputs": [
        {
          "internalType": "address",
          "name": "",
          "type": "address"
        }
      ],
      "stateMutability": "view",
      "type": "function"
    },
    {
      "inputs": [],
      "name": "owner",
      "outputs": [
        {
          "internalType": "address",
          "name": "",
          "type": "address"
        }
      ],
      "stateMutability": "view",
      "type": "function"
    },
    {
      "inputs": [],
      "name": "poolFee",
      "outputs": [
        {
          "internalType": "uint24",
          "name": "",
          "type": "uint24"
        }
      ],
      "stateMutability": "view",
      "type": "function"
    },
    {
      "inputs": [
        {
          "internalType": "uint256",
          "name": "__amountOutMinimum",
          "type": "uint256"
        }
      ],
      "name": "setAmountOutMinimum",
      "outputs": [],
      "stateMutability": "nonpayable",
      "type": "function"
    },
    {
      "inputs": [
        {
          "internalType": "address",
          "name": "_uniswapAddress",
          "type": "address"
        }
      ],
      "name": "setFactory",
      "outputs": [
        {
          "internalType": "bool",
          "name": "",
          "type": "bool"
        }
      ],
      "stateMutability": "nonpayable",
      "type": "function"
    },
    {
      "inputs": [
        {
          "internalType": "address",
          "name": "_Other",
          "type": "address"
        },
        {
          "internalType": "bool",
          "name": "_value",
          "type": "bool"
        }
      ],
      "name": "setOtherToken",
      "outputs": [],
      "stateMutability": "nonpayable",
      "type": "function"
    },
    {
      "inputs": [
        {
          "internalType": "address",
          "name": "_owner",
          "type": "address"
        }
      ],
      "name": "setOwner",
      "outputs": [],
      "stateMutability": "nonpayable",
      "type": "function"
    },
    {
      "inputs": [
        {
          "internalType": "uint24",
          "name": "_poolFee",
          "type": "uint24"
        }
      ],
      "name": "setPoolFee",
      "outputs": [],
      "stateMutability": "nonpayable",
      "type": "function"
    },
    {
      "inputs": [
        {
          "internalType": "address",
          "name": "_routerAddress",
          "type": "address"
        }
      ],
      "name": "setRouterAddress",
      "outputs": [],
      "stateMutability": "nonpayable",
      "type": "function"
    },
    {
      "inputs": [
        {
          "internalType": "address",
          "name": "_Zoo",
          "type": "address"
        }
      ],
      "name": "setZooToken",
      "outputs": [],
      "stateMutability": "nonpayable",
      "type": "function"
    }
  ],
  "bytecode": "0x608060405260006006553480156200001657600080fd5b50604051620035b6380380620035b683398181016040528101906200003c9190620001d8565b33600760006101000a81548173ffffffffffffffffffffffffffffffffffffffff021916908373ffffffffffffffffffffffffffffffffffffffff160217905550846000806101000a81548173ffffffffffffffffffffffffffffffffffffffff021916908373ffffffffffffffffffffffffffffffffffffffff16021790555083600160006101000a81548173ffffffffffffffffffffffffffffffffffffffff021916908373ffffffffffffffffffffffffffffffffffffffff16021790555082600260006101000a81548173ffffffffffffffffffffffffffffffffffffffff021916908373ffffffffffffffffffffffffffffffffffffffff16021790555081600360006101000a81548173ffffffffffffffffffffffffffffffffffffffff021916908373ffffffffffffffffffffffffffffffffffffffff16021790555080600560006101000a81548162ffffff021916908362ffffff1602179055505050505050620002dc565b600081519050620001bb81620002a8565b92915050565b600081519050620001d281620002c2565b92915050565b600080600080600060a08688031215620001f757620001f6620002a3565b5b60006200020788828901620001aa565b95505060206200021a88828901620001aa565b94505060406200022d88828901620001aa565b93505060606200024088828901620001aa565b92505060806200025388828901620001c1565b9150509295509295909350565b60006200026d8262000274565b9050919050565b600073ffffffffffffffffffffffffffffffffffffffff82169050919050565b600062ffffff82169050919050565b600080fd5b620002b38162000260565b8114620002bf57600080fd5b50565b620002cd8162000294565b8114620002d957600080fd5b50565b6132ca80620002ec6000396000f3fe608060405234801561001057600080fd5b50600436106101d95760003560e01c806375aa4c8b11610104578063aa44f6fa116100a2578063d076fc9e11610071578063d076fc9e1461057c578063d54f7d5e146105ac578063ea2c808a146105ca578063ffa92233146105e8576101d9565b8063aa44f6fa146104f4578063c480b4c614610524578063c83dd23114610542578063cc817eff14610560576101d9565b80638da569d9116100de5780638da569d9146104585780638da5cb5b146104765780639fbb362b14610494578063a3e517f2146104c4576101d9565b806375aa4c8b1461040257806379cb77351461041e578063893d20e81461043a576101d9565b806341cb87fc1161017c578063608130231161014b578063608130231461037a5780636741fad2146103aa57806372921875146103c857806373dd250c146103e6576101d9565b806341cb87fc146102e2578063497403b2146102fe5780634ab840aa1461031a5780635bb478081461034a576101d9565b806313af4035116101b857806313af40351461024a5780631698ee82146102665780631de9b6fe1461029657806341554e4f146102b2576101d9565b8062ada2c3146101de578063089fe6aa146101fc57806312a076b91461021a575b600080fd5b6101e6610606565b6040516101f39190612c61565b60405180910390f35b610204610630565b6040516102119190612e42565b60405180910390f35b610234600480360381019061022f91906128dc565b610645565b6040516102419190612e5d565b60405180910390f35b610264600480360381019061025f9190612606565b610674565b005b610280600480360381019061027b9190612660565b61076b565b60405161028d9190612c61565b60405180910390f35b6102b060048036038101906102ab91906127ef565b610825565b005b6102cc60048036038101906102c79190612889565b6108c2565b6040516102d99190612e5d565b60405180910390f35b6102fc60048036038101906102f79190612606565b610994565b005b61031860048036038101906103139190612606565b610a88565b005b610334600480360381019061032f9190612660565b610b7f565b6040516103419190612e5d565b60405180910390f35b610364600480360381019061035f9190612606565b610c88565b6040516103719190612d8f565b60405180910390f35b610394600480360381019061038f9190612606565b610d43565b6040516103a19190612d8f565b60405180910390f35b6103b2610d63565b6040516103bf9190612e5d565b60405180910390f35b6103d0610d81565b6040516103dd9190612c61565b60405180910390f35b61040060048036038101906103fb91906127c2565b610da7565b005b61041c60048036038101906104179190612849565b610e6b565b005b61043860048036038101906104339190612849565b61120b565b005b6104426115d8565b60405161044f9190612c61565b60405180910390f35b610460611602565b60405161046d9190612e5d565b60405180910390f35b61047e61160c565b60405161048b9190612c61565b60405180910390f35b6104ae60048036038101906104a99190612606565b611632565b6040516104bb9190612d8f565b60405180910390f35b6104de60048036038101906104d99190612849565b6116e2565b6040516104eb9190612e5d565b60405180910390f35b61050e60048036038101906105099190612889565b61192c565b60405161051b9190612e5d565b60405180910390f35b61052c6119fe565b6040516105399190612c61565b60405180910390f35b61054a611a22565b6040516105579190612c61565b60405180910390f35b61057a600480360381019061057591906126b3565b611a48565b005b6105966004803603810190610591919061291c565b611b34565b6040516105a39190612d8f565b60405180910390f35b6105b4612030565b6040516105c19190612c61565b60405180910390f35b6105d2612059565b6040516105df9190612e5d565b60405180910390f35b6105f061205f565b6040516105fd9190612c61565b60405180910390f35b6000600160009054906101000a900473ffffffffffffffffffffffffffffffffffffffff16905090565b600560009054906101000a900462ffffff1681565b60008082846106549190612f6b565b90506000620f4240826106679190612f3a565b9050809250505092915050565b600760009054906101000a900473ffffffffffffffffffffffffffffffffffffffff1673ffffffffffffffffffffffffffffffffffffffff163373ffffffffffffffffffffffffffffffffffffffff16146106ce57600080fd5b80600760006101000a81548173ffffffffffffffffffffffffffffffffffffffff021916908373ffffffffffffffffffffffffffffffffffffffff1602179055507ffc20112246b9bd3d69db507dd3fc3ab64a27447e7736cee1f392d86e4c2b3aa5600760009054906101000a900473ffffffffffffffffffffffffffffffffffffffff166040516107609190612c61565b60405180910390a150565b6000600260009054906101000a900473ffffffffffffffffffffffffffffffffffffffff1673ffffffffffffffffffffffffffffffffffffffff16631698ee828585856040518463ffffffff1660e01b81526004016107cc93929190612c7c565b60206040518083038186803b1580156107e457600080fd5b505afa1580156107f8573d6000803e3d6000fd5b505050506040513d601f19601f8201168201806040525081019061081c9190612633565b90509392505050565b600760009054906101000a900473ffffffffffffffffffffffffffffffffffffffff1673ffffffffffffffffffffffffffffffffffffffff163373ffffffffffffffffffffffffffffffffffffffff161461087f57600080fd5b806006819055507f3172fdf19884b83a8a6d14b5731a8273b11b3fa6962fc88bd39038753c3f45b86006546040516108b79190612e5d565b60405180910390a150565b6000600360009054906101000a900473ffffffffffffffffffffffffffffffffffffffff1673ffffffffffffffffffffffffffffffffffffffff1663f7729d438484600560009054906101000a900462ffffff168860006040518663ffffffff1660e01b8152600401610939959493929190612cb3565b602060405180830381600087803b15801561095357600080fd5b505af1158015610967573d6000803e3d6000fd5b505050506040513d601f19601f8201168201806040525081019061098b919061281c565b90509392505050565b600760009054906101000a900473ffffffffffffffffffffffffffffffffffffffff1673ffffffffffffffffffffffffffffffffffffffff163373ffffffffffffffffffffffffffffffffffffffff16146109ee57600080fd5b806000806101000a81548173ffffffffffffffffffffffffffffffffffffffff021916908373ffffffffffffffffffffffffffffffffffffffff1602179055507f1e4ed1de1181e18c243352b2244f20e4eed15f7c95753df3fa272f19aeede37260008054906101000a900473ffffffffffffffffffffffffffffffffffffffff16604051610a7d9190612c61565b60405180910390a150565b600760009054906101000a900473ffffffffffffffffffffffffffffffffffffffff1673ffffffffffffffffffffffffffffffffffffffff163373ffffffffffffffffffffffffffffffffffffffff1614610ae257600080fd5b80600160006101000a81548173ffffffffffffffffffffffffffffffffffffffff021916908373ffffffffffffffffffffffffffffffffffffffff1602179055507f0e51bf8a23ab466fefc04de09110a73753e1cb1b9f6c6e5fbe98579d6717f161600160009054906101000a900473ffffffffffffffffffffffffffffffffffffffff16604051610b749190612c61565b60405180910390a150565b600080610b8d85858561076b565b9050600081905060008173ffffffffffffffffffffffffffffffffffffffff16633850c7bd6040518163ffffffff1660e01b815260040160e06040518083038186803b158015610bdc57600080fd5b505afa158015610bf0573d6000803e3d6000fd5b505050506040513d601f19601f82011682018060405250810190610c149190612720565b505050505050905060008173ffffffffffffffffffffffffffffffffffffffff1690506000610c777801000000000000000000000000000000000000000000000000610c69848561208590919063ffffffff16565b6120ce90919063ffffffff16565b905080955050505050509392505050565b60008073ffffffffffffffffffffffffffffffffffffffff168273ffffffffffffffffffffffffffffffffffffffff161415610cf9576040517f08c379a0000000000000000000000000000000000000000000000000000000008152600401610cf090612dca565b60405180910390fd5b81600260006101000a81548173ffffffffffffffffffffffffffffffffffffffff021916908373ffffffffffffffffffffffffffffffffffffffff16021790555060019050919050565b60046020528060005260406000206000915054906101000a900460ff1681565b6000600560009054906101000a900462ffffff1662ffffff16905090565b600160009054906101000a900473ffffffffffffffffffffffffffffffffffffffff1681565b600760009054906101000a900473ffffffffffffffffffffffffffffffffffffffff1673ffffffffffffffffffffffffffffffffffffffff163373ffffffffffffffffffffffffffffffffffffffff1614610e0157600080fd5b80600560006101000a81548162ffffff021916908362ffffff1602179055507f674ad69981b01dd8d7ed2b02e694ebcde5f8aa448f1a3af9c1118a62f11978f9600560009054906101000a900462ffffff16604051610e609190612e42565b60405180910390a150565b600460008273ffffffffffffffffffffffffffffffffffffffff1673ffffffffffffffffffffffffffffffffffffffff16815260200190815260200160002060009054906101000a900460ff16610ef7576040517f08c379a0000000000000000000000000000000000000000000000000000000008152600401610eee90612dea565b60405180910390fd5b8073ffffffffffffffffffffffffffffffffffffffff166323b872dd3330856040518463ffffffff1660e01b8152600401610f3493929190612d06565b602060405180830381600087803b158015610f4e57600080fd5b505af1158015610f62573d6000803e3d6000fd5b505050506040513d601f19601f82011682018060405250810190610f8691906126f3565b50610fb28160008054906101000a900473ffffffffffffffffffffffffffffffffffffffff16846120e9565b6000610fe18383600160009054906101000a900473ffffffffffffffffffffffffffffffffffffffff1661223e565b9050600080600080600160009054906101000a900473ffffffffffffffffffffffffffffffffffffffff1673ffffffffffffffffffffffffffffffffffffffff1663f209361233876040518363ffffffff1660e01b8152600401611046929190612d66565b60806040518083038186803b15801561105e57600080fd5b505afa158015611072573d6000803e3d6000fd5b505050506040513d601f19601f82011682018060405250810190611096919061296f565b9350935093509350600160009054906101000a900473ffffffffffffffffffffffffffffffffffffffff1673ffffffffffffffffffffffffffffffffffffffff1663d7588576858585336040518563ffffffff1660e01b81526004016110ff9493929190612e78565b600060405180830381600087803b15801561111957600080fd5b505af115801561112d573d6000803e3d6000fd5b50505050600160009054906101000a900473ffffffffffffffffffffffffffffffffffffffff1673ffffffffffffffffffffffffffffffffffffffff1663a9059cbb33838861117c9190612fc5565b6040518363ffffffff1660e01b8152600401611199929190612d66565b600060405180830381600087803b1580156111b357600080fd5b505af11580156111c7573d6000803e3d6000fd5b505050507fd0c4d8eb3dfbc3d2bb3e0d807bb6b2f33ff86d07fdae9484980988df3775e2d8856040516111fa9190612e5d565b60405180910390a150505050505050565b600460008273ffffffffffffffffffffffffffffffffffffffff1673ffffffffffffffffffffffffffffffffffffffff16815260200190815260200160002060009054906101000a900460ff16611297576040517f08c379a000000000000000000000000000000000000000000000000000000000815260040161128e90612dea565b60405180910390fd5b600160009054906101000a900473ffffffffffffffffffffffffffffffffffffffff1673ffffffffffffffffffffffffffffffffffffffff166323b872dd3330856040518463ffffffff1660e01b81526004016112f693929190612d06565b600060405180830381600087803b15801561131057600080fd5b505af1158015611324573d6000803e3d6000fd5b50505050600080600080600160009054906101000a900473ffffffffffffffffffffffffffffffffffffffff1673ffffffffffffffffffffffffffffffffffffffff1663f209361233886040518363ffffffff1660e01b815260040161138b929190612d66565b60806040518083038186803b1580156113a357600080fd5b505afa1580156113b7573d6000803e3d6000fd5b505050506040513d601f19601f820116820180604052508101906113db919061296f565b935093509350935061143b600160009054906101000a900473ffffffffffffffffffffffffffffffffffffffff1660008054906101000a900473ffffffffffffffffffffffffffffffffffffffff1683896114369190612fc5565b6120e9565b6000611475828861144c9190612fc5565b600160009054906101000a900473ffffffffffffffffffffffffffffffffffffffff168861223e565b9050600160009054906101000a900473ffffffffffffffffffffffffffffffffffffffff1673ffffffffffffffffffffffffffffffffffffffff1663d7588576868686336040518563ffffffff1660e01b81526004016114d89493929190612e78565b600060405180830381600087803b1580156114f257600080fd5b505af1158015611506573d6000803e3d6000fd5b505050508573ffffffffffffffffffffffffffffffffffffffff1663a9059cbb33836040518363ffffffff1660e01b8152600401611545929190612d66565b602060405180830381600087803b15801561155f57600080fd5b505af1158015611573573d6000803e3d6000fd5b505050506040513d601f19601f8201168201806040525081019061159791906126f3565b507f3152086b836301758fcbf73e2fb81f8987809d5f168dd4bb005d3f9097fdf649816040516115c79190612e5d565b60405180910390a150505050505050565b6000600760009054906101000a900473ffffffffffffffffffffffffffffffffffffffff16905090565b6000600654905090565b600760009054906101000a900473ffffffffffffffffffffffffffffffffffffffff1681565b6000600760009054906101000a900473ffffffffffffffffffffffffffffffffffffffff1673ffffffffffffffffffffffffffffffffffffffff163373ffffffffffffffffffffffffffffffffffffffff161461168e57600080fd5b600460008373ffffffffffffffffffffffffffffffffffffffff1673ffffffffffffffffffffffffffffffffffffffff16815260200190815260200160002060009054906101000a900460ff169050919050565b6000600460008373ffffffffffffffffffffffffffffffffffffffff1673ffffffffffffffffffffffffffffffffffffffff16815260200190815260200160002060009054906101000a900460ff16611770576040517f08c379a000000000000000000000000000000000000000000000000000000000815260040161176790612dea565b60405180910390fd5b8173ffffffffffffffffffffffffffffffffffffffff166323b872dd3330866040518463ffffffff1660e01b81526004016117ad93929190612d06565b602060405180830381600087803b1580156117c757600080fd5b505af11580156117db573d6000803e3d6000fd5b505050506040513d601f19601f820116820180604052508101906117ff91906126f3565b5061182b8260008054906101000a900473ffffffffffffffffffffffffffffffffffffffff16856120e9565b600061185a8484600160009054906101000a900473ffffffffffffffffffffffffffffffffffffffff1661223e565b9050600160009054906101000a900473ffffffffffffffffffffffffffffffffffffffff1673ffffffffffffffffffffffffffffffffffffffff1663a9059cbb33836040518363ffffffff1660e01b81526004016118b9929190612d66565b600060405180830381600087803b1580156118d357600080fd5b505af11580156118e7573d6000803e3d6000fd5b505050507fd0c4d8eb3dfbc3d2bb3e0d807bb6b2f33ff86d07fdae9484980988df3775e2d88160405161191a9190612e5d565b60405180910390a18091505092915050565b6000600360009054906101000a900473ffffffffffffffffffffffffffffffffffffffff1673ffffffffffffffffffffffffffffffffffffffff166330d07f218484600560009054906101000a900462ffffff168860006040518663ffffffff1660e01b81526004016119a3959493929190612cb3565b602060405180830381600087803b1580156119bd57600080fd5b505af11580156119d1573d6000803e3d6000fd5b505050506040513d601f19601f820116820180604052508101906119f5919061281c565b90509392505050565b60008054906101000a900473ffffffffffffffffffffffffffffffffffffffff1681565b600260009054906101000a900473ffffffffffffffffffffffffffffffffffffffff1681565b600760009054906101000a900473ffffffffffffffffffffffffffffffffffffffff1673ffffffffffffffffffffffffffffffffffffffff163373ffffffffffffffffffffffffffffffffffffffff1614611aa257600080fd5b80600460008473ffffffffffffffffffffffffffffffffffffffff1673ffffffffffffffffffffffffffffffffffffffff16815260200190815260200160002060006101000a81548160ff0219169083151502179055507f7fe72209b43bb81ad0240df990b10ebd9b17198cc8aeb83731617832419b1ebd82604051611b289190612c61565b60405180910390a15050565b6000600460008373ffffffffffffffffffffffffffffffffffffffff1673ffffffffffffffffffffffffffffffffffffffff16815260200190815260200160002060009054906101000a900460ff16611bc2576040517f08c379a0000000000000000000000000000000000000000000000000000000008152600401611bb990612dea565b60405180910390fd5b8173ffffffffffffffffffffffffffffffffffffffff166323b872dd3330866040518463ffffffff1660e01b8152600401611bff93929190612d06565b602060405180830381600087803b158015611c1957600080fd5b505af1158015611c2d573d6000803e3d6000fd5b505050506040513d601f19601f82011682018060405250810190611c5191906126f3565b50611c7d8260008054906101000a900473ffffffffffffffffffffffffffffffffffffffff16856120e9565b6000611cad858585600160009054906101000a900473ffffffffffffffffffffffffffffffffffffffff166123af565b905083811015611e00578273ffffffffffffffffffffffffffffffffffffffff1663095ea7b360008054906101000a900473ffffffffffffffffffffffffffffffffffffffff1660006040518363ffffffff1660e01b8152600401611d13929190612d3d565b602060405180830381600087803b158015611d2d57600080fd5b505af1158015611d41573d6000803e3d6000fd5b505050506040513d601f19601f82011682018060405250810190611d6591906126f3565b508273ffffffffffffffffffffffffffffffffffffffff1663a9059cbb338387611d8f9190612fc5565b6040518363ffffffff1660e01b8152600401611dac929190612d66565b602060405180830381600087803b158015611dc657600080fd5b505af1158015611dda573d6000803e3d6000fd5b505050506040513d601f19601f82011682018060405250810190611dfe91906126f3565b505b600080600080600160009054906101000a900473ffffffffffffffffffffffffffffffffffffffff1673ffffffffffffffffffffffffffffffffffffffff1663f2093612338b6040518363ffffffff1660e01b8152600401611e63929190612d66565b60806040518083038186803b158015611e7b57600080fd5b505afa158015611e8f573d6000803e3d6000fd5b505050506040513d601f19601f82011682018060405250810190611eb3919061296f565b9350935093509350600160009054906101000a900473ffffffffffffffffffffffffffffffffffffffff1673ffffffffffffffffffffffffffffffffffffffff1663d7588576858585336040518563ffffffff1660e01b8152600401611f1c9493929190612e78565b600060405180830381600087803b158015611f3657600080fd5b505af1158015611f4a573d6000803e3d6000fd5b50505050600160009054906101000a900473ffffffffffffffffffffffffffffffffffffffff1673ffffffffffffffffffffffffffffffffffffffff1663a9059cbb33838c611f999190612fc5565b6040518363ffffffff1660e01b8152600401611fb6929190612d66565b600060405180830381600087803b158015611fd057600080fd5b505af1158015611fe4573d6000803e3d6000fd5b505050507ffe8b3fd5a1137d572eb55e47acabe555e9a8e2ba356076b0b295b309587643b960016040516120189190612d8f565b60405180910390a16001955050505050509392505050565b60008060009054906101000a900473ffffffffffffffffffffffffffffffffffffffff16905090565b60065481565b600360009054906101000a900473ffffffffffffffffffffffffffffffffffffffff1681565b60008083141561209857600090506120c8565b600082846120a69190612f6b565b90508284826120b59190612f3a565b146120c3576120c26130cf565b5b809150505b92915050565b60008082846120dd9190612f3a565b90508091505092915050565b6000808473ffffffffffffffffffffffffffffffffffffffff1663095ea7b360e01b858560405160240161211e929190612d66565b604051602081830303815290604052907bffffffffffffffffffffffffffffffffffffffffffffffffffffffff19166020820180517bffffffffffffffffffffffffffffffffffffffffffffffffffffffff83818316178352505050506040516121889190612c4a565b6000604051808303816000865af19150503d80600081146121c5576040519150601f19603f3d011682016040523d82523d6000602084013e6121ca565b606091505b50915091508180156121f857506000815114806121f75750808060200190518101906121f691906126f3565b5b5b612237576040517f08c379a000000000000000000000000000000000000000000000000000000000815260040161222e90612daa565b60405180910390fd5b5050505050565b6000806040518061010001604052808573ffffffffffffffffffffffffffffffffffffffff1681526020018473ffffffffffffffffffffffffffffffffffffffff168152602001600560009054906101000a900462ffffff1662ffffff1681526020013073ffffffffffffffffffffffffffffffffffffffff1681526020016078426122ca9190612ee4565b81526020018681526020016006548152602001600073ffffffffffffffffffffffffffffffffffffffff16815250905060008054906101000a900473ffffffffffffffffffffffffffffffffffffffff1673ffffffffffffffffffffffffffffffffffffffff1663414bf389826040518263ffffffff1660e01b81526004016123539190612e0a565b602060405180830381600087803b15801561236d57600080fd5b505af1158015612381573d6000803e3d6000fd5b505050506040513d601f19601f820116820180604052508101906123a5919061281c565b9150509392505050565b6000806040518061010001604052808573ffffffffffffffffffffffffffffffffffffffff1681526020018473ffffffffffffffffffffffffffffffffffffffff168152602001600560009054906101000a900462ffffff1662ffffff1681526020013073ffffffffffffffffffffffffffffffffffffffff168152602001603c4261243b9190612ee4565b8152602001878152602001868152602001600073ffffffffffffffffffffffffffffffffffffffff16815250905060008054906101000a900473ffffffffffffffffffffffffffffffffffffffff1673ffffffffffffffffffffffffffffffffffffffff1663db3e2198826040518263ffffffff1660e01b81526004016124c29190612e26565b602060405180830381600087803b1580156124dc57600080fd5b505af11580156124f0573d6000803e3d6000fd5b505050506040513d601f19601f82011682018060405250810190612514919061281c565b915050949350505050565b60008135905061252e816131dc565b92915050565b600081519050612543816131dc565b92915050565b600081359050612558816131f3565b92915050565b60008151905061256d816131f3565b92915050565b6000815190506125828161320a565b92915050565b60008151905061259781613238565b92915050565b6000815190506125ac81613221565b92915050565b6000813590506125c18161324f565b92915050565b6000813590506125d681613266565b92915050565b6000815190506125eb81613266565b92915050565b6000815190506126008161327d565b92915050565b60006020828403121561261c5761261b61315c565b5b600061262a8482850161251f565b91505092915050565b6000602082840312156126495761264861315c565b5b600061265784828501612534565b91505092915050565b6000806000606084860312156126795761267861315c565b5b60006126878682870161251f565b93505060206126988682870161251f565b92505060406126a9868287016125b2565b9150509250925092565b600080604083850312156126ca576126c961315c565b5b60006126d88582860161251f565b92505060206126e985828601612549565b9150509250929050565b6000602082840312156127095761270861315c565b5b60006127178482850161255e565b91505092915050565b600080600080600080600060e0888a03121561273f5761273e61315c565b5b600061274d8a828b01612588565b975050602061275e8a828b01612573565b965050604061276f8a828b0161259d565b95505060606127808a828b0161259d565b94505060806127918a828b0161259d565b93505060a06127a28a828b016125f1565b92505060c06127b38a828b0161255e565b91505092959891949750929550565b6000602082840312156127d8576127d761315c565b5b60006127e6848285016125b2565b91505092915050565b6000602082840312156128055761280461315c565b5b6000612813848285016125c7565b91505092915050565b6000602082840312156128325761283161315c565b5b6000612840848285016125dc565b91505092915050565b600080604083850312156128605761285f61315c565b5b600061286e858286016125c7565b925050602061287f8582860161251f565b9150509250929050565b6000806000606084860312156128a2576128a161315c565b5b60006128b0868287016125c7565b93505060206128c18682870161251f565b92505060406128d28682870161251f565b9150509250925092565b600080604083850312156128f3576128f261315c565b5b6000612901858286016125c7565b9250506020612912858286016125c7565b9150509250929050565b6000806000606084860312156129355761293461315c565b5b6000612943868287016125c7565b9350506020612954868287016125c7565b92505060406129658682870161251f565b9150509250925092565b600080600080608085870312156129895761298861315c565b5b6000612997878288016125dc565b94505060206129a8878288016125dc565b93505060406129b9878288016125dc565b92505060606129ca878288016125dc565b91505092959194509250565b6129df81612ff9565b82525050565b6129ee81612ff9565b82525050565b6129fd8161300b565b82525050565b6000612a0e82612ebd565b612a188185612ec8565b9350612a2881856020860161309c565b80840191505092915050565b612a3d81613078565b82525050565b612a4c8161308a565b82525050565b6000612a5f600283612ed3565b9150612a6a82613161565b602082019050919050565b6000612a82601b83612ed3565b9150612a8d8261318a565b602082019050919050565b6000612aa5601283612ed3565b9150612ab0826131b3565b602082019050919050565b61010082016000820151612ad260008501826129d6565b506020820151612ae560208501826129d6565b506040820151612af86040850182612c0e565b506060820151612b0b60608501826129d6565b506080820151612b1e6080850182612c2c565b5060a0820151612b3160a0850182612c2c565b5060c0820151612b4460c0850182612c2c565b5060e0820151612b5760e0850182612bff565b50505050565b61010082016000820151612b7460008501826129d6565b506020820151612b8760208501826129d6565b506040820151612b9a6040850182612c0e565b506060820151612bad60608501826129d6565b506080820151612bc06080850182612c2c565b5060a0820151612bd360a0850182612c2c565b5060c0820151612be660c0850182612c2c565b5060e0820151612bf960e0850182612bff565b50505050565b612c0881613032565b82525050565b612c1781613052565b82525050565b612c2681613052565b82525050565b612c3581613061565b82525050565b612c4481613061565b82525050565b6000612c568284612a03565b915081905092915050565b6000602082019050612c7660008301846129e5565b92915050565b6000606082019050612c9160008301866129e5565b612c9e60208301856129e5565b612cab6040830184612c1d565b949350505050565b600060a082019050612cc860008301886129e5565b612cd560208301876129e5565b612ce26040830186612c1d565b612cef6060830185612c3b565b612cfc6080830184612a34565b9695505050505050565b6000606082019050612d1b60008301866129e5565b612d2860208301856129e5565b612d356040830184612c3b565b949350505050565b6000604082019050612d5260008301856129e5565b612d5f6020830184612a43565b9392505050565b6000604082019050612d7b60008301856129e5565b612d886020830184612c3b565b9392505050565b6000602082019050612da460008301846129f4565b92915050565b60006020820190508181036000830152612dc381612a52565b9050919050565b60006020820190508181036000830152612de381612a75565b9050919050565b60006020820190508181036000830152612e0381612a98565b9050919050565b600061010082019050612e206000830184612abb565b92915050565b600061010082019050612e3c6000830184612b5d565b92915050565b6000602082019050612e576000830184612c1d565b92915050565b6000602082019050612e726000830184612c3b565b92915050565b6000608082019050612e8d6000830187612c3b565b612e9a6020830186612c3b565b612ea76040830185612c3b565b612eb460608301846129e5565b95945050505050565b600081519050919050565b600081905092915050565b600082825260208201905092915050565b6000612eef82613061565b9150612efa83613061565b9250827fffffffffffffffffffffffffffffffffffffffffffffffffffffffffffffffff03821115612f2f57612f2e6130fe565b5b828201905092915050565b6000612f4582613061565b9150612f5083613061565b925082612f6057612f5f61312d565b5b828204905092915050565b6000612f7682613061565b9150612f8183613061565b9250817fffffffffffffffffffffffffffffffffffffffffffffffffffffffffffffffff0483118215151615612fba57612fb96130fe565b5b828202905092915050565b6000612fd082613061565b9150612fdb83613061565b925082821015612fee57612fed6130fe565b5b828203905092915050565b600061300482613032565b9050919050565b60008115159050919050565b60008160020b9050919050565b600061ffff82169050919050565b600073ffffffffffffffffffffffffffffffffffffffff82169050919050565b600062ffffff82169050919050565b6000819050919050565b600060ff82169050919050565b600061308382613032565b9050919050565b600061309582613061565b9050919050565b60005b838110156130ba57808201518184015260208101905061309f565b838111156130c9576000848401525b50505050565b7f4e487b7100000000000000000000000000000000000000000000000000000000600052600160045260246000fd5b7f4e487b7100000000000000000000000000000000000000000000000000000000600052601160045260246000fd5b7f4e487b7100000000000000000000000000000000000000000000000000000000600052601260045260246000fd5b600080fd5b7f5341000000000000000000000000000000000000000000000000000000000000600082015250565b7f302061646472657373206973206e6f742061636365707461626c650000000000600082015250565b7f746f6b656e20697320756e646566696e65640000000000000000000000000000600082015250565b6131e581612ff9565b81146131f057600080fd5b50565b6131fc8161300b565b811461320757600080fd5b50565b61321381613017565b811461321e57600080fd5b50565b61322a81613024565b811461323557600080fd5b50565b61324181613032565b811461324c57600080fd5b50565b61325881613052565b811461326357600080fd5b50565b61326f81613061565b811461327a57600080fd5b50565b6132868161306b565b811461329157600080fd5b5056fea2646970667358221220c363a3d162d7ff4317e66202f0c89d9d542586dc941eb228105e0f73a902611764736f6c63430008070033",
  "linkReferences": {},
  "deployedLinkReferences": {}
}